{
	"contracts/AD.sol": {
		"AD": {
			"abi": [
				{
					"inputs": [
						{
							"internalType": "address",
							"name": "_admin",
							"type": "address"
						},
						{
							"internalType": "address",
							"name": "_wormholeRelayer",
							"type": "address"
						}
					],
					"stateMutability": "nonpayable",
					"type": "constructor"
				},
				{
					"anonymous": false,
					"inputs": [
						{
							"indexed": false,
							"internalType": "bytes32",
							"name": "_sender",
							"type": "bytes32"
						},
						{
							"indexed": false,
							"internalType": "bytes32",
							"name": "_receiver",
							"type": "bytes32"
						},
						{
							"indexed": false,
							"internalType": "uint256",
							"name": "_amount",
							"type": "uint256"
						}
					],
					"name": "transactionSent",
					"type": "event"
				},
				{
					"inputs": [
						{
							"internalType": "address",
							"name": "_newAdmin",
							"type": "address"
						}
					],
					"name": "changeAdmin",
					"outputs": [],
					"stateMutability": "nonpayable",
					"type": "function"
				},
				{
					"inputs": [],
					"name": "getAdmin",
					"outputs": [
						{
							"internalType": "address",
							"name": "",
							"type": "address"
						}
					],
					"stateMutability": "view",
					"type": "function"
				},
				{
					"inputs": [
						{
							"internalType": "bytes32",
							"name": "_userName",
							"type": "bytes32"
						}
					],
					"name": "getMyBalance",
					"outputs": [
						{
							"internalType": "uint256",
							"name": "",
							"type": "uint256"
						}
					],
					"stateMutability": "view",
					"type": "function"
				},
				{
					"inputs": [],
					"name": "getRegisterFees",
					"outputs": [
						{
							"internalType": "uint256",
							"name": "",
							"type": "uint256"
						}
					],
					"stateMutability": "view",
					"type": "function"
				},
				{
					"inputs": [
						{
							"internalType": "bytes32",
							"name": "_username",
							"type": "bytes32"
						}
					],
					"name": "getUserAddress",
					"outputs": [
						{
							"internalType": "address",
							"name": "",
							"type": "address"
						}
					],
					"stateMutability": "view",
					"type": "function"
				},
				{
					"inputs": [
						{
							"internalType": "bytes32",
							"name": "_username",
							"type": "bytes32"
						}
					],
					"name": "getUserDetails",
					"outputs": [
						{
							"internalType": "bytes32",
							"name": "",
							"type": "bytes32"
						}
					],
					"stateMutability": "view",
					"type": "function"
				},
				{
					"inputs": [
						{
							"internalType": "address",
							"name": "_sender",
							"type": "address"
						}
					],
					"name": "getUserName",
					"outputs": [
						{
							"internalType": "bytes32",
							"name": "",
							"type": "bytes32"
						}
					],
					"stateMutability": "view",
					"type": "function"
				},
				{
					"inputs": [],
					"name": "getWithdrawalFees",
					"outputs": [
						{
							"internalType": "uint256",
							"name": "",
							"type": "uint256"
						}
					],
					"stateMutability": "view",
					"type": "function"
				},
				{
					"inputs": [
						{
							"internalType": "address",
							"name": "tokenSent",
							"type": "address"
						},
						{
							"internalType": "uint256",
							"name": "amount",
							"type": "uint256"
						},
						{
							"internalType": "bytes",
							"name": "message",
							"type": "bytes"
						}
					],
					"name": "handleVoyagerMessage",
					"outputs": [],
					"stateMutability": "nonpayable",
					"type": "function"
				},
				{
					"inputs": [
						{
							"internalType": "bytes",
							"name": "payload",
							"type": "bytes"
						},
						{
							"internalType": "bytes[]",
							"name": "",
							"type": "bytes[]"
						},
						{
							"internalType": "bytes32",
							"name": "",
							"type": "bytes32"
						},
						{
							"internalType": "uint16",
							"name": "sourceChain",
							"type": "uint16"
						},
						{
							"internalType": "bytes32",
							"name": "deliveryHash",
							"type": "bytes32"
						}
					],
					"name": "receiveWormholeMessages",
					"outputs": [],
					"stateMutability": "payable",
					"type": "function"
				},
				{
					"inputs": [
						{
							"internalType": "bytes32",
							"name": "_username",
							"type": "bytes32"
						},
						{
							"internalType": "bytes32",
							"name": "_name",
							"type": "bytes32"
						}
					],
					"name": "register",
					"outputs": [],
					"stateMutability": "payable",
					"type": "function"
				},
				{
					"inputs": [
						{
							"internalType": "bytes32",
							"name": "",
							"type": "bytes32"
						}
					],
					"name": "seenDeliveryVaaHashes",
					"outputs": [
						{
							"internalType": "bool",
							"name": "",
							"type": "bool"
						}
					],
					"stateMutability": "view",
					"type": "function"
				},
				{
					"inputs": [
						{
							"internalType": "bytes32",
							"name": "_username",
							"type": "bytes32"
						},
						{
							"internalType": "uint256",
							"name": "_amount",
							"type": "uint256"
						}
					],
					"name": "sendMoney",
					"outputs": [],
					"stateMutability": "payable",
					"type": "function"
				},
				{
					"inputs": [
						{
							"internalType": "uint256",
							"name": "_registerFees",
							"type": "uint256"
						}
					],
					"name": "setRegisterFees",
					"outputs": [],
					"stateMutability": "nonpayable",
					"type": "function"
				},
				{
					"inputs": [
						{
							"internalType": "uint256",
							"name": "_withdrawalFees",
							"type": "uint256"
						}
					],
					"name": "setwithdrawalFees",
					"outputs": [],
					"stateMutability": "nonpayable",
					"type": "function"
				},
				{
					"inputs": [],
					"name": "viewFeeBalance",
					"outputs": [
						{
							"internalType": "uint256",
							"name": "",
							"type": "uint256"
						}
					],
					"stateMutability": "nonpayable",
					"type": "function"
				},
				{
					"inputs": [],
					"name": "withdrawFees",
					"outputs": [],
					"stateMutability": "nonpayable",
					"type": "function"
				},
				{
					"inputs": [
						{
							"internalType": "uint256",
							"name": "_amount",
							"type": "uint256"
						}
					],
					"name": "withdrawMoney",
					"outputs": [],
					"stateMutability": "nonpayable",
					"type": "function"
				}
			],
			"devdoc": {
				"kind": "dev",
				"methods": {},
				"version": 1
			},
			"evm": {
				"assembly": "    /* \"contracts/AD.sol\":212:6179  contract AD is IWormholeReceiver{... */\n  mstore(0x40, 0x80)\n    /* \"contracts/AD.sol\":1177:1396  constructor(address _admin, address _wormholeRelayer) {... */\n  callvalue\n  dup1\n  iszero\n  tag_1\n  jumpi\n  0x00\n  dup1\n  revert\ntag_1:\n  pop\n  mload(0x40)\n  sub(codesize, bytecodeSize)\n  dup1\n  bytecodeSize\n  dup4\n  codecopy\n  dup2\n  dup2\n  add\n  0x40\n  mstore\n  dup2\n  add\n  swap1\n  tag_2\n  swap2\n  swap1\n  tag_3\n  jump\t// in\ntag_2:\n    /* \"contracts/AD.sol\":1248:1258  msg.sender */\n  caller\n    /* \"contracts/AD.sol\":1241:1246  owner */\n  0x02\n  0x00\n    /* \"contracts/AD.sol\":1241:1258  owner= msg.sender */\n  0x0100\n  exp\n  dup2\n  sload\n  dup2\n  0xffffffffffffffffffffffffffffffffffffffff\n  mul\n  not\n  and\n  swap1\n  dup4\n  0xffffffffffffffffffffffffffffffffffffffff\n  and\n  mul\n  or\n  swap1\n  sstore\n  pop\n    /* \"contracts/AD.sol\":1275:1281  _admin */\n  dup2\n    /* \"contracts/AD.sol\":1268:1273  admin */\n  0x03\n  0x00\n    /* \"contracts/AD.sol\":1268:1281  admin= _admin */\n  0x0100\n  exp\n  dup2\n  sload\n  dup2\n  0xffffffffffffffffffffffffffffffffffffffff\n  mul\n  not\n  and\n  swap1\n  dup4\n  0xffffffffffffffffffffffffffffffffffffffff\n  and\n  mul\n  or\n  swap1\n  sstore\n  pop\n    /* \"contracts/AD.sol\":1296:1297  0 */\n  0x00\n    /* \"contracts/AD.sol\":1291:1295  fees */\n  dup1\n    /* \"contracts/AD.sol\":1291:1297  fees=0 */\n  dup2\n  swap1\n  sstore\n  pop\n    /* \"contracts/AD.sol\":1322:1323  0 */\n  0x00\n    /* \"contracts/AD.sol\":1307:1321  withdrawalFees */\n  0x05\n    /* \"contracts/AD.sol\":1307:1323  withdrawalFees=0 */\n  dup2\n  swap1\n  sstore\n  pop\n    /* \"contracts/AD.sol\":1346:1347  0 */\n  0x00\n    /* \"contracts/AD.sol\":1333:1345  registerFees */\n  0x06\n    /* \"contracts/AD.sol\":1333:1347  registerFees=0 */\n  dup2\n  swap1\n  sstore\n  pop\n    /* \"contracts/AD.sol\":1373:1389  _wormholeRelayer */\n  dup1\n    /* \"contracts/AD.sol\":1357:1372  wormholeRelayer */\n  0x01\n  0x00\n    /* \"contracts/AD.sol\":1357:1389  wormholeRelayer=_wormholeRelayer */\n  0x0100\n  exp\n  dup2\n  sload\n  dup2\n  0xffffffffffffffffffffffffffffffffffffffff\n  mul\n  not\n  and\n  swap1\n  dup4\n  0xffffffffffffffffffffffffffffffffffffffff\n  and\n  mul\n  or\n  swap1\n  sstore\n  pop\n    /* \"contracts/AD.sol\":1177:1396  constructor(address _admin, address _wormholeRelayer) {... */\n  pop\n  pop\n    /* \"contracts/AD.sol\":212:6179  contract AD is IWormholeReceiver{... */\n  jump(tag_6)\n    /* \"#utility.yul\":88:205   */\ntag_8:\n    /* \"#utility.yul\":197:198   */\n  0x00\n    /* \"#utility.yul\":194:195   */\n  dup1\n    /* \"#utility.yul\":187:199   */\n  revert\n    /* \"#utility.yul\":334:460   */\ntag_10:\n    /* \"#utility.yul\":371:378   */\n  0x00\n    /* \"#utility.yul\":411:453   */\n  0xffffffffffffffffffffffffffffffffffffffff\n    /* \"#utility.yul\":404:409   */\n  dup3\n    /* \"#utility.yul\":400:454   */\n  and\n    /* \"#utility.yul\":389:454   */\n  swap1\n  pop\n    /* \"#utility.yul\":334:460   */\n  swap2\n  swap1\n  pop\n  jump\t// out\n    /* \"#utility.yul\":466:562   */\ntag_11:\n    /* \"#utility.yul\":503:510   */\n  0x00\n    /* \"#utility.yul\":532:556   */\n  tag_20\n    /* \"#utility.yul\":550:555   */\n  dup3\n    /* \"#utility.yul\":532:556   */\n  tag_10\n  jump\t// in\ntag_20:\n    /* \"#utility.yul\":521:556   */\n  swap1\n  pop\n    /* \"#utility.yul\":466:562   */\n  swap2\n  swap1\n  pop\n  jump\t// out\n    /* \"#utility.yul\":568:690   */\ntag_12:\n    /* \"#utility.yul\":641:665   */\n  tag_22\n    /* \"#utility.yul\":659:664   */\n  dup2\n    /* \"#utility.yul\":641:665   */\n  tag_11\n  jump\t// in\ntag_22:\n    /* \"#utility.yul\":634:639   */\n  dup2\n    /* \"#utility.yul\":631:666   */\n  eq\n    /* \"#utility.yul\":621:684   */\n  tag_23\n  jumpi\n    /* \"#utility.yul\":680:681   */\n  0x00\n    /* \"#utility.yul\":677:678   */\n  dup1\n    /* \"#utility.yul\":670:682   */\n  revert\n    /* \"#utility.yul\":621:684   */\ntag_23:\n    /* \"#utility.yul\":568:690   */\n  pop\n  jump\t// out\n    /* \"#utility.yul\":696:839   */\ntag_13:\n    /* \"#utility.yul\":753:758   */\n  0x00\n    /* \"#utility.yul\":784:790   */\n  dup2\n    /* \"#utility.yul\":778:791   */\n  mload\n    /* \"#utility.yul\":769:791   */\n  swap1\n  pop\n    /* \"#utility.yul\":800:833   */\n  tag_25\n    /* \"#utility.yul\":827:832   */\n  dup2\n    /* \"#utility.yul\":800:833   */\n  tag_12\n  jump\t// in\ntag_25:\n    /* \"#utility.yul\":696:839   */\n  swap3\n  swap2\n  pop\n  pop\n  jump\t// out\n    /* \"#utility.yul\":845:1352   */\ntag_3:\n    /* \"#utility.yul\":924:930   */\n  0x00\n    /* \"#utility.yul\":932:938   */\n  dup1\n    /* \"#utility.yul\":981:983   */\n  0x40\n    /* \"#utility.yul\":969:978   */\n  dup4\n    /* \"#utility.yul\":960:967   */\n  dup6\n    /* \"#utility.yul\":956:979   */\n  sub\n    /* \"#utility.yul\":952:984   */\n  slt\n    /* \"#utility.yul\":949:1068   */\n  iszero\n  tag_27\n  jumpi\n    /* \"#utility.yul\":987:1066   */\n  tag_28\n  tag_8\n  jump\t// in\ntag_28:\n    /* \"#utility.yul\":949:1068   */\ntag_27:\n    /* \"#utility.yul\":1107:1108   */\n  0x00\n    /* \"#utility.yul\":1132:1196   */\n  tag_29\n    /* \"#utility.yul\":1188:1195   */\n  dup6\n    /* \"#utility.yul\":1179:1185   */\n  dup3\n    /* \"#utility.yul\":1168:1177   */\n  dup7\n    /* \"#utility.yul\":1164:1186   */\n  add\n    /* \"#utility.yul\":1132:1196   */\n  tag_13\n  jump\t// in\ntag_29:\n    /* \"#utility.yul\":1122:1196   */\n  swap3\n  pop\n    /* \"#utility.yul\":1078:1206   */\n  pop\n    /* \"#utility.yul\":1245:1247   */\n  0x20\n    /* \"#utility.yul\":1271:1335   */\n  tag_30\n    /* \"#utility.yul\":1327:1334   */\n  dup6\n    /* \"#utility.yul\":1318:1324   */\n  dup3\n    /* \"#utility.yul\":1307:1316   */\n  dup7\n    /* \"#utility.yul\":1303:1325   */\n  add\n    /* \"#utility.yul\":1271:1335   */\n  tag_13\n  jump\t// in\ntag_30:\n    /* \"#utility.yul\":1261:1335   */\n  swap2\n  pop\n    /* \"#utility.yul\":1216:1345   */\n  pop\n    /* \"#utility.yul\":845:1352   */\n  swap3\n  pop\n  swap3\n  swap1\n  pop\n  jump\t// out\n    /* \"contracts/AD.sol\":212:6179  contract AD is IWormholeReceiver{... */\ntag_6:\n  dataSize(sub_0)\n  dup1\n  dataOffset(sub_0)\n  0x00\n  codecopy\n  0x00\n  return\nstop\n\nsub_0: assembly {\n        /* \"contracts/AD.sol\":212:6179  contract AD is IWormholeReceiver{... */\n      mstore(0x40, 0x80)\n      jumpi(tag_1, lt(calldatasize, 0x04))\n      shr(0xe0, calldataload(0x00))\n      dup1\n      0x6e9960c3\n      gt\n      tag_20\n      jumpi\n      dup1\n      0xb602bc79\n      gt\n      tag_21\n      jumpi\n      dup1\n      0xb602bc79\n      eq\n      tag_15\n      jumpi\n      dup1\n      0xccdde8d0\n      eq\n      tag_16\n      jumpi\n      dup1\n      0xd84f55ee\n      eq\n      tag_17\n      jumpi\n      dup1\n      0xe07ee04c\n      eq\n      tag_18\n      jumpi\n      dup1\n      0xf23e8dca\n      eq\n      tag_19\n      jumpi\n      jump(tag_1)\n    tag_21:\n      dup1\n      0x6e9960c3\n      eq\n      tag_11\n      jumpi\n      dup1\n      0x8f283970\n      eq\n      tag_12\n      jumpi\n      dup1\n      0x94924873\n      eq\n      tag_13\n      jumpi\n      dup1\n      0xb45f9b82\n      eq\n      tag_14\n      jumpi\n      jump(tag_1)\n    tag_20:\n      dup1\n      0x476343ee\n      gt\n      tag_22\n      jumpi\n      dup1\n      0x476343ee\n      eq\n      tag_6\n      jumpi\n      dup1\n      0x4a4e8884\n      eq\n      tag_7\n      jumpi\n      dup1\n      0x529dca32\n      eq\n      tag_8\n      jumpi\n      dup1\n      0x54876921\n      eq\n      tag_9\n      jumpi\n      dup1\n      0x6b030b38\n      eq\n      tag_10\n      jumpi\n      jump(tag_1)\n    tag_22:\n      dup1\n      0x0edf110c\n      eq\n      tag_2\n      jumpi\n      dup1\n      0x180f6cc2\n      eq\n      tag_3\n      jumpi\n      dup1\n      0x2f926732\n      eq\n      tag_4\n      jumpi\n      dup1\n      0x443a1937\n      eq\n      tag_5\n      jumpi\n    tag_1:\n      0x00\n      dup1\n      revert\n        /* \"contracts/AD.sol\":5716:5812  function getWithdrawalFees() public view returns( uint256){... */\n    tag_2:\n      callvalue\n      dup1\n      iszero\n      tag_23\n      jumpi\n      0x00\n      dup1\n      revert\n    tag_23:\n      pop\n      tag_24\n      tag_25\n      jump\t// in\n    tag_24:\n      mload(0x40)\n      tag_26\n      swap2\n      swap1\n      tag_27\n      jump\t// in\n    tag_26:\n      mload(0x40)\n      dup1\n      swap2\n      sub\n      swap1\n      return\n        /* \"contracts/AD.sol\":2229:2282  mapping(bytes32 => bool) public seenDeliveryVaaHashes */\n    tag_3:\n      callvalue\n      dup1\n      iszero\n      tag_28\n      jumpi\n      0x00\n      dup1\n      revert\n    tag_28:\n      pop\n      tag_29\n      0x04\n      dup1\n      calldatasize\n      sub\n      dup2\n      add\n      swap1\n      tag_30\n      swap2\n      swap1\n      tag_31\n      jump\t// in\n    tag_30:\n      tag_32\n      jump\t// in\n    tag_29:\n      mload(0x40)\n      tag_33\n      swap2\n      swap1\n      tag_34\n      jump\t// in\n    tag_33:\n      mload(0x40)\n      dup1\n      swap2\n      sub\n      swap1\n      return\n        /* \"contracts/AD.sol\":1592:2222  function register(bytes32 _username, bytes32 _name) public payable {... */\n    tag_4:\n      tag_35\n      0x04\n      dup1\n      calldatasize\n      sub\n      dup2\n      add\n      swap1\n      tag_36\n      swap2\n      swap1\n      tag_37\n      jump\t// in\n    tag_36:\n      tag_38\n      jump\t// in\n    tag_35:\n      stop\n        /* \"contracts/AD.sol\":5499:5591  function viewFeeBalance() public isOwnerOrAdmin returns(uint256){... */\n    tag_5:\n      callvalue\n      dup1\n      iszero\n      tag_39\n      jumpi\n      0x00\n      dup1\n      revert\n    tag_39:\n      pop\n      tag_40\n      tag_41\n      jump\t// in\n    tag_40:\n      mload(0x40)\n      tag_42\n      swap2\n      swap1\n      tag_27\n      jump\t// in\n    tag_42:\n      mload(0x40)\n      dup1\n      swap2\n      sub\n      swap1\n      return\n        /* \"contracts/AD.sol\":4910:5102  function withdrawFees() public isOwnerOrAdmin(){... */\n    tag_6:\n      callvalue\n      dup1\n      iszero\n      tag_43\n      jumpi\n      0x00\n      dup1\n      revert\n    tag_43:\n      pop\n      tag_44\n      tag_45\n      jump\t// in\n    tag_44:\n      stop\n        /* \"contracts/AD.sol\":5239:5372  function getUserAddress( bytes32 _username) public view returns(address){... */\n    tag_7:\n      callvalue\n      dup1\n      iszero\n      tag_46\n      jumpi\n      0x00\n      dup1\n      revert\n    tag_46:\n      pop\n      tag_47\n      0x04\n      dup1\n      calldatasize\n      sub\n      dup2\n      add\n      swap1\n      tag_48\n      swap2\n      swap1\n      tag_31\n      jump\t// in\n    tag_48:\n      tag_49\n      jump\t// in\n    tag_47:\n      mload(0x40)\n      tag_50\n      swap2\n      swap1\n      tag_51\n      jump\t// in\n    tag_50:\n      mload(0x40)\n      dup1\n      swap2\n      sub\n      swap1\n      return\n        /* \"contracts/AD.sol\":2289:3488  function receiveWormholeMessages(... */\n    tag_8:\n      tag_52\n      0x04\n      dup1\n      calldatasize\n      sub\n      dup2\n      add\n      swap1\n      tag_53\n      swap2\n      swap1\n      tag_54\n      jump\t// in\n    tag_53:\n      tag_55\n      jump\t// in\n    tag_52:\n      stop\n        /* \"contracts/AD.sol\":4449:4904  function withdrawMoney(uint256 _amount) public {... */\n    tag_9:\n      callvalue\n      dup1\n      iszero\n      tag_56\n      jumpi\n      0x00\n      dup1\n      revert\n    tag_56:\n      pop\n      tag_57\n      0x04\n      dup1\n      calldatasize\n      sub\n      dup2\n      add\n      swap1\n      tag_58\n      swap2\n      swap1\n      tag_59\n      jump\t// in\n    tag_58:\n      tag_60\n      jump\t// in\n    tag_57:\n      stop\n        /* \"contracts/AD.sol\":5924:6042  function setRegisterFees(uint256 _registerFees)   public isOwnerOrAdmin(){... */\n    tag_10:\n      callvalue\n      dup1\n      iszero\n      tag_61\n      jumpi\n      0x00\n      dup1\n      revert\n    tag_61:\n      pop\n      tag_62\n      0x04\n      dup1\n      calldatasize\n      sub\n      dup2\n      add\n      swap1\n      tag_63\n      swap2\n      swap1\n      tag_59\n      jump\t// in\n    tag_63:\n      tag_64\n      jump\t// in\n    tag_62:\n      stop\n        /* \"contracts/AD.sol\":1507:1586  function getAdmin() public view  returns(address) {... */\n    tag_11:\n      callvalue\n      dup1\n      iszero\n      tag_65\n      jumpi\n      0x00\n      dup1\n      revert\n    tag_65:\n      pop\n      tag_66\n      tag_67\n      jump\t// in\n    tag_66:\n      mload(0x40)\n      tag_68\n      swap2\n      swap1\n      tag_51\n      jump\t// in\n    tag_68:\n      mload(0x40)\n      dup1\n      swap2\n      sub\n      swap1\n      return\n        /* \"contracts/AD.sol\":1402:1501  function changeAdmin(address _newAdmin) external isOwnerOrAdmin{... */\n    tag_12:\n      callvalue\n      dup1\n      iszero\n      tag_69\n      jumpi\n      0x00\n      dup1\n      revert\n    tag_69:\n      pop\n      tag_70\n      0x04\n      dup1\n      calldatasize\n      sub\n      dup2\n      add\n      swap1\n      tag_71\n      swap2\n      swap1\n      tag_72\n      jump\t// in\n    tag_71:\n      tag_73\n      jump\t// in\n    tag_70:\n      stop\n        /* \"contracts/AD.sol\":6048:6172  function setwithdrawalFees(uint256 _withdrawalFees)   public isOwnerOrAdmin(){... */\n    tag_13:\n      callvalue\n      dup1\n      iszero\n      tag_74\n      jumpi\n      0x00\n      dup1\n      revert\n    tag_74:\n      pop\n      tag_75\n      0x04\n      dup1\n      calldatasize\n      sub\n      dup2\n      add\n      swap1\n      tag_76\n      swap2\n      swap1\n      tag_59\n      jump\t// in\n    tag_76:\n      tag_77\n      jump\t// in\n    tag_75:\n      stop\n        /* \"contracts/AD.sol\":3956:4438  function sendMoney(bytes32 _username, uint256 _amount) public payable isRegistered{... */\n    tag_14:\n      tag_78\n      0x04\n      dup1\n      calldatasize\n      sub\n      dup2\n      add\n      swap1\n      tag_79\n      swap2\n      swap1\n      tag_80\n      jump\t// in\n    tag_79:\n      tag_81\n      jump\t// in\n    tag_78:\n      stop\n        /* \"contracts/AD.sol\":5108:5233  function getUserDetails(bytes32 _username) public view returns(bytes32){... */\n    tag_15:\n      callvalue\n      dup1\n      iszero\n      tag_82\n      jumpi\n      0x00\n      dup1\n      revert\n    tag_82:\n      pop\n      tag_83\n      0x04\n      dup1\n      calldatasize\n      sub\n      dup2\n      add\n      swap1\n      tag_84\n      swap2\n      swap1\n      tag_31\n      jump\t// in\n    tag_84:\n      tag_85\n      jump\t// in\n    tag_83:\n      mload(0x40)\n      tag_86\n      swap2\n      swap1\n      tag_87\n      jump\t// in\n    tag_86:\n      mload(0x40)\n      dup1\n      swap2\n      sub\n      swap1\n      return\n        /* \"contracts/AD.sol\":3494:3950  function handleVoyagerMessage(... */\n    tag_16:\n      callvalue\n      dup1\n      iszero\n      tag_88\n      jumpi\n      0x00\n      dup1\n      revert\n    tag_88:\n      pop\n      tag_89\n      0x04\n      dup1\n      calldatasize\n      sub\n      dup2\n      add\n      swap1\n      tag_90\n      swap2\n      swap1\n      tag_91\n      jump\t// in\n    tag_90:\n      tag_92\n      jump\t// in\n    tag_89:\n      stop\n        /* \"contracts/AD.sol\":5598:5706  function getUserName(address _sender) public view returns( bytes32){... */\n    tag_17:\n      callvalue\n      dup1\n      iszero\n      tag_93\n      jumpi\n      0x00\n      dup1\n      revert\n    tag_93:\n      pop\n      tag_94\n      0x04\n      dup1\n      calldatasize\n      sub\n      dup2\n      add\n      swap1\n      tag_95\n      swap2\n      swap1\n      tag_72\n      jump\t// in\n    tag_95:\n      tag_96\n      jump\t// in\n    tag_94:\n      mload(0x40)\n      tag_97\n      swap2\n      swap1\n      tag_87\n      jump\t// in\n    tag_97:\n      mload(0x40)\n      dup1\n      swap2\n      sub\n      swap1\n      return\n        /* \"contracts/AD.sol\":5822:5914  function getRegisterFees() public view returns( uint256){... */\n    tag_18:\n      callvalue\n      dup1\n      iszero\n      tag_98\n      jumpi\n      0x00\n      dup1\n      revert\n    tag_98:\n      pop\n      tag_99\n      tag_100\n      jump\t// in\n    tag_99:\n      mload(0x40)\n      tag_101\n      swap2\n      swap1\n      tag_27\n      jump\t// in\n    tag_101:\n      mload(0x40)\n      dup1\n      swap2\n      sub\n      swap1\n      return\n        /* \"contracts/AD.sol\":5378:5493  function getMyBalance(bytes32 _userName) public view returns(uint256){... */\n    tag_19:\n      callvalue\n      dup1\n      iszero\n      tag_102\n      jumpi\n      0x00\n      dup1\n      revert\n    tag_102:\n      pop\n      tag_103\n      0x04\n      dup1\n      calldatasize\n      sub\n      dup2\n      add\n      swap1\n      tag_104\n      swap2\n      swap1\n      tag_31\n      jump\t// in\n    tag_104:\n      tag_105\n      jump\t// in\n    tag_103:\n      mload(0x40)\n      tag_106\n      swap2\n      swap1\n      tag_27\n      jump\t// in\n    tag_106:\n      mload(0x40)\n      dup1\n      swap2\n      sub\n      swap1\n      return\n        /* \"contracts/AD.sol\":5716:5812  function getWithdrawalFees() public view returns( uint256){... */\n    tag_25:\n        /* \"contracts/AD.sol\":5766:5773  uint256 */\n      0x00\n        /* \"contracts/AD.sol\":5791:5805  withdrawalFees */\n      sload(0x05)\n        /* \"contracts/AD.sol\":5784:5805  return withdrawalFees */\n      swap1\n      pop\n        /* \"contracts/AD.sol\":5716:5812  function getWithdrawalFees() public view returns( uint256){... */\n      swap1\n      jump\t// out\n        /* \"contracts/AD.sol\":2229:2282  mapping(bytes32 => bool) public seenDeliveryVaaHashes */\n    tag_32:\n      mstore(0x20, 0x0a)\n      dup1\n      0x00\n      mstore\n      keccak256(0x00, 0x40)\n      0x00\n      swap2\n      pop\n      sload\n      swap1\n      0x0100\n      exp\n      swap1\n      div\n      0xff\n      and\n      dup2\n      jump\t// out\n        /* \"contracts/AD.sol\":1592:2222  function register(bytes32 _username, bytes32 _name) public payable {... */\n    tag_38:\n        /* \"contracts/AD.sol\":1738:1750  registerFees */\n      sload(0x06)\n        /* \"contracts/AD.sol\":1725:1734  msg.value */\n      callvalue\n        /* \"contracts/AD.sol\":1725:1750  msg.value >= registerFees */\n      lt\n      iszero\n        /* \"contracts/AD.sol\":1717:1783  require(msg.value >= registerFees, 'need to pay fees to register') */\n      tag_109\n      jumpi\n      mload(0x40)\n      0x08c379a000000000000000000000000000000000000000000000000000000000\n      dup2\n      mstore\n      0x04\n      add\n      tag_110\n      swap1\n      tag_111\n      jump\t// in\n    tag_110:\n      mload(0x40)\n      dup1\n      swap2\n      sub\n      swap1\n      revert\n    tag_109:\n        /* \"contracts/AD.sol\":1850:1851  0 */\n      0x00\n        /* \"contracts/AD.sol\":1801:1852  userNameDetail[_username].userAddress == address(0) */\n      0xffffffffffffffffffffffffffffffffffffffff\n      and\n        /* \"contracts/AD.sol\":1801:1815  userNameDetail */\n      0x07\n        /* \"contracts/AD.sol\":1801:1826  userNameDetail[_username] */\n      0x00\n        /* \"contracts/AD.sol\":1816:1825  _username */\n      dup5\n        /* \"contracts/AD.sol\":1801:1826  userNameDetail[_username] */\n      dup2\n      mstore\n      0x20\n      add\n      swap1\n      dup2\n      mstore\n      0x20\n      add\n      0x00\n      keccak256\n        /* \"contracts/AD.sol\":1801:1838  userNameDetail[_username].userAddress */\n      0x00\n      add\n      0x00\n      swap1\n      sload\n      swap1\n      0x0100\n      exp\n      swap1\n      div\n      0xffffffffffffffffffffffffffffffffffffffff\n      and\n        /* \"contracts/AD.sol\":1801:1852  userNameDetail[_username].userAddress == address(0) */\n      0xffffffffffffffffffffffffffffffffffffffff\n      and\n      eq\n        /* \"contracts/AD.sol\":1793:1883  require(userNameDetail[_username].userAddress == address(0),'Already registered username') */\n      tag_112\n      jumpi\n      mload(0x40)\n      0x08c379a000000000000000000000000000000000000000000000000000000000\n      dup2\n      mstore\n      0x04\n      add\n      tag_113\n      swap1\n      tag_114\n      jump\t// in\n    tag_113:\n      mload(0x40)\n      dup1\n      swap2\n      sub\n      swap1\n      revert\n    tag_112:\n        /* \"contracts/AD.sol\":1905:1914  msg.value */\n      callvalue\n        /* \"contracts/AD.sol\":1899:1903  fees */\n      sload(0x00)\n        /* \"contracts/AD.sol\":1899:1914  fees+ msg.value */\n      tag_115\n      swap2\n      swap1\n      tag_116\n      jump\t// in\n    tag_115:\n        /* \"contracts/AD.sol\":1893:1897  fees */\n      0x00\n        /* \"contracts/AD.sol\":1893:1914  fees= fees+ msg.value */\n      dup2\n      swap1\n      sstore\n      pop\n        /* \"contracts/AD.sol\":1951:2139  userData({... */\n      mload(0x40)\n      dup1\n      0x60\n      add\n      0x40\n      mstore\n      dup1\n        /* \"contracts/AD.sol\":2014:2024  msg.sender */\n      caller\n        /* \"contracts/AD.sol\":1951:2139  userData({... */\n      0xffffffffffffffffffffffffffffffffffffffff\n      and\n      dup2\n      mstore\n      0x20\n      add\n        /* \"contracts/AD.sol\":2076:2085  _username */\n      dup4\n        /* \"contracts/AD.sol\":1951:2139  userData({... */\n      dup2\n      mstore\n      0x20\n      add\n        /* \"contracts/AD.sol\":2132:2137  _name */\n      dup3\n        /* \"contracts/AD.sol\":1951:2139  userData({... */\n      dup2\n      mstore\n      pop\n        /* \"contracts/AD.sol\":1924:1938  userNameDetail */\n      0x07\n        /* \"contracts/AD.sol\":1924:1949  userNameDetail[_username] */\n      0x00\n        /* \"contracts/AD.sol\":1939:1948  _username */\n      dup5\n        /* \"contracts/AD.sol\":1924:1949  userNameDetail[_username] */\n      dup2\n      mstore\n      0x20\n      add\n      swap1\n      dup2\n      mstore\n      0x20\n      add\n      0x00\n      keccak256\n        /* \"contracts/AD.sol\":1924:2139  userNameDetail[_username]= userData({... */\n      0x00\n      dup3\n      add\n      mload\n      dup2\n      0x00\n      add\n      exp(0x0100, 0x00)\n      dup2\n      sload\n      dup2\n      0xffffffffffffffffffffffffffffffffffffffff\n      mul\n      not\n      and\n      swap1\n      dup4\n      0xffffffffffffffffffffffffffffffffffffffff\n      and\n      mul\n      or\n      swap1\n      sstore\n      pop\n      0x20\n      dup3\n      add\n      mload\n      dup2\n      0x01\n      add\n      sstore\n      0x40\n      dup3\n      add\n      mload\n      dup2\n      0x02\n      add\n      sstore\n      swap1\n      pop\n      pop\n        /* \"contracts/AD.sol\":2171:2180  _username */\n      dup2\n        /* \"contracts/AD.sol\":2149:2157  userName */\n      0x08\n        /* \"contracts/AD.sol\":2149:2169  userName[msg.sender] */\n      0x00\n        /* \"contracts/AD.sol\":2158:2168  msg.sender */\n      caller\n        /* \"contracts/AD.sol\":2149:2169  userName[msg.sender] */\n      0xffffffffffffffffffffffffffffffffffffffff\n      and\n      0xffffffffffffffffffffffffffffffffffffffff\n      and\n      dup2\n      mstore\n      0x20\n      add\n      swap1\n      dup2\n      mstore\n      0x20\n      add\n      0x00\n      keccak256\n        /* \"contracts/AD.sol\":2149:2180  userName[msg.sender]= _username */\n      dup2\n      swap1\n      sstore\n      pop\n        /* \"contracts/AD.sol\":2214:2215  0 */\n      0x00\n        /* \"contracts/AD.sol\":2190:2201  userBalance */\n      0x09\n        /* \"contracts/AD.sol\":2190:2212  userBalance[_username] */\n      0x00\n        /* \"contracts/AD.sol\":2202:2211  _username */\n      dup5\n        /* \"contracts/AD.sol\":2190:2212  userBalance[_username] */\n      dup2\n      mstore\n      0x20\n      add\n      swap1\n      dup2\n      mstore\n      0x20\n      add\n      0x00\n      keccak256\n        /* \"contracts/AD.sol\":2190:2215  userBalance[_username]= 0 */\n      dup2\n      swap1\n      sstore\n      pop\n        /* \"contracts/AD.sol\":1592:2222  function register(bytes32 _username, bytes32 _name) public payable {... */\n      pop\n      pop\n      jump\t// out\n        /* \"contracts/AD.sol\":5499:5591  function viewFeeBalance() public isOwnerOrAdmin returns(uint256){... */\n    tag_41:\n        /* \"contracts/AD.sol\":5555:5562  uint256 */\n      0x00\n        /* \"contracts/AD.sol\":911:916  owner */\n      0x02\n      0x00\n      swap1\n      sload\n      swap1\n      0x0100\n      exp\n      swap1\n      div\n      0xffffffffffffffffffffffffffffffffffffffff\n      and\n        /* \"contracts/AD.sol\":897:916  msg.sender == owner */\n      0xffffffffffffffffffffffffffffffffffffffff\n      and\n        /* \"contracts/AD.sol\":897:907  msg.sender */\n      caller\n        /* \"contracts/AD.sol\":897:916  msg.sender == owner */\n      0xffffffffffffffffffffffffffffffffffffffff\n      and\n      eq\n        /* \"contracts/AD.sol\":897:938  msg.sender == owner||  msg.sender== admin */\n      dup1\n      tag_118\n      jumpi\n      pop\n        /* \"contracts/AD.sol\":933:938  admin */\n      0x03\n      0x00\n      swap1\n      sload\n      swap1\n      0x0100\n      exp\n      swap1\n      div\n      0xffffffffffffffffffffffffffffffffffffffff\n      and\n        /* \"contracts/AD.sol\":920:938  msg.sender== admin */\n      0xffffffffffffffffffffffffffffffffffffffff\n      and\n        /* \"contracts/AD.sol\":920:930  msg.sender */\n      caller\n        /* \"contracts/AD.sol\":920:938  msg.sender== admin */\n      0xffffffffffffffffffffffffffffffffffffffff\n      and\n      eq\n        /* \"contracts/AD.sol\":897:938  msg.sender == owner||  msg.sender== admin */\n    tag_118:\n        /* \"contracts/AD.sol\":889:963  require(msg.sender == owner||  msg.sender== admin , \"Caller is not owner\") */\n      tag_119\n      jumpi\n      mload(0x40)\n      0x08c379a000000000000000000000000000000000000000000000000000000000\n      dup2\n      mstore\n      0x04\n      add\n      tag_120\n      swap1\n      tag_121\n      jump\t// in\n    tag_120:\n      mload(0x40)\n      dup1\n      swap2\n      sub\n      swap1\n      revert\n    tag_119:\n        /* \"contracts/AD.sol\":5580:5584  fees */\n      sload(0x00)\n        /* \"contracts/AD.sol\":5573:5584  return fees */\n      swap1\n      pop\n        /* \"contracts/AD.sol\":5499:5591  function viewFeeBalance() public isOwnerOrAdmin returns(uint256){... */\n      swap1\n      jump\t// out\n        /* \"contracts/AD.sol\":4910:5102  function withdrawFees() public isOwnerOrAdmin(){... */\n    tag_45:\n        /* \"contracts/AD.sol\":911:916  owner */\n      0x02\n      0x00\n      swap1\n      sload\n      swap1\n      0x0100\n      exp\n      swap1\n      div\n      0xffffffffffffffffffffffffffffffffffffffff\n      and\n        /* \"contracts/AD.sol\":897:916  msg.sender == owner */\n      0xffffffffffffffffffffffffffffffffffffffff\n      and\n        /* \"contracts/AD.sol\":897:907  msg.sender */\n      caller\n        /* \"contracts/AD.sol\":897:916  msg.sender == owner */\n      0xffffffffffffffffffffffffffffffffffffffff\n      and\n      eq\n        /* \"contracts/AD.sol\":897:938  msg.sender == owner||  msg.sender== admin */\n      dup1\n      tag_124\n      jumpi\n      pop\n        /* \"contracts/AD.sol\":933:938  admin */\n      0x03\n      0x00\n      swap1\n      sload\n      swap1\n      0x0100\n      exp\n      swap1\n      div\n      0xffffffffffffffffffffffffffffffffffffffff\n      and\n        /* \"contracts/AD.sol\":920:938  msg.sender== admin */\n      0xffffffffffffffffffffffffffffffffffffffff\n      and\n        /* \"contracts/AD.sol\":920:930  msg.sender */\n      caller\n        /* \"contracts/AD.sol\":920:938  msg.sender== admin */\n      0xffffffffffffffffffffffffffffffffffffffff\n      and\n      eq\n        /* \"contracts/AD.sol\":897:938  msg.sender == owner||  msg.sender== admin */\n    tag_124:\n        /* \"contracts/AD.sol\":889:963  require(msg.sender == owner||  msg.sender== admin , \"Caller is not owner\") */\n      tag_125\n      jumpi\n      mload(0x40)\n      0x08c379a000000000000000000000000000000000000000000000000000000000\n      dup2\n      mstore\n      0x04\n      add\n      tag_126\n      swap1\n      tag_121\n      jump\t// in\n    tag_126:\n      mload(0x40)\n      dup1\n      swap2\n      sub\n      swap1\n      revert\n    tag_125:\n        /* \"contracts/AD.sol\":4968:4977  bool sent */\n      0x00\n        /* \"contracts/AD.sol\":4979:4996  bytes memory data */\n      dup1\n        /* \"contracts/AD.sol\":5000:5010  msg.sender */\n      caller\n        /* \"contracts/AD.sol\":5000:5015  msg.sender.call */\n      0xffffffffffffffffffffffffffffffffffffffff\n      and\n        /* \"contracts/AD.sol\":5023:5027  fees */\n      sload(0x00)\n        /* \"contracts/AD.sol\":5000:5032  msg.sender.call{value: fees}(\"\") */\n      mload(0x40)\n      tag_128\n      swap1\n      tag_129\n      jump\t// in\n    tag_128:\n      0x00\n      mload(0x40)\n      dup1\n      dup4\n      sub\n      dup2\n      dup6\n      dup8\n      gas\n      call\n      swap3\n      pop\n      pop\n      pop\n      returndatasize\n      dup1\n      0x00\n      dup2\n      eq\n      tag_132\n      jumpi\n      mload(0x40)\n      swap2\n      pop\n      and(add(returndatasize, 0x3f), not(0x1f))\n      dup3\n      add\n      0x40\n      mstore\n      returndatasize\n      dup3\n      mstore\n      returndatasize\n      0x00\n      0x20\n      dup5\n      add\n      returndatacopy\n      jump(tag_131)\n    tag_132:\n      0x60\n      swap2\n      pop\n    tag_131:\n      pop\n        /* \"contracts/AD.sol\":4967:5032  (bool sent, bytes memory data) = msg.sender.call{value: fees}(\"\") */\n      swap2\n      pop\n      swap2\n      pop\n        /* \"contracts/AD.sol\":5047:5048  0 */\n      0x00\n        /* \"contracts/AD.sol\":5042:5046  fees */\n      dup1\n        /* \"contracts/AD.sol\":5042:5048  fees=0 */\n      dup2\n      swap1\n      sstore\n      pop\n        /* \"contracts/AD.sol\":5066:5070  sent */\n      dup2\n        /* \"contracts/AD.sol\":5058:5095  require(sent, \"Failed to send Ether\") */\n      tag_133\n      jumpi\n      mload(0x40)\n      0x08c379a000000000000000000000000000000000000000000000000000000000\n      dup2\n      mstore\n      0x04\n      add\n      tag_134\n      swap1\n      tag_135\n      jump\t// in\n    tag_134:\n      mload(0x40)\n      dup1\n      swap2\n      sub\n      swap1\n      revert\n    tag_133:\n        /* \"contracts/AD.sol\":4957:5102  {... */\n      pop\n      pop\n        /* \"contracts/AD.sol\":4910:5102  function withdrawFees() public isOwnerOrAdmin(){... */\n      jump\t// out\n        /* \"contracts/AD.sol\":5239:5372  function getUserAddress( bytes32 _username) public view returns(address){... */\n    tag_49:\n        /* \"contracts/AD.sol\":5303:5310  address */\n      0x00\n        /* \"contracts/AD.sol\":5328:5342  userNameDetail */\n      0x07\n        /* \"contracts/AD.sol\":5328:5353  userNameDetail[_username] */\n      0x00\n        /* \"contracts/AD.sol\":5343:5352  _username */\n      dup4\n        /* \"contracts/AD.sol\":5328:5353  userNameDetail[_username] */\n      dup2\n      mstore\n      0x20\n      add\n      swap1\n      dup2\n      mstore\n      0x20\n      add\n      0x00\n      keccak256\n        /* \"contracts/AD.sol\":5328:5365  userNameDetail[_username].userAddress */\n      0x00\n      add\n      0x00\n      swap1\n      sload\n      swap1\n      0x0100\n      exp\n      swap1\n      div\n      0xffffffffffffffffffffffffffffffffffffffff\n      and\n        /* \"contracts/AD.sol\":5321:5365  return userNameDetail[_username].userAddress */\n      swap1\n      pop\n        /* \"contracts/AD.sol\":5239:5372  function getUserAddress( bytes32 _username) public view returns(address){... */\n      swap2\n      swap1\n      pop\n      jump\t// out\n        /* \"contracts/AD.sol\":2289:3488  function receiveWormholeMessages(... */\n    tag_55:\n        /* \"contracts/AD.sol\":2662:2677  wormholeRelayer */\n      0x01\n      0x00\n      swap1\n      sload\n      swap1\n      0x0100\n      exp\n      swap1\n      div\n      0xffffffffffffffffffffffffffffffffffffffff\n      and\n        /* \"contracts/AD.sol\":2640:2678  msg.sender == address(wormholeRelayer) */\n      0xffffffffffffffffffffffffffffffffffffffff\n      and\n        /* \"contracts/AD.sol\":2640:2650  msg.sender */\n      caller\n        /* \"contracts/AD.sol\":2640:2678  msg.sender == address(wormholeRelayer) */\n      0xffffffffffffffffffffffffffffffffffffffff\n      and\n      eq\n        /* \"contracts/AD.sol\":2632:2703  require(msg.sender == address(wormholeRelayer), \"Only relayer allowed\") */\n      tag_138\n      jumpi\n      mload(0x40)\n      0x08c379a000000000000000000000000000000000000000000000000000000000\n      dup2\n      mstore\n      0x04\n      add\n      tag_139\n      swap1\n      tag_140\n      jump\t// in\n    tag_139:\n      mload(0x40)\n      dup1\n      swap2\n      sub\n      swap1\n      revert\n    tag_138:\n        /* \"contracts/AD.sol\":2765:2786  seenDeliveryVaaHashes */\n      0x0a\n        /* \"contracts/AD.sol\":2765:2800  seenDeliveryVaaHashes[deliveryHash] */\n      0x00\n        /* \"contracts/AD.sol\":2787:2799  deliveryHash */\n      dup3\n        /* \"contracts/AD.sol\":2765:2800  seenDeliveryVaaHashes[deliveryHash] */\n      dup2\n      mstore\n      0x20\n      add\n      swap1\n      dup2\n      mstore\n      0x20\n      add\n      0x00\n      keccak256\n      0x00\n      swap1\n      sload\n      swap1\n      0x0100\n      exp\n      swap1\n      div\n      0xff\n      and\n        /* \"contracts/AD.sol\":2764:2800  !seenDeliveryVaaHashes[deliveryHash] */\n      iszero\n        /* \"contracts/AD.sol\":2756:2830  require(!seenDeliveryVaaHashes[deliveryHash], \"Message already processed\") */\n      tag_141\n      jumpi\n      mload(0x40)\n      0x08c379a000000000000000000000000000000000000000000000000000000000\n      dup2\n      mstore\n      0x04\n      add\n      tag_142\n      swap1\n      tag_143\n      jump\t// in\n    tag_142:\n      mload(0x40)\n      dup1\n      swap2\n      sub\n      swap1\n      revert\n    tag_141:\n        /* \"contracts/AD.sol\":2878:2882  true */\n      0x01\n        /* \"contracts/AD.sol\":2840:2861  seenDeliveryVaaHashes */\n      0x0a\n        /* \"contracts/AD.sol\":2840:2875  seenDeliveryVaaHashes[deliveryHash] */\n      0x00\n        /* \"contracts/AD.sol\":2862:2874  deliveryHash */\n      dup4\n        /* \"contracts/AD.sol\":2840:2875  seenDeliveryVaaHashes[deliveryHash] */\n      dup2\n      mstore\n      0x20\n      add\n      swap1\n      dup2\n      mstore\n      0x20\n      add\n      0x00\n      keccak256\n      0x00\n        /* \"contracts/AD.sol\":2840:2882  seenDeliveryVaaHashes[deliveryHash] = true */\n      0x0100\n      exp\n      dup2\n      sload\n      dup2\n      0xff\n      mul\n      not\n      and\n      swap1\n      dup4\n      iszero\n      iszero\n      mul\n      or\n      swap1\n      sstore\n      pop\n        /* \"contracts/AD.sol\":2957:2974  bytes32 _username */\n      0x00\n        /* \"contracts/AD.sol\":2976:2989  bytes32 _name */\n      dup1\n        /* \"contracts/AD.sol\":2991:3005  address sender */\n      0x00\n        /* \"contracts/AD.sol\":3020:3027  payload */\n      dup8\n        /* \"contracts/AD.sol\":3009:3057  abi.decode(payload, (bytes32, bytes32, address)) */\n      dup1\n      0x20\n      add\n      swap1\n      mload\n      dup2\n      add\n      swap1\n      tag_144\n      swap2\n      swap1\n      tag_145\n      jump\t// in\n    tag_144:\n        /* \"contracts/AD.sol\":2956:3057  (bytes32 _username, bytes32 _name, address sender) = abi.decode(payload, (bytes32, bytes32, address)) */\n      swap3\n      pop\n      swap3\n      pop\n      swap3\n      pop\n        /* \"contracts/AD.sol\":3124:3125  0 */\n      0x00\n        /* \"contracts/AD.sol\":3075:3126  userNameDetail[_username].userAddress == address(0) */\n      0xffffffffffffffffffffffffffffffffffffffff\n      and\n        /* \"contracts/AD.sol\":3075:3089  userNameDetail */\n      0x07\n        /* \"contracts/AD.sol\":3075:3100  userNameDetail[_username] */\n      0x00\n        /* \"contracts/AD.sol\":3090:3099  _username */\n      dup6\n        /* \"contracts/AD.sol\":3075:3100  userNameDetail[_username] */\n      dup2\n      mstore\n      0x20\n      add\n      swap1\n      dup2\n      mstore\n      0x20\n      add\n      0x00\n      keccak256\n        /* \"contracts/AD.sol\":3075:3112  userNameDetail[_username].userAddress */\n      0x00\n      add\n      0x00\n      swap1\n      sload\n      swap1\n      0x0100\n      exp\n      swap1\n      div\n      0xffffffffffffffffffffffffffffffffffffffff\n      and\n        /* \"contracts/AD.sol\":3075:3126  userNameDetail[_username].userAddress == address(0) */\n      0xffffffffffffffffffffffffffffffffffffffff\n      and\n      eq\n        /* \"contracts/AD.sol\":3067:3157  require(userNameDetail[_username].userAddress == address(0),'Already registered username') */\n      tag_146\n      jumpi\n      mload(0x40)\n      0x08c379a000000000000000000000000000000000000000000000000000000000\n      dup2\n      mstore\n      0x04\n      add\n      tag_147\n      swap1\n      tag_114\n      jump\t// in\n    tag_147:\n      mload(0x40)\n      dup1\n      swap2\n      sub\n      swap1\n      revert\n    tag_146:\n        /* \"contracts/AD.sol\":3179:3188  msg.value */\n      callvalue\n        /* \"contracts/AD.sol\":3173:3177  fees */\n      sload(0x00)\n        /* \"contracts/AD.sol\":3173:3188  fees+ msg.value */\n      tag_148\n      swap2\n      swap1\n      tag_116\n      jump\t// in\n    tag_148:\n        /* \"contracts/AD.sol\":3167:3171  fees */\n      0x00\n        /* \"contracts/AD.sol\":3167:3188  fees= fees+ msg.value */\n      dup2\n      swap1\n      sstore\n      pop\n        /* \"contracts/AD.sol\":3225:3409  userData({... */\n      mload(0x40)\n      dup1\n      0x60\n      add\n      0x40\n      mstore\n      dup1\n        /* \"contracts/AD.sol\":3288:3294  sender */\n      dup3\n        /* \"contracts/AD.sol\":3225:3409  userData({... */\n      0xffffffffffffffffffffffffffffffffffffffff\n      and\n      dup2\n      mstore\n      0x20\n      add\n        /* \"contracts/AD.sol\":3346:3355  _username */\n      dup5\n        /* \"contracts/AD.sol\":3225:3409  userData({... */\n      dup2\n      mstore\n      0x20\n      add\n        /* \"contracts/AD.sol\":3402:3407  _name */\n      dup4\n        /* \"contracts/AD.sol\":3225:3409  userData({... */\n      dup2\n      mstore\n      pop\n        /* \"contracts/AD.sol\":3198:3212  userNameDetail */\n      0x07\n        /* \"contracts/AD.sol\":3198:3223  userNameDetail[_username] */\n      0x00\n        /* \"contracts/AD.sol\":3213:3222  _username */\n      dup6\n        /* \"contracts/AD.sol\":3198:3223  userNameDetail[_username] */\n      dup2\n      mstore\n      0x20\n      add\n      swap1\n      dup2\n      mstore\n      0x20\n      add\n      0x00\n      keccak256\n        /* \"contracts/AD.sol\":3198:3409  userNameDetail[_username]= userData({... */\n      0x00\n      dup3\n      add\n      mload\n      dup2\n      0x00\n      add\n      exp(0x0100, 0x00)\n      dup2\n      sload\n      dup2\n      0xffffffffffffffffffffffffffffffffffffffff\n      mul\n      not\n      and\n      swap1\n      dup4\n      0xffffffffffffffffffffffffffffffffffffffff\n      and\n      mul\n      or\n      swap1\n      sstore\n      pop\n      0x20\n      dup3\n      add\n      mload\n      dup2\n      0x01\n      add\n      sstore\n      0x40\n      dup3\n      add\n      mload\n      dup2\n      0x02\n      add\n      sstore\n      swap1\n      pop\n      pop\n        /* \"contracts/AD.sol\":3437:3446  _username */\n      dup3\n        /* \"contracts/AD.sol\":3419:3427  userName */\n      0x08\n        /* \"contracts/AD.sol\":3419:3435  userName[sender] */\n      0x00\n        /* \"contracts/AD.sol\":3428:3434  sender */\n      dup4\n        /* \"contracts/AD.sol\":3419:3435  userName[sender] */\n      0xffffffffffffffffffffffffffffffffffffffff\n      and\n      0xffffffffffffffffffffffffffffffffffffffff\n      and\n      dup2\n      mstore\n      0x20\n      add\n      swap1\n      dup2\n      mstore\n      0x20\n      add\n      0x00\n      keccak256\n        /* \"contracts/AD.sol\":3419:3446  userName[sender]= _username */\n      dup2\n      swap1\n      sstore\n      pop\n        /* \"contracts/AD.sol\":3480:3481  0 */\n      0x00\n        /* \"contracts/AD.sol\":3456:3467  userBalance */\n      0x09\n        /* \"contracts/AD.sol\":3456:3478  userBalance[_username] */\n      0x00\n        /* \"contracts/AD.sol\":3468:3477  _username */\n      dup6\n        /* \"contracts/AD.sol\":3456:3478  userBalance[_username] */\n      dup2\n      mstore\n      0x20\n      add\n      swap1\n      dup2\n      mstore\n      0x20\n      add\n      0x00\n      keccak256\n        /* \"contracts/AD.sol\":3456:3481  userBalance[_username]= 0 */\n      dup2\n      swap1\n      sstore\n      pop\n        /* \"contracts/AD.sol\":2622:3488  {... */\n      pop\n      pop\n      pop\n        /* \"contracts/AD.sol\":2289:3488  function receiveWormholeMessages(... */\n      pop\n      pop\n      pop\n      pop\n      pop\n      jump\t// out\n        /* \"contracts/AD.sol\":4449:4904  function withdrawMoney(uint256 _amount) public {... */\n    tag_60:\n        /* \"contracts/AD.sol\":4617:4631  withdrawalFees */\n      sload(0x05)\n        /* \"contracts/AD.sol\":4607:4614  _amount */\n      dup2\n        /* \"contracts/AD.sol\":4607:4631  _amount + withdrawalFees */\n      tag_150\n      swap2\n      swap1\n      tag_116\n      jump\t// in\n    tag_150:\n        /* \"contracts/AD.sol\":4571:4582  userBalance */\n      0x09\n        /* \"contracts/AD.sol\":4571:4604  userBalance[userName[msg.sender]] */\n      0x00\n        /* \"contracts/AD.sol\":4583:4591  userName */\n      0x08\n        /* \"contracts/AD.sol\":4583:4603  userName[msg.sender] */\n      0x00\n        /* \"contracts/AD.sol\":4592:4602  msg.sender */\n      caller\n        /* \"contracts/AD.sol\":4583:4603  userName[msg.sender] */\n      0xffffffffffffffffffffffffffffffffffffffff\n      and\n      0xffffffffffffffffffffffffffffffffffffffff\n      and\n      dup2\n      mstore\n      0x20\n      add\n      swap1\n      dup2\n      mstore\n      0x20\n      add\n      0x00\n      keccak256\n      sload\n        /* \"contracts/AD.sol\":4571:4604  userBalance[userName[msg.sender]] */\n      dup2\n      mstore\n      0x20\n      add\n      swap1\n      dup2\n      mstore\n      0x20\n      add\n      0x00\n      keccak256\n      sload\n        /* \"contracts/AD.sol\":4571:4631  userBalance[userName[msg.sender]] > _amount + withdrawalFees */\n      gt\n        /* \"contracts/AD.sol\":4563:4632  require(userBalance[userName[msg.sender]] > _amount + withdrawalFees) */\n      tag_151\n      jumpi\n      0x00\n      dup1\n      revert\n    tag_151:\n        /* \"contracts/AD.sol\":4719:4733  withdrawalFees */\n      sload(0x05)\n        /* \"contracts/AD.sol\":4711:4718  _amount */\n      dup2\n        /* \"contracts/AD.sol\":4677:4688  userBalance */\n      0x09\n        /* \"contracts/AD.sol\":4677:4710  userBalance[userName[msg.sender]] */\n      0x00\n        /* \"contracts/AD.sol\":4689:4697  userName */\n      0x08\n        /* \"contracts/AD.sol\":4689:4709  userName[msg.sender] */\n      0x00\n        /* \"contracts/AD.sol\":4698:4708  msg.sender */\n      caller\n        /* \"contracts/AD.sol\":4689:4709  userName[msg.sender] */\n      0xffffffffffffffffffffffffffffffffffffffff\n      and\n      0xffffffffffffffffffffffffffffffffffffffff\n      and\n      dup2\n      mstore\n      0x20\n      add\n      swap1\n      dup2\n      mstore\n      0x20\n      add\n      0x00\n      keccak256\n      sload\n        /* \"contracts/AD.sol\":4677:4710  userBalance[userName[msg.sender]] */\n      dup2\n      mstore\n      0x20\n      add\n      swap1\n      dup2\n      mstore\n      0x20\n      add\n      0x00\n      keccak256\n      sload\n        /* \"contracts/AD.sol\":4677:4718  userBalance[userName[msg.sender]]-_amount */\n      tag_152\n      swap2\n      swap1\n      tag_153\n      jump\t// in\n    tag_152:\n        /* \"contracts/AD.sol\":4677:4733  userBalance[userName[msg.sender]]-_amount-withdrawalFees */\n      tag_154\n      swap2\n      swap1\n      tag_153\n      jump\t// in\n    tag_154:\n        /* \"contracts/AD.sol\":4643:4654  userBalance */\n      0x09\n        /* \"contracts/AD.sol\":4643:4676  userBalance[userName[msg.sender]] */\n      0x00\n        /* \"contracts/AD.sol\":4655:4663  userName */\n      0x08\n        /* \"contracts/AD.sol\":4655:4675  userName[msg.sender] */\n      0x00\n        /* \"contracts/AD.sol\":4664:4674  msg.sender */\n      caller\n        /* \"contracts/AD.sol\":4655:4675  userName[msg.sender] */\n      0xffffffffffffffffffffffffffffffffffffffff\n      and\n      0xffffffffffffffffffffffffffffffffffffffff\n      and\n      dup2\n      mstore\n      0x20\n      add\n      swap1\n      dup2\n      mstore\n      0x20\n      add\n      0x00\n      keccak256\n      sload\n        /* \"contracts/AD.sol\":4643:4676  userBalance[userName[msg.sender]] */\n      dup2\n      mstore\n      0x20\n      add\n      swap1\n      dup2\n      mstore\n      0x20\n      add\n      0x00\n      keccak256\n        /* \"contracts/AD.sol\":4643:4733  userBalance[userName[msg.sender]]=userBalance[userName[msg.sender]]-_amount-withdrawalFees */\n      dup2\n      swap1\n      sstore\n      pop\n        /* \"contracts/AD.sol\":4749:4763  withdrawalFees */\n      sload(0x05)\n        /* \"contracts/AD.sol\":4743:4747  fees */\n      0x00\n      dup1\n        /* \"contracts/AD.sol\":4743:4763  fees+=withdrawalFees */\n      dup3\n      dup3\n      sload\n      tag_155\n      swap2\n      swap1\n      tag_116\n      jump\t// in\n    tag_155:\n      swap3\n      pop\n      pop\n      dup2\n      swap1\n      sstore\n      pop\n        /* \"contracts/AD.sol\":4774:4783  bool sent */\n      0x00\n        /* \"contracts/AD.sol\":4785:4802  bytes memory data */\n      dup1\n        /* \"contracts/AD.sol\":4806:4816  msg.sender */\n      caller\n        /* \"contracts/AD.sol\":4806:4821  msg.sender.call */\n      0xffffffffffffffffffffffffffffffffffffffff\n      and\n        /* \"contracts/AD.sol\":4829:4836  _amount */\n      dup4\n        /* \"contracts/AD.sol\":4806:4841  msg.sender.call{value: _amount}(\"\") */\n      mload(0x40)\n      tag_156\n      swap1\n      tag_129\n      jump\t// in\n    tag_156:\n      0x00\n      mload(0x40)\n      dup1\n      dup4\n      sub\n      dup2\n      dup6\n      dup8\n      gas\n      call\n      swap3\n      pop\n      pop\n      pop\n      returndatasize\n      dup1\n      0x00\n      dup2\n      eq\n      tag_159\n      jumpi\n      mload(0x40)\n      swap2\n      pop\n      and(add(returndatasize, 0x3f), not(0x1f))\n      dup3\n      add\n      0x40\n      mstore\n      returndatasize\n      dup3\n      mstore\n      returndatasize\n      0x00\n      0x20\n      dup5\n      add\n      returndatacopy\n      jump(tag_158)\n    tag_159:\n      0x60\n      swap2\n      pop\n    tag_158:\n      pop\n        /* \"contracts/AD.sol\":4773:4841  (bool sent, bytes memory data) = msg.sender.call{value: _amount}(\"\") */\n      swap2\n      pop\n      swap2\n      pop\n        /* \"contracts/AD.sol\":4868:4872  sent */\n      dup2\n        /* \"contracts/AD.sol\":4860:4897  require(sent, \"Failed to send Ether\") */\n      tag_160\n      jumpi\n      mload(0x40)\n      0x08c379a000000000000000000000000000000000000000000000000000000000\n      dup2\n      mstore\n      0x04\n      add\n      tag_161\n      swap1\n      tag_135\n      jump\t// in\n    tag_161:\n      mload(0x40)\n      dup1\n      swap2\n      sub\n      swap1\n      revert\n    tag_160:\n        /* \"contracts/AD.sol\":4496:4904  {... */\n      pop\n      pop\n        /* \"contracts/AD.sol\":4449:4904  function withdrawMoney(uint256 _amount) public {... */\n      pop\n      jump\t// out\n        /* \"contracts/AD.sol\":5924:6042  function setRegisterFees(uint256 _registerFees)   public isOwnerOrAdmin(){... */\n    tag_64:\n        /* \"contracts/AD.sol\":911:916  owner */\n      0x02\n      0x00\n      swap1\n      sload\n      swap1\n      0x0100\n      exp\n      swap1\n      div\n      0xffffffffffffffffffffffffffffffffffffffff\n      and\n        /* \"contracts/AD.sol\":897:916  msg.sender == owner */\n      0xffffffffffffffffffffffffffffffffffffffff\n      and\n        /* \"contracts/AD.sol\":897:907  msg.sender */\n      caller\n        /* \"contracts/AD.sol\":897:916  msg.sender == owner */\n      0xffffffffffffffffffffffffffffffffffffffff\n      and\n      eq\n        /* \"contracts/AD.sol\":897:938  msg.sender == owner||  msg.sender== admin */\n      dup1\n      tag_163\n      jumpi\n      pop\n        /* \"contracts/AD.sol\":933:938  admin */\n      0x03\n      0x00\n      swap1\n      sload\n      swap1\n      0x0100\n      exp\n      swap1\n      div\n      0xffffffffffffffffffffffffffffffffffffffff\n      and\n        /* \"contracts/AD.sol\":920:938  msg.sender== admin */\n      0xffffffffffffffffffffffffffffffffffffffff\n      and\n        /* \"contracts/AD.sol\":920:930  msg.sender */\n      caller\n        /* \"contracts/AD.sol\":920:938  msg.sender== admin */\n      0xffffffffffffffffffffffffffffffffffffffff\n      and\n      eq\n        /* \"contracts/AD.sol\":897:938  msg.sender == owner||  msg.sender== admin */\n    tag_163:\n        /* \"contracts/AD.sol\":889:963  require(msg.sender == owner||  msg.sender== admin , \"Caller is not owner\") */\n      tag_164\n      jumpi\n      mload(0x40)\n      0x08c379a000000000000000000000000000000000000000000000000000000000\n      dup2\n      mstore\n      0x04\n      add\n      tag_165\n      swap1\n      tag_121\n      jump\t// in\n    tag_165:\n      mload(0x40)\n      dup1\n      swap2\n      sub\n      swap1\n      revert\n    tag_164:\n        /* \"contracts/AD.sol\":6022:6035  _registerFees */\n      dup1\n        /* \"contracts/AD.sol\":6007:6019  registerFees */\n      0x06\n        /* \"contracts/AD.sol\":6007:6035  registerFees = _registerFees */\n      dup2\n      swap1\n      sstore\n      pop\n        /* \"contracts/AD.sol\":5924:6042  function setRegisterFees(uint256 _registerFees)   public isOwnerOrAdmin(){... */\n      pop\n      jump\t// out\n        /* \"contracts/AD.sol\":1507:1586  function getAdmin() public view  returns(address) {... */\n    tag_67:\n        /* \"contracts/AD.sol\":1548:1555  address */\n      0x00\n        /* \"contracts/AD.sol\":1574:1579  admin */\n      0x03\n      0x00\n      swap1\n      sload\n      swap1\n      0x0100\n      exp\n      swap1\n      div\n      0xffffffffffffffffffffffffffffffffffffffff\n      and\n        /* \"contracts/AD.sol\":1567:1579  return admin */\n      swap1\n      pop\n        /* \"contracts/AD.sol\":1507:1586  function getAdmin() public view  returns(address) {... */\n      swap1\n      jump\t// out\n        /* \"contracts/AD.sol\":1402:1501  function changeAdmin(address _newAdmin) external isOwnerOrAdmin{... */\n    tag_73:\n        /* \"contracts/AD.sol\":911:916  owner */\n      0x02\n      0x00\n      swap1\n      sload\n      swap1\n      0x0100\n      exp\n      swap1\n      div\n      0xffffffffffffffffffffffffffffffffffffffff\n      and\n        /* \"contracts/AD.sol\":897:916  msg.sender == owner */\n      0xffffffffffffffffffffffffffffffffffffffff\n      and\n        /* \"contracts/AD.sol\":897:907  msg.sender */\n      caller\n        /* \"contracts/AD.sol\":897:916  msg.sender == owner */\n      0xffffffffffffffffffffffffffffffffffffffff\n      and\n      eq\n        /* \"contracts/AD.sol\":897:938  msg.sender == owner||  msg.sender== admin */\n      dup1\n      tag_169\n      jumpi\n      pop\n        /* \"contracts/AD.sol\":933:938  admin */\n      0x03\n      0x00\n      swap1\n      sload\n      swap1\n      0x0100\n      exp\n      swap1\n      div\n      0xffffffffffffffffffffffffffffffffffffffff\n      and\n        /* \"contracts/AD.sol\":920:938  msg.sender== admin */\n      0xffffffffffffffffffffffffffffffffffffffff\n      and\n        /* \"contracts/AD.sol\":920:930  msg.sender */\n      caller\n        /* \"contracts/AD.sol\":920:938  msg.sender== admin */\n      0xffffffffffffffffffffffffffffffffffffffff\n      and\n      eq\n        /* \"contracts/AD.sol\":897:938  msg.sender == owner||  msg.sender== admin */\n    tag_169:\n        /* \"contracts/AD.sol\":889:963  require(msg.sender == owner||  msg.sender== admin , \"Caller is not owner\") */\n      tag_170\n      jumpi\n      mload(0x40)\n      0x08c379a000000000000000000000000000000000000000000000000000000000\n      dup2\n      mstore\n      0x04\n      add\n      tag_171\n      swap1\n      tag_121\n      jump\t// in\n    tag_171:\n      mload(0x40)\n      dup1\n      swap2\n      sub\n      swap1\n      revert\n    tag_170:\n        /* \"contracts/AD.sol\":1482:1491  _newAdmin */\n      dup1\n        /* \"contracts/AD.sol\":1475:1480  admin */\n      0x03\n      0x00\n        /* \"contracts/AD.sol\":1475:1491  admin= _newAdmin */\n      0x0100\n      exp\n      dup2\n      sload\n      dup2\n      0xffffffffffffffffffffffffffffffffffffffff\n      mul\n      not\n      and\n      swap1\n      dup4\n      0xffffffffffffffffffffffffffffffffffffffff\n      and\n      mul\n      or\n      swap1\n      sstore\n      pop\n        /* \"contracts/AD.sol\":1402:1501  function changeAdmin(address _newAdmin) external isOwnerOrAdmin{... */\n      pop\n      jump\t// out\n        /* \"contracts/AD.sol\":6048:6172  function setwithdrawalFees(uint256 _withdrawalFees)   public isOwnerOrAdmin(){... */\n    tag_77:\n        /* \"contracts/AD.sol\":911:916  owner */\n      0x02\n      0x00\n      swap1\n      sload\n      swap1\n      0x0100\n      exp\n      swap1\n      div\n      0xffffffffffffffffffffffffffffffffffffffff\n      and\n        /* \"contracts/AD.sol\":897:916  msg.sender == owner */\n      0xffffffffffffffffffffffffffffffffffffffff\n      and\n        /* \"contracts/AD.sol\":897:907  msg.sender */\n      caller\n        /* \"contracts/AD.sol\":897:916  msg.sender == owner */\n      0xffffffffffffffffffffffffffffffffffffffff\n      and\n      eq\n        /* \"contracts/AD.sol\":897:938  msg.sender == owner||  msg.sender== admin */\n      dup1\n      tag_174\n      jumpi\n      pop\n        /* \"contracts/AD.sol\":933:938  admin */\n      0x03\n      0x00\n      swap1\n      sload\n      swap1\n      0x0100\n      exp\n      swap1\n      div\n      0xffffffffffffffffffffffffffffffffffffffff\n      and\n        /* \"contracts/AD.sol\":920:938  msg.sender== admin */\n      0xffffffffffffffffffffffffffffffffffffffff\n      and\n        /* \"contracts/AD.sol\":920:930  msg.sender */\n      caller\n        /* \"contracts/AD.sol\":920:938  msg.sender== admin */\n      0xffffffffffffffffffffffffffffffffffffffff\n      and\n      eq\n        /* \"contracts/AD.sol\":897:938  msg.sender == owner||  msg.sender== admin */\n    tag_174:\n        /* \"contracts/AD.sol\":889:963  require(msg.sender == owner||  msg.sender== admin , \"Caller is not owner\") */\n      tag_175\n      jumpi\n      mload(0x40)\n      0x08c379a000000000000000000000000000000000000000000000000000000000\n      dup2\n      mstore\n      0x04\n      add\n      tag_176\n      swap1\n      tag_121\n      jump\t// in\n    tag_176:\n      mload(0x40)\n      dup1\n      swap2\n      sub\n      swap1\n      revert\n    tag_175:\n        /* \"contracts/AD.sol\":6150:6165  _withdrawalFees */\n      dup1\n        /* \"contracts/AD.sol\":6135:6149  withdrawalFees */\n      0x05\n        /* \"contracts/AD.sol\":6135:6165  withdrawalFees=_withdrawalFees */\n      dup2\n      swap1\n      sstore\n      pop\n        /* \"contracts/AD.sol\":6048:6172  function setwithdrawalFees(uint256 _withdrawalFees)   public isOwnerOrAdmin(){... */\n      pop\n      jump\t// out\n        /* \"contracts/AD.sol\":3956:4438  function sendMoney(bytes32 _username, uint256 _amount) public payable isRegistered{... */\n    tag_81:\n        /* \"contracts/AD.sol\":1110:1111  0 */\n      0x00\n        /* \"contracts/AD.sol\":1087:1111  userName[msg.sender] > 0 */\n      dup1\n      shl\n        /* \"contracts/AD.sol\":1087:1095  userName */\n      0x08\n        /* \"contracts/AD.sol\":1087:1107  userName[msg.sender] */\n      0x00\n        /* \"contracts/AD.sol\":1096:1106  msg.sender */\n      caller\n        /* \"contracts/AD.sol\":1087:1107  userName[msg.sender] */\n      0xffffffffffffffffffffffffffffffffffffffff\n      and\n      0xffffffffffffffffffffffffffffffffffffffff\n      and\n      dup2\n      mstore\n      0x20\n      add\n      swap1\n      dup2\n      mstore\n      0x20\n      add\n      0x00\n      keccak256\n      sload\n        /* \"contracts/AD.sol\":1087:1111  userName[msg.sender] > 0 */\n      gt\n        /* \"contracts/AD.sol\":1079:1153  require(userName[msg.sender] > 0 , \"Please register before sending money\") */\n      tag_179\n      jumpi\n      mload(0x40)\n      0x08c379a000000000000000000000000000000000000000000000000000000000\n      dup2\n      mstore\n      0x04\n      add\n      tag_180\n      swap1\n      tag_181\n      jump\t// in\n    tag_180:\n      mload(0x40)\n      dup1\n      swap2\n      sub\n      swap1\n      revert\n    tag_179:\n        /* \"contracts/AD.sol\":4136:4143  _amount */\n      dup1\n        /* \"contracts/AD.sol\":4125:4134  msg.value */\n      callvalue\n        /* \"contracts/AD.sol\":4125:4143  msg.value>=_amount */\n      lt\n      iszero\n        /* \"contracts/AD.sol\":4117:4177  require(msg.value>=_amount,'Amount sent less than required') */\n      tag_183\n      jumpi\n      mload(0x40)\n      0x08c379a000000000000000000000000000000000000000000000000000000000\n      dup2\n      mstore\n      0x04\n      add\n      tag_184\n      swap1\n      tag_185\n      jump\t// in\n    tag_184:\n      mload(0x40)\n      dup1\n      swap2\n      sub\n      swap1\n      revert\n    tag_183:\n        /* \"contracts/AD.sol\":4244:4245  0 */\n      0x00\n        /* \"contracts/AD.sol\":4195:4246  userNameDetail[_username].userAddress != address(0) */\n      0xffffffffffffffffffffffffffffffffffffffff\n      and\n        /* \"contracts/AD.sol\":4195:4209  userNameDetail */\n      0x07\n        /* \"contracts/AD.sol\":4195:4220  userNameDetail[_username] */\n      0x00\n        /* \"contracts/AD.sol\":4210:4219  _username */\n      dup5\n        /* \"contracts/AD.sol\":4195:4220  userNameDetail[_username] */\n      dup2\n      mstore\n      0x20\n      add\n      swap1\n      dup2\n      mstore\n      0x20\n      add\n      0x00\n      keccak256\n        /* \"contracts/AD.sol\":4195:4232  userNameDetail[_username].userAddress */\n      0x00\n      add\n      0x00\n      swap1\n      sload\n      swap1\n      0x0100\n      exp\n      swap1\n      div\n      0xffffffffffffffffffffffffffffffffffffffff\n      and\n        /* \"contracts/AD.sol\":4195:4246  userNameDetail[_username].userAddress != address(0) */\n      0xffffffffffffffffffffffffffffffffffffffff\n      and\n      sub\n        /* \"contracts/AD.sol\":4187:4267  require(userNameDetail[_username].userAddress != address(0), 'invalid username') */\n      tag_186\n      jumpi\n      mload(0x40)\n      0x08c379a000000000000000000000000000000000000000000000000000000000\n      dup2\n      mstore\n      0x04\n      add\n      tag_187\n      swap1\n      tag_188\n      jump\t// in\n    tag_187:\n      mload(0x40)\n      dup1\n      swap2\n      sub\n      swap1\n      revert\n    tag_186:\n        /* \"contracts/AD.sol\":4301:4308  _amount */\n      dup1\n        /* \"contracts/AD.sol\":4277:4288  userBalance */\n      0x09\n        /* \"contracts/AD.sol\":4277:4299  userBalance[_username] */\n      0x00\n        /* \"contracts/AD.sol\":4289:4298  _username */\n      dup5\n        /* \"contracts/AD.sol\":4277:4299  userBalance[_username] */\n      dup2\n      mstore\n      0x20\n      add\n      swap1\n      dup2\n      mstore\n      0x20\n      add\n      0x00\n      keccak256\n      0x00\n        /* \"contracts/AD.sol\":4277:4308  userBalance[_username]+=_amount */\n      dup3\n      dup3\n      sload\n      tag_189\n      swap2\n      swap1\n      tag_116\n      jump\t// in\n    tag_189:\n      swap3\n      pop\n      pop\n      dup2\n      swap1\n      sstore\n      pop\n        /* \"contracts/AD.sol\":4318:4340  bytes32 senderUsername */\n      0x00\n        /* \"contracts/AD.sol\":4342:4350  userName */\n      0x08\n        /* \"contracts/AD.sol\":4342:4362  userName[msg.sender] */\n      0x00\n        /* \"contracts/AD.sol\":4351:4361  msg.sender */\n      caller\n        /* \"contracts/AD.sol\":4342:4362  userName[msg.sender] */\n      0xffffffffffffffffffffffffffffffffffffffff\n      and\n      0xffffffffffffffffffffffffffffffffffffffff\n      and\n      dup2\n      mstore\n      0x20\n      add\n      swap1\n      dup2\n      mstore\n      0x20\n      add\n      0x00\n      keccak256\n      sload\n        /* \"contracts/AD.sol\":4318:4362  bytes32 senderUsername= userName[msg.sender] */\n      swap1\n      pop\n        /* \"contracts/AD.sol\":4377:4428  transactionSent(senderUsername, _username, _amount) */\n      0xc523bcf6216203e46e799244596f69646e16c9a6108c4796bfc941f058accefc\n        /* \"contracts/AD.sol\":4393:4407  senderUsername */\n      dup2\n        /* \"contracts/AD.sol\":4409:4418  _username */\n      dup5\n        /* \"contracts/AD.sol\":4420:4427  _amount */\n      dup5\n        /* \"contracts/AD.sol\":4377:4428  transactionSent(senderUsername, _username, _amount) */\n      mload(0x40)\n      tag_190\n      swap4\n      swap3\n      swap2\n      swap1\n      tag_191\n      jump\t// in\n    tag_190:\n      mload(0x40)\n      dup1\n      swap2\n      sub\n      swap1\n      log1\n        /* \"contracts/AD.sol\":4038:4438  {... */\n      pop\n        /* \"contracts/AD.sol\":3956:4438  function sendMoney(bytes32 _username, uint256 _amount) public payable isRegistered{... */\n      pop\n      pop\n      jump\t// out\n        /* \"contracts/AD.sol\":5108:5233  function getUserDetails(bytes32 _username) public view returns(bytes32){... */\n    tag_85:\n        /* \"contracts/AD.sol\":5171:5178  bytes32 */\n      0x00\n        /* \"contracts/AD.sol\":5196:5210  userNameDetail */\n      0x07\n        /* \"contracts/AD.sol\":5196:5221  userNameDetail[_username] */\n      0x00\n        /* \"contracts/AD.sol\":5211:5220  _username */\n      dup4\n        /* \"contracts/AD.sol\":5196:5221  userNameDetail[_username] */\n      dup2\n      mstore\n      0x20\n      add\n      swap1\n      dup2\n      mstore\n      0x20\n      add\n      0x00\n      keccak256\n        /* \"contracts/AD.sol\":5196:5226  userNameDetail[_username].name */\n      0x02\n      add\n      sload\n        /* \"contracts/AD.sol\":5189:5226  return userNameDetail[_username].name */\n      swap1\n      pop\n        /* \"contracts/AD.sol\":5108:5233  function getUserDetails(bytes32 _username) public view returns(bytes32){... */\n      swap2\n      swap1\n      pop\n      jump\t// out\n        /* \"contracts/AD.sol\":3494:3950  function handleVoyagerMessage(... */\n    tag_92:\n        /* \"contracts/AD.sol\":3629:3643  address sender */\n      0x00\n        /* \"contracts/AD.sol\":3653:3669  bytes32 receiver */\n      dup1\n        /* \"contracts/AD.sol\":3679:3694  uint256 _amount */\n      0x00\n        /* \"contracts/AD.sol\":3745:3752  message */\n      dup4\n        /* \"contracts/AD.sol\":3734:3782  abi.decode(message, (address, bytes32, uint256)) */\n      dup1\n      0x20\n      add\n      swap1\n      mload\n      dup2\n      add\n      swap1\n      tag_194\n      swap2\n      swap1\n      tag_195\n      jump\t// in\n    tag_194:\n        /* \"contracts/AD.sol\":3704:3782  (sender, receiver, _amount) = abi.decode(message, (address, bytes32, uint256)) */\n      dup1\n      swap4\n      pop\n      dup2\n      swap5\n      pop\n      dup3\n      swap6\n      pop\n      pop\n      pop\n      pop\n        /* \"contracts/AD.sol\":3815:3821  amount */\n      dup5\n        /* \"contracts/AD.sol\":3792:3803  userBalance */\n      0x09\n        /* \"contracts/AD.sol\":3792:3813  userBalance[receiver] */\n      0x00\n        /* \"contracts/AD.sol\":3804:3812  receiver */\n      dup5\n        /* \"contracts/AD.sol\":3792:3813  userBalance[receiver] */\n      dup2\n      mstore\n      0x20\n      add\n      swap1\n      dup2\n      mstore\n      0x20\n      add\n      0x00\n      keccak256\n      0x00\n        /* \"contracts/AD.sol\":3792:3821  userBalance[receiver]+=amount */\n      dup3\n      dup3\n      sload\n      tag_196\n      swap2\n      swap1\n      tag_116\n      jump\t// in\n    tag_196:\n      swap3\n      pop\n      pop\n      dup2\n      swap1\n      sstore\n      pop\n        /* \"contracts/AD.sol\":3831:3853  bytes32 senderUsername */\n      0x00\n        /* \"contracts/AD.sol\":3855:3863  userName */\n      0x08\n        /* \"contracts/AD.sol\":3855:3871  userName[sender] */\n      0x00\n        /* \"contracts/AD.sol\":3864:3870  sender */\n      dup6\n        /* \"contracts/AD.sol\":3855:3871  userName[sender] */\n      0xffffffffffffffffffffffffffffffffffffffff\n      and\n      0xffffffffffffffffffffffffffffffffffffffff\n      and\n      dup2\n      mstore\n      0x20\n      add\n      swap1\n      dup2\n      mstore\n      0x20\n      add\n      0x00\n      keccak256\n      sload\n        /* \"contracts/AD.sol\":3831:3871  bytes32 senderUsername= userName[sender] */\n      swap1\n      pop\n        /* \"contracts/AD.sol\":3886:3935  transactionSent(senderUsername, receiver, amount) */\n      0xc523bcf6216203e46e799244596f69646e16c9a6108c4796bfc941f058accefc\n        /* \"contracts/AD.sol\":3902:3916  senderUsername */\n      dup2\n        /* \"contracts/AD.sol\":3918:3926  receiver */\n      dup5\n        /* \"contracts/AD.sol\":3928:3934  amount */\n      dup9\n        /* \"contracts/AD.sol\":3886:3935  transactionSent(senderUsername, receiver, amount) */\n      mload(0x40)\n      tag_197\n      swap4\n      swap3\n      swap2\n      swap1\n      tag_191\n      jump\t// in\n    tag_197:\n      mload(0x40)\n      dup1\n      swap2\n      sub\n      swap1\n      log1\n        /* \"contracts/AD.sol\":3619:3950  {... */\n      pop\n      pop\n      pop\n      pop\n        /* \"contracts/AD.sol\":3494:3950  function handleVoyagerMessage(... */\n      pop\n      pop\n      pop\n      jump\t// out\n        /* \"contracts/AD.sol\":5598:5706  function getUserName(address _sender) public view returns( bytes32){... */\n    tag_96:\n        /* \"contracts/AD.sol\":5657:5664  bytes32 */\n      0x00\n        /* \"contracts/AD.sol\":5682:5690  userName */\n      0x08\n        /* \"contracts/AD.sol\":5682:5699  userName[_sender] */\n      0x00\n        /* \"contracts/AD.sol\":5691:5698  _sender */\n      dup4\n        /* \"contracts/AD.sol\":5682:5699  userName[_sender] */\n      0xffffffffffffffffffffffffffffffffffffffff\n      and\n      0xffffffffffffffffffffffffffffffffffffffff\n      and\n      dup2\n      mstore\n      0x20\n      add\n      swap1\n      dup2\n      mstore\n      0x20\n      add\n      0x00\n      keccak256\n      sload\n        /* \"contracts/AD.sol\":5675:5699  return userName[_sender] */\n      swap1\n      pop\n        /* \"contracts/AD.sol\":5598:5706  function getUserName(address _sender) public view returns( bytes32){... */\n      swap2\n      swap1\n      pop\n      jump\t// out\n        /* \"contracts/AD.sol\":5822:5914  function getRegisterFees() public view returns( uint256){... */\n    tag_100:\n        /* \"contracts/AD.sol\":5870:5877  uint256 */\n      0x00\n        /* \"contracts/AD.sol\":5895:5907  registerFees */\n      sload(0x06)\n        /* \"contracts/AD.sol\":5888:5907  return registerFees */\n      swap1\n      pop\n        /* \"contracts/AD.sol\":5822:5914  function getRegisterFees() public view returns( uint256){... */\n      swap1\n      jump\t// out\n        /* \"contracts/AD.sol\":5378:5493  function getMyBalance(bytes32 _userName) public view returns(uint256){... */\n    tag_105:\n        /* \"contracts/AD.sol\":5439:5446  uint256 */\n      0x00\n        /* \"contracts/AD.sol\":5464:5475  userBalance */\n      0x09\n        /* \"contracts/AD.sol\":5464:5486  userBalance[_userName] */\n      0x00\n        /* \"contracts/AD.sol\":5476:5485  _userName */\n      dup4\n        /* \"contracts/AD.sol\":5464:5486  userBalance[_userName] */\n      dup2\n      mstore\n      0x20\n      add\n      swap1\n      dup2\n      mstore\n      0x20\n      add\n      0x00\n      keccak256\n      sload\n        /* \"contracts/AD.sol\":5457:5486  return userBalance[_userName] */\n      swap1\n      pop\n        /* \"contracts/AD.sol\":5378:5493  function getMyBalance(bytes32 _userName) public view returns(uint256){... */\n      swap2\n      swap1\n      pop\n      jump\t// out\n        /* \"#utility.yul\":7:84   */\n    tag_201:\n        /* \"#utility.yul\":44:51   */\n      0x00\n        /* \"#utility.yul\":73:78   */\n      dup2\n        /* \"#utility.yul\":62:78   */\n      swap1\n      pop\n        /* \"#utility.yul\":7:84   */\n      swap2\n      swap1\n      pop\n      jump\t// out\n        /* \"#utility.yul\":90:208   */\n    tag_202:\n        /* \"#utility.yul\":177:201   */\n      tag_267\n        /* \"#utility.yul\":195:200   */\n      dup2\n        /* \"#utility.yul\":177:201   */\n      tag_201\n      jump\t// in\n    tag_267:\n        /* \"#utility.yul\":172:175   */\n      dup3\n        /* \"#utility.yul\":165:202   */\n      mstore\n        /* \"#utility.yul\":90:208   */\n      pop\n      pop\n      jump\t// out\n        /* \"#utility.yul\":214:436   */\n    tag_27:\n        /* \"#utility.yul\":307:311   */\n      0x00\n        /* \"#utility.yul\":345:347   */\n      0x20\n        /* \"#utility.yul\":334:343   */\n      dup3\n        /* \"#utility.yul\":330:348   */\n      add\n        /* \"#utility.yul\":322:348   */\n      swap1\n      pop\n        /* \"#utility.yul\":358:429   */\n      tag_269\n        /* \"#utility.yul\":426:427   */\n      0x00\n        /* \"#utility.yul\":415:424   */\n      dup4\n        /* \"#utility.yul\":411:428   */\n      add\n        /* \"#utility.yul\":402:408   */\n      dup5\n        /* \"#utility.yul\":358:429   */\n      tag_202\n      jump\t// in\n    tag_269:\n        /* \"#utility.yul\":214:436   */\n      swap3\n      swap2\n      pop\n      pop\n      jump\t// out\n        /* \"#utility.yul\":442:517   */\n    tag_203:\n        /* \"#utility.yul\":475:481   */\n      0x00\n        /* \"#utility.yul\":508:510   */\n      0x40\n        /* \"#utility.yul\":502:511   */\n      mload\n        /* \"#utility.yul\":492:511   */\n      swap1\n      pop\n        /* \"#utility.yul\":442:517   */\n      swap1\n      jump\t// out\n        /* \"#utility.yul\":523:640   */\n    tag_204:\n        /* \"#utility.yul\":632:633   */\n      0x00\n        /* \"#utility.yul\":629:630   */\n      dup1\n        /* \"#utility.yul\":622:634   */\n      revert\n        /* \"#utility.yul\":646:763   */\n    tag_205:\n        /* \"#utility.yul\":755:756   */\n      0x00\n        /* \"#utility.yul\":752:753   */\n      dup1\n        /* \"#utility.yul\":745:757   */\n      revert\n        /* \"#utility.yul\":769:846   */\n    tag_206:\n        /* \"#utility.yul\":806:813   */\n      0x00\n        /* \"#utility.yul\":835:840   */\n      dup2\n        /* \"#utility.yul\":824:840   */\n      swap1\n      pop\n        /* \"#utility.yul\":769:846   */\n      swap2\n      swap1\n      pop\n      jump\t// out\n        /* \"#utility.yul\":852:974   */\n    tag_207:\n        /* \"#utility.yul\":925:949   */\n      tag_275\n        /* \"#utility.yul\":943:948   */\n      dup2\n        /* \"#utility.yul\":925:949   */\n      tag_206\n      jump\t// in\n    tag_275:\n        /* \"#utility.yul\":918:923   */\n      dup2\n        /* \"#utility.yul\":915:950   */\n      eq\n        /* \"#utility.yul\":905:968   */\n      tag_276\n      jumpi\n        /* \"#utility.yul\":964:965   */\n      0x00\n        /* \"#utility.yul\":961:962   */\n      dup1\n        /* \"#utility.yul\":954:966   */\n      revert\n        /* \"#utility.yul\":905:968   */\n    tag_276:\n        /* \"#utility.yul\":852:974   */\n      pop\n      jump\t// out\n        /* \"#utility.yul\":980:1119   */\n    tag_208:\n        /* \"#utility.yul\":1026:1031   */\n      0x00\n        /* \"#utility.yul\":1064:1070   */\n      dup2\n        /* \"#utility.yul\":1051:1071   */\n      calldataload\n        /* \"#utility.yul\":1042:1071   */\n      swap1\n      pop\n        /* \"#utility.yul\":1080:1113   */\n      tag_278\n        /* \"#utility.yul\":1107:1112   */\n      dup2\n        /* \"#utility.yul\":1080:1113   */\n      tag_207\n      jump\t// in\n    tag_278:\n        /* \"#utility.yul\":980:1119   */\n      swap3\n      swap2\n      pop\n      pop\n      jump\t// out\n        /* \"#utility.yul\":1125:1454   */\n    tag_31:\n        /* \"#utility.yul\":1184:1190   */\n      0x00\n        /* \"#utility.yul\":1233:1235   */\n      0x20\n        /* \"#utility.yul\":1221:1230   */\n      dup3\n        /* \"#utility.yul\":1212:1219   */\n      dup5\n        /* \"#utility.yul\":1208:1231   */\n      sub\n        /* \"#utility.yul\":1204:1236   */\n      slt\n        /* \"#utility.yul\":1201:1320   */\n      iszero\n      tag_280\n      jumpi\n        /* \"#utility.yul\":1239:1318   */\n      tag_281\n      tag_204\n      jump\t// in\n    tag_281:\n        /* \"#utility.yul\":1201:1320   */\n    tag_280:\n        /* \"#utility.yul\":1359:1360   */\n      0x00\n        /* \"#utility.yul\":1384:1437   */\n      tag_282\n        /* \"#utility.yul\":1429:1436   */\n      dup5\n        /* \"#utility.yul\":1420:1426   */\n      dup3\n        /* \"#utility.yul\":1409:1418   */\n      dup6\n        /* \"#utility.yul\":1405:1427   */\n      add\n        /* \"#utility.yul\":1384:1437   */\n      tag_208\n      jump\t// in\n    tag_282:\n        /* \"#utility.yul\":1374:1437   */\n      swap2\n      pop\n        /* \"#utility.yul\":1330:1447   */\n      pop\n        /* \"#utility.yul\":1125:1454   */\n      swap3\n      swap2\n      pop\n      pop\n      jump\t// out\n        /* \"#utility.yul\":1460:1550   */\n    tag_209:\n        /* \"#utility.yul\":1494:1501   */\n      0x00\n        /* \"#utility.yul\":1537:1542   */\n      dup2\n        /* \"#utility.yul\":1530:1543   */\n      iszero\n        /* \"#utility.yul\":1523:1544   */\n      iszero\n        /* \"#utility.yul\":1512:1544   */\n      swap1\n      pop\n        /* \"#utility.yul\":1460:1550   */\n      swap2\n      swap1\n      pop\n      jump\t// out\n        /* \"#utility.yul\":1556:1665   */\n    tag_210:\n        /* \"#utility.yul\":1637:1658   */\n      tag_285\n        /* \"#utility.yul\":1652:1657   */\n      dup2\n        /* \"#utility.yul\":1637:1658   */\n      tag_209\n      jump\t// in\n    tag_285:\n        /* \"#utility.yul\":1632:1635   */\n      dup3\n        /* \"#utility.yul\":1625:1659   */\n      mstore\n        /* \"#utility.yul\":1556:1665   */\n      pop\n      pop\n      jump\t// out\n        /* \"#utility.yul\":1671:1881   */\n    tag_34:\n        /* \"#utility.yul\":1758:1762   */\n      0x00\n        /* \"#utility.yul\":1796:1798   */\n      0x20\n        /* \"#utility.yul\":1785:1794   */\n      dup3\n        /* \"#utility.yul\":1781:1799   */\n      add\n        /* \"#utility.yul\":1773:1799   */\n      swap1\n      pop\n        /* \"#utility.yul\":1809:1874   */\n      tag_287\n        /* \"#utility.yul\":1871:1872   */\n      0x00\n        /* \"#utility.yul\":1860:1869   */\n      dup4\n        /* \"#utility.yul\":1856:1873   */\n      add\n        /* \"#utility.yul\":1847:1853   */\n      dup5\n        /* \"#utility.yul\":1809:1874   */\n      tag_210\n      jump\t// in\n    tag_287:\n        /* \"#utility.yul\":1671:1881   */\n      swap3\n      swap2\n      pop\n      pop\n      jump\t// out\n        /* \"#utility.yul\":1887:2361   */\n    tag_37:\n        /* \"#utility.yul\":1955:1961   */\n      0x00\n        /* \"#utility.yul\":1963:1969   */\n      dup1\n        /* \"#utility.yul\":2012:2014   */\n      0x40\n        /* \"#utility.yul\":2000:2009   */\n      dup4\n        /* \"#utility.yul\":1991:1998   */\n      dup6\n        /* \"#utility.yul\":1987:2010   */\n      sub\n        /* \"#utility.yul\":1983:2015   */\n      slt\n        /* \"#utility.yul\":1980:2099   */\n      iszero\n      tag_289\n      jumpi\n        /* \"#utility.yul\":2018:2097   */\n      tag_290\n      tag_204\n      jump\t// in\n    tag_290:\n        /* \"#utility.yul\":1980:2099   */\n    tag_289:\n        /* \"#utility.yul\":2138:2139   */\n      0x00\n        /* \"#utility.yul\":2163:2216   */\n      tag_291\n        /* \"#utility.yul\":2208:2215   */\n      dup6\n        /* \"#utility.yul\":2199:2205   */\n      dup3\n        /* \"#utility.yul\":2188:2197   */\n      dup7\n        /* \"#utility.yul\":2184:2206   */\n      add\n        /* \"#utility.yul\":2163:2216   */\n      tag_208\n      jump\t// in\n    tag_291:\n        /* \"#utility.yul\":2153:2216   */\n      swap3\n      pop\n        /* \"#utility.yul\":2109:2226   */\n      pop\n        /* \"#utility.yul\":2265:2267   */\n      0x20\n        /* \"#utility.yul\":2291:2344   */\n      tag_292\n        /* \"#utility.yul\":2336:2343   */\n      dup6\n        /* \"#utility.yul\":2327:2333   */\n      dup3\n        /* \"#utility.yul\":2316:2325   */\n      dup7\n        /* \"#utility.yul\":2312:2334   */\n      add\n        /* \"#utility.yul\":2291:2344   */\n      tag_208\n      jump\t// in\n    tag_292:\n        /* \"#utility.yul\":2281:2344   */\n      swap2\n      pop\n        /* \"#utility.yul\":2236:2354   */\n      pop\n        /* \"#utility.yul\":1887:2361   */\n      swap3\n      pop\n      swap3\n      swap1\n      pop\n      jump\t// out\n        /* \"#utility.yul\":2367:2493   */\n    tag_211:\n        /* \"#utility.yul\":2404:2411   */\n      0x00\n        /* \"#utility.yul\":2444:2486   */\n      0xffffffffffffffffffffffffffffffffffffffff\n        /* \"#utility.yul\":2437:2442   */\n      dup3\n        /* \"#utility.yul\":2433:2487   */\n      and\n        /* \"#utility.yul\":2422:2487   */\n      swap1\n      pop\n        /* \"#utility.yul\":2367:2493   */\n      swap2\n      swap1\n      pop\n      jump\t// out\n        /* \"#utility.yul\":2499:2595   */\n    tag_212:\n        /* \"#utility.yul\":2536:2543   */\n      0x00\n        /* \"#utility.yul\":2565:2589   */\n      tag_295\n        /* \"#utility.yul\":2583:2588   */\n      dup3\n        /* \"#utility.yul\":2565:2589   */\n      tag_211\n      jump\t// in\n    tag_295:\n        /* \"#utility.yul\":2554:2589   */\n      swap1\n      pop\n        /* \"#utility.yul\":2499:2595   */\n      swap2\n      swap1\n      pop\n      jump\t// out\n        /* \"#utility.yul\":2601:2719   */\n    tag_213:\n        /* \"#utility.yul\":2688:2712   */\n      tag_297\n        /* \"#utility.yul\":2706:2711   */\n      dup2\n        /* \"#utility.yul\":2688:2712   */\n      tag_212\n      jump\t// in\n    tag_297:\n        /* \"#utility.yul\":2683:2686   */\n      dup3\n        /* \"#utility.yul\":2676:2713   */\n      mstore\n        /* \"#utility.yul\":2601:2719   */\n      pop\n      pop\n      jump\t// out\n        /* \"#utility.yul\":2725:2947   */\n    tag_51:\n        /* \"#utility.yul\":2818:2822   */\n      0x00\n        /* \"#utility.yul\":2856:2858   */\n      0x20\n        /* \"#utility.yul\":2845:2854   */\n      dup3\n        /* \"#utility.yul\":2841:2859   */\n      add\n        /* \"#utility.yul\":2833:2859   */\n      swap1\n      pop\n        /* \"#utility.yul\":2869:2940   */\n      tag_299\n        /* \"#utility.yul\":2937:2938   */\n      0x00\n        /* \"#utility.yul\":2926:2935   */\n      dup4\n        /* \"#utility.yul\":2922:2939   */\n      add\n        /* \"#utility.yul\":2913:2919   */\n      dup5\n        /* \"#utility.yul\":2869:2940   */\n      tag_213\n      jump\t// in\n    tag_299:\n        /* \"#utility.yul\":2725:2947   */\n      swap3\n      swap2\n      pop\n      pop\n      jump\t// out\n        /* \"#utility.yul\":2953:3070   */\n    tag_214:\n        /* \"#utility.yul\":3062:3063   */\n      0x00\n        /* \"#utility.yul\":3059:3060   */\n      dup1\n        /* \"#utility.yul\":3052:3064   */\n      revert\n        /* \"#utility.yul\":3076:3193   */\n    tag_215:\n        /* \"#utility.yul\":3185:3186   */\n      0x00\n        /* \"#utility.yul\":3182:3183   */\n      dup1\n        /* \"#utility.yul\":3175:3187   */\n      revert\n        /* \"#utility.yul\":3199:3301   */\n    tag_216:\n        /* \"#utility.yul\":3240:3246   */\n      0x00\n        /* \"#utility.yul\":3291:3293   */\n      0x1f\n        /* \"#utility.yul\":3287:3294   */\n      not\n        /* \"#utility.yul\":3282:3284   */\n      0x1f\n        /* \"#utility.yul\":3275:3280   */\n      dup4\n        /* \"#utility.yul\":3271:3285   */\n      add\n        /* \"#utility.yul\":3267:3295   */\n      and\n        /* \"#utility.yul\":3257:3295   */\n      swap1\n      pop\n        /* \"#utility.yul\":3199:3301   */\n      swap2\n      swap1\n      pop\n      jump\t// out\n        /* \"#utility.yul\":3307:3487   */\n    tag_217:\n        /* \"#utility.yul\":3355:3432   */\n      0x4e487b7100000000000000000000000000000000000000000000000000000000\n        /* \"#utility.yul\":3352:3353   */\n      0x00\n        /* \"#utility.yul\":3345:3433   */\n      mstore\n        /* \"#utility.yul\":3452:3456   */\n      0x41\n        /* \"#utility.yul\":3449:3450   */\n      0x04\n        /* \"#utility.yul\":3442:3457   */\n      mstore\n        /* \"#utility.yul\":3476:3480   */\n      0x24\n        /* \"#utility.yul\":3473:3474   */\n      0x00\n        /* \"#utility.yul\":3466:3481   */\n      revert\n        /* \"#utility.yul\":3493:3774   */\n    tag_218:\n        /* \"#utility.yul\":3576:3603   */\n      tag_305\n        /* \"#utility.yul\":3598:3602   */\n      dup3\n        /* \"#utility.yul\":3576:3603   */\n      tag_216\n      jump\t// in\n    tag_305:\n        /* \"#utility.yul\":3568:3574   */\n      dup2\n        /* \"#utility.yul\":3564:3604   */\n      add\n        /* \"#utility.yul\":3706:3712   */\n      dup2\n        /* \"#utility.yul\":3694:3704   */\n      dup2\n        /* \"#utility.yul\":3691:3713   */\n      lt\n        /* \"#utility.yul\":3670:3688   */\n      0xffffffffffffffff\n        /* \"#utility.yul\":3658:3668   */\n      dup3\n        /* \"#utility.yul\":3655:3689   */\n      gt\n        /* \"#utility.yul\":3652:3714   */\n      or\n        /* \"#utility.yul\":3649:3737   */\n      iszero\n      tag_306\n      jumpi\n        /* \"#utility.yul\":3717:3735   */\n      tag_307\n      tag_217\n      jump\t// in\n    tag_307:\n        /* \"#utility.yul\":3649:3737   */\n    tag_306:\n        /* \"#utility.yul\":3757:3767   */\n      dup1\n        /* \"#utility.yul\":3753:3755   */\n      0x40\n        /* \"#utility.yul\":3746:3768   */\n      mstore\n        /* \"#utility.yul\":3536:3774   */\n      pop\n        /* \"#utility.yul\":3493:3774   */\n      pop\n      pop\n      jump\t// out\n        /* \"#utility.yul\":3780:3909   */\n    tag_219:\n        /* \"#utility.yul\":3814:3820   */\n      0x00\n        /* \"#utility.yul\":3841:3861   */\n      tag_309\n      tag_203\n      jump\t// in\n    tag_309:\n        /* \"#utility.yul\":3831:3861   */\n      swap1\n      pop\n        /* \"#utility.yul\":3870:3903   */\n      tag_310\n        /* \"#utility.yul\":3898:3902   */\n      dup3\n        /* \"#utility.yul\":3890:3896   */\n      dup3\n        /* \"#utility.yul\":3870:3903   */\n      tag_218\n      jump\t// in\n    tag_310:\n        /* \"#utility.yul\":3780:3909   */\n      swap2\n      swap1\n      pop\n      jump\t// out\n        /* \"#utility.yul\":3915:4222   */\n    tag_220:\n        /* \"#utility.yul\":3976:3980   */\n      0x00\n        /* \"#utility.yul\":4066:4084   */\n      0xffffffffffffffff\n        /* \"#utility.yul\":4058:4064   */\n      dup3\n        /* \"#utility.yul\":4055:4085   */\n      gt\n        /* \"#utility.yul\":4052:4108   */\n      iszero\n      tag_312\n      jumpi\n        /* \"#utility.yul\":4088:4106   */\n      tag_313\n      tag_217\n      jump\t// in\n    tag_313:\n        /* \"#utility.yul\":4052:4108   */\n    tag_312:\n        /* \"#utility.yul\":4126:4155   */\n      tag_314\n        /* \"#utility.yul\":4148:4154   */\n      dup3\n        /* \"#utility.yul\":4126:4155   */\n      tag_216\n      jump\t// in\n    tag_314:\n        /* \"#utility.yul\":4118:4155   */\n      swap1\n      pop\n        /* \"#utility.yul\":4210:4214   */\n      0x20\n        /* \"#utility.yul\":4204:4208   */\n      dup2\n        /* \"#utility.yul\":4200:4215   */\n      add\n        /* \"#utility.yul\":4192:4215   */\n      swap1\n      pop\n        /* \"#utility.yul\":3915:4222   */\n      swap2\n      swap1\n      pop\n      jump\t// out\n        /* \"#utility.yul\":4228:4374   */\n    tag_221:\n        /* \"#utility.yul\":4325:4331   */\n      dup3\n        /* \"#utility.yul\":4320:4323   */\n      dup2\n        /* \"#utility.yul\":4315:4318   */\n      dup4\n        /* \"#utility.yul\":4302:4332   */\n      calldatacopy\n        /* \"#utility.yul\":4366:4367   */\n      0x00\n        /* \"#utility.yul\":4357:4363   */\n      dup4\n        /* \"#utility.yul\":4352:4355   */\n      dup4\n        /* \"#utility.yul\":4348:4364   */\n      add\n        /* \"#utility.yul\":4341:4368   */\n      mstore\n        /* \"#utility.yul\":4228:4374   */\n      pop\n      pop\n      pop\n      jump\t// out\n        /* \"#utility.yul\":4380:4803   */\n    tag_222:\n        /* \"#utility.yul\":4457:4462   */\n      0x00\n        /* \"#utility.yul\":4482:4547   */\n      tag_317\n        /* \"#utility.yul\":4498:4546   */\n      tag_318\n        /* \"#utility.yul\":4539:4545   */\n      dup5\n        /* \"#utility.yul\":4498:4546   */\n      tag_220\n      jump\t// in\n    tag_318:\n        /* \"#utility.yul\":4482:4547   */\n      tag_219\n      jump\t// in\n    tag_317:\n        /* \"#utility.yul\":4473:4547   */\n      swap1\n      pop\n        /* \"#utility.yul\":4570:4576   */\n      dup3\n        /* \"#utility.yul\":4563:4568   */\n      dup2\n        /* \"#utility.yul\":4556:4577   */\n      mstore\n        /* \"#utility.yul\":4608:4612   */\n      0x20\n        /* \"#utility.yul\":4601:4606   */\n      dup2\n        /* \"#utility.yul\":4597:4613   */\n      add\n        /* \"#utility.yul\":4646:4649   */\n      dup5\n        /* \"#utility.yul\":4637:4643   */\n      dup5\n        /* \"#utility.yul\":4632:4635   */\n      dup5\n        /* \"#utility.yul\":4628:4644   */\n      add\n        /* \"#utility.yul\":4625:4650   */\n      gt\n        /* \"#utility.yul\":4622:4734   */\n      iszero\n      tag_319\n      jumpi\n        /* \"#utility.yul\":4653:4732   */\n      tag_320\n      tag_215\n      jump\t// in\n    tag_320:\n        /* \"#utility.yul\":4622:4734   */\n    tag_319:\n        /* \"#utility.yul\":4743:4797   */\n      tag_321\n        /* \"#utility.yul\":4790:4796   */\n      dup5\n        /* \"#utility.yul\":4785:4788   */\n      dup3\n        /* \"#utility.yul\":4780:4783   */\n      dup6\n        /* \"#utility.yul\":4743:4797   */\n      tag_221\n      jump\t// in\n    tag_321:\n        /* \"#utility.yul\":4463:4803   */\n      pop\n        /* \"#utility.yul\":4380:4803   */\n      swap4\n      swap3\n      pop\n      pop\n      pop\n      jump\t// out\n        /* \"#utility.yul\":4822:5160   */\n    tag_223:\n        /* \"#utility.yul\":4877:4882   */\n      0x00\n        /* \"#utility.yul\":4926:4929   */\n      dup3\n        /* \"#utility.yul\":4919:4923   */\n      0x1f\n        /* \"#utility.yul\":4911:4917   */\n      dup4\n        /* \"#utility.yul\":4907:4924   */\n      add\n        /* \"#utility.yul\":4903:4930   */\n      slt\n        /* \"#utility.yul\":4893:5015   */\n      tag_323\n      jumpi\n        /* \"#utility.yul\":4934:5013   */\n      tag_324\n      tag_214\n      jump\t// in\n    tag_324:\n        /* \"#utility.yul\":4893:5015   */\n    tag_323:\n        /* \"#utility.yul\":5051:5057   */\n      dup2\n        /* \"#utility.yul\":5038:5058   */\n      calldataload\n        /* \"#utility.yul\":5076:5154   */\n      tag_325\n        /* \"#utility.yul\":5150:5153   */\n      dup5\n        /* \"#utility.yul\":5142:5148   */\n      dup3\n        /* \"#utility.yul\":5135:5139   */\n      0x20\n        /* \"#utility.yul\":5127:5133   */\n      dup7\n        /* \"#utility.yul\":5123:5140   */\n      add\n        /* \"#utility.yul\":5076:5154   */\n      tag_222\n      jump\t// in\n    tag_325:\n        /* \"#utility.yul\":5067:5154   */\n      swap2\n      pop\n        /* \"#utility.yul\":4883:5160   */\n      pop\n        /* \"#utility.yul\":4822:5160   */\n      swap3\n      swap2\n      pop\n      pop\n      jump\t// out\n        /* \"#utility.yul\":5166:5486   */\n    tag_224:\n        /* \"#utility.yul\":5252:5256   */\n      0x00\n        /* \"#utility.yul\":5342:5360   */\n      0xffffffffffffffff\n        /* \"#utility.yul\":5334:5340   */\n      dup3\n        /* \"#utility.yul\":5331:5361   */\n      gt\n        /* \"#utility.yul\":5328:5384   */\n      iszero\n      tag_327\n      jumpi\n        /* \"#utility.yul\":5364:5382   */\n      tag_328\n      tag_217\n      jump\t// in\n    tag_328:\n        /* \"#utility.yul\":5328:5384   */\n    tag_327:\n        /* \"#utility.yul\":5414:5418   */\n      0x20\n        /* \"#utility.yul\":5406:5412   */\n      dup3\n        /* \"#utility.yul\":5402:5419   */\n      mul\n        /* \"#utility.yul\":5394:5419   */\n      swap1\n      pop\n        /* \"#utility.yul\":5474:5478   */\n      0x20\n        /* \"#utility.yul\":5468:5472   */\n      dup2\n        /* \"#utility.yul\":5464:5479   */\n      add\n        /* \"#utility.yul\":5456:5479   */\n      swap1\n      pop\n        /* \"#utility.yul\":5166:5486   */\n      swap2\n      swap1\n      pop\n      jump\t// out\n        /* \"#utility.yul\":5492:5609   */\n    tag_225:\n        /* \"#utility.yul\":5601:5602   */\n      0x00\n        /* \"#utility.yul\":5598:5599   */\n      dup1\n        /* \"#utility.yul\":5591:5603   */\n      revert\n        /* \"#utility.yul\":5630:6572   */\n    tag_226:\n        /* \"#utility.yul\":5735:5740   */\n      0x00\n        /* \"#utility.yul\":5760:5850   */\n      tag_331\n        /* \"#utility.yul\":5776:5849   */\n      tag_332\n        /* \"#utility.yul\":5842:5848   */\n      dup5\n        /* \"#utility.yul\":5776:5849   */\n      tag_224\n      jump\t// in\n    tag_332:\n        /* \"#utility.yul\":5760:5850   */\n      tag_219\n      jump\t// in\n    tag_331:\n        /* \"#utility.yul\":5751:5850   */\n      swap1\n      pop\n        /* \"#utility.yul\":5870:5875   */\n      dup1\n        /* \"#utility.yul\":5899:5905   */\n      dup4\n        /* \"#utility.yul\":5892:5897   */\n      dup3\n        /* \"#utility.yul\":5885:5906   */\n      mstore\n        /* \"#utility.yul\":5933:5937   */\n      0x20\n        /* \"#utility.yul\":5926:5931   */\n      dup3\n        /* \"#utility.yul\":5922:5938   */\n      add\n        /* \"#utility.yul\":5915:5938   */\n      swap1\n      pop\n        /* \"#utility.yul\":5986:5990   */\n      0x20\n        /* \"#utility.yul\":5978:5984   */\n      dup5\n        /* \"#utility.yul\":5974:5991   */\n      mul\n        /* \"#utility.yul\":5966:5972   */\n      dup4\n        /* \"#utility.yul\":5962:5992   */\n      add\n        /* \"#utility.yul\":6015:6018   */\n      dup6\n        /* \"#utility.yul\":6007:6013   */\n      dup2\n        /* \"#utility.yul\":6004:6019   */\n      gt\n        /* \"#utility.yul\":6001:6123   */\n      iszero\n      tag_333\n      jumpi\n        /* \"#utility.yul\":6034:6113   */\n      tag_334\n      tag_225\n      jump\t// in\n    tag_334:\n        /* \"#utility.yul\":6001:6123   */\n    tag_333:\n        /* \"#utility.yul\":6149:6155   */\n      dup4\n        /* \"#utility.yul\":6132:6566   */\n    tag_335:\n        /* \"#utility.yul\":6166:6172   */\n      dup2\n        /* \"#utility.yul\":6161:6164   */\n      dup2\n        /* \"#utility.yul\":6158:6173   */\n      lt\n        /* \"#utility.yul\":6132:6566   */\n      iszero\n      tag_337\n      jumpi\n        /* \"#utility.yul\":6255:6258   */\n      dup1\n        /* \"#utility.yul\":6242:6259   */\n      calldataload\n        /* \"#utility.yul\":6291:6309   */\n      0xffffffffffffffff\n        /* \"#utility.yul\":6278:6289   */\n      dup2\n        /* \"#utility.yul\":6275:6310   */\n      gt\n        /* \"#utility.yul\":6272:6394   */\n      iszero\n      tag_338\n      jumpi\n        /* \"#utility.yul\":6313:6392   */\n      tag_339\n      tag_214\n      jump\t// in\n    tag_339:\n        /* \"#utility.yul\":6272:6394   */\n    tag_338:\n        /* \"#utility.yul\":6437:6448   */\n      dup1\n        /* \"#utility.yul\":6429:6435   */\n      dup7\n        /* \"#utility.yul\":6425:6449   */\n      add\n        /* \"#utility.yul\":6475:6521   */\n      tag_340\n        /* \"#utility.yul\":6517:6520   */\n      dup10\n        /* \"#utility.yul\":6505:6515   */\n      dup3\n        /* \"#utility.yul\":6475:6521   */\n      tag_223\n      jump\t// in\n    tag_340:\n        /* \"#utility.yul\":6470:6473   */\n      dup6\n        /* \"#utility.yul\":6463:6522   */\n      mstore\n        /* \"#utility.yul\":6551:6555   */\n      0x20\n        /* \"#utility.yul\":6546:6549   */\n      dup6\n        /* \"#utility.yul\":6542:6556   */\n      add\n        /* \"#utility.yul\":6535:6556   */\n      swap5\n      pop\n        /* \"#utility.yul\":6208:6566   */\n      pop\n      pop\n        /* \"#utility.yul\":6192:6196   */\n      0x20\n        /* \"#utility.yul\":6187:6190   */\n      dup2\n        /* \"#utility.yul\":6183:6197   */\n      add\n        /* \"#utility.yul\":6176:6197   */\n      swap1\n      pop\n        /* \"#utility.yul\":6132:6566   */\n      jump(tag_335)\n    tag_337:\n        /* \"#utility.yul\":6136:6157   */\n      pop\n        /* \"#utility.yul\":5741:6572   */\n      pop\n      pop\n        /* \"#utility.yul\":5630:6572   */\n      swap4\n      swap3\n      pop\n      pop\n      pop\n      jump\t// out\n        /* \"#utility.yul\":6593:6981   */\n    tag_227:\n        /* \"#utility.yul\":6673:6678   */\n      0x00\n        /* \"#utility.yul\":6722:6725   */\n      dup3\n        /* \"#utility.yul\":6715:6719   */\n      0x1f\n        /* \"#utility.yul\":6707:6713   */\n      dup4\n        /* \"#utility.yul\":6703:6720   */\n      add\n        /* \"#utility.yul\":6699:6726   */\n      slt\n        /* \"#utility.yul\":6689:6811   */\n      tag_342\n      jumpi\n        /* \"#utility.yul\":6730:6809   */\n      tag_343\n      tag_214\n      jump\t// in\n    tag_343:\n        /* \"#utility.yul\":6689:6811   */\n    tag_342:\n        /* \"#utility.yul\":6847:6853   */\n      dup2\n        /* \"#utility.yul\":6834:6854   */\n      calldataload\n        /* \"#utility.yul\":6872:6975   */\n      tag_344\n        /* \"#utility.yul\":6971:6974   */\n      dup5\n        /* \"#utility.yul\":6963:6969   */\n      dup3\n        /* \"#utility.yul\":6956:6960   */\n      0x20\n        /* \"#utility.yul\":6948:6954   */\n      dup7\n        /* \"#utility.yul\":6944:6961   */\n      add\n        /* \"#utility.yul\":6872:6975   */\n      tag_226\n      jump\t// in\n    tag_344:\n        /* \"#utility.yul\":6863:6975   */\n      swap2\n      pop\n        /* \"#utility.yul\":6679:6981   */\n      pop\n        /* \"#utility.yul\":6593:6981   */\n      swap3\n      swap2\n      pop\n      pop\n      jump\t// out\n        /* \"#utility.yul\":6987:7076   */\n    tag_228:\n        /* \"#utility.yul\":7023:7030   */\n      0x00\n        /* \"#utility.yul\":7063:7069   */\n      0xffff\n        /* \"#utility.yul\":7056:7061   */\n      dup3\n        /* \"#utility.yul\":7052:7070   */\n      and\n        /* \"#utility.yul\":7041:7070   */\n      swap1\n      pop\n        /* \"#utility.yul\":6987:7076   */\n      swap2\n      swap1\n      pop\n      jump\t// out\n        /* \"#utility.yul\":7082:7202   */\n    tag_229:\n        /* \"#utility.yul\":7154:7177   */\n      tag_347\n        /* \"#utility.yul\":7171:7176   */\n      dup2\n        /* \"#utility.yul\":7154:7177   */\n      tag_228\n      jump\t// in\n    tag_347:\n        /* \"#utility.yul\":7147:7152   */\n      dup2\n        /* \"#utility.yul\":7144:7178   */\n      eq\n        /* \"#utility.yul\":7134:7196   */\n      tag_348\n      jumpi\n        /* \"#utility.yul\":7192:7193   */\n      0x00\n        /* \"#utility.yul\":7189:7190   */\n      dup1\n        /* \"#utility.yul\":7182:7194   */\n      revert\n        /* \"#utility.yul\":7134:7196   */\n    tag_348:\n        /* \"#utility.yul\":7082:7202   */\n      pop\n      jump\t// out\n        /* \"#utility.yul\":7208:7345   */\n    tag_230:\n        /* \"#utility.yul\":7253:7258   */\n      0x00\n        /* \"#utility.yul\":7291:7297   */\n      dup2\n        /* \"#utility.yul\":7278:7298   */\n      calldataload\n        /* \"#utility.yul\":7269:7298   */\n      swap1\n      pop\n        /* \"#utility.yul\":7307:7339   */\n      tag_350\n        /* \"#utility.yul\":7333:7338   */\n      dup2\n        /* \"#utility.yul\":7307:7339   */\n      tag_229\n      jump\t// in\n    tag_350:\n        /* \"#utility.yul\":7208:7345   */\n      swap3\n      swap2\n      pop\n      pop\n      jump\t// out\n        /* \"#utility.yul\":7351:8666   */\n    tag_54:\n        /* \"#utility.yul\":7488:7494   */\n      0x00\n        /* \"#utility.yul\":7496:7502   */\n      dup1\n        /* \"#utility.yul\":7504:7510   */\n      0x00\n        /* \"#utility.yul\":7512:7518   */\n      dup1\n        /* \"#utility.yul\":7520:7526   */\n      0x00\n        /* \"#utility.yul\":7569:7572   */\n      0xa0\n        /* \"#utility.yul\":7557:7566   */\n      dup7\n        /* \"#utility.yul\":7548:7555   */\n      dup9\n        /* \"#utility.yul\":7544:7567   */\n      sub\n        /* \"#utility.yul\":7540:7573   */\n      slt\n        /* \"#utility.yul\":7537:7657   */\n      iszero\n      tag_352\n      jumpi\n        /* \"#utility.yul\":7576:7655   */\n      tag_353\n      tag_204\n      jump\t// in\n    tag_353:\n        /* \"#utility.yul\":7537:7657   */\n    tag_352:\n        /* \"#utility.yul\":7724:7725   */\n      0x00\n        /* \"#utility.yul\":7713:7722   */\n      dup7\n        /* \"#utility.yul\":7709:7726   */\n      add\n        /* \"#utility.yul\":7696:7727   */\n      calldataload\n        /* \"#utility.yul\":7754:7772   */\n      0xffffffffffffffff\n        /* \"#utility.yul\":7746:7752   */\n      dup2\n        /* \"#utility.yul\":7743:7773   */\n      gt\n        /* \"#utility.yul\":7740:7857   */\n      iszero\n      tag_354\n      jumpi\n        /* \"#utility.yul\":7776:7855   */\n      tag_355\n      tag_205\n      jump\t// in\n    tag_355:\n        /* \"#utility.yul\":7740:7857   */\n    tag_354:\n        /* \"#utility.yul\":7881:7943   */\n      tag_356\n        /* \"#utility.yul\":7935:7942   */\n      dup9\n        /* \"#utility.yul\":7926:7932   */\n      dup3\n        /* \"#utility.yul\":7915:7924   */\n      dup10\n        /* \"#utility.yul\":7911:7933   */\n      add\n        /* \"#utility.yul\":7881:7943   */\n      tag_223\n      jump\t// in\n    tag_356:\n        /* \"#utility.yul\":7871:7943   */\n      swap6\n      pop\n        /* \"#utility.yul\":7667:7953   */\n      pop\n        /* \"#utility.yul\":8020:8022   */\n      0x20\n        /* \"#utility.yul\":8009:8018   */\n      dup7\n        /* \"#utility.yul\":8005:8023   */\n      add\n        /* \"#utility.yul\":7992:8024   */\n      calldataload\n        /* \"#utility.yul\":8051:8069   */\n      0xffffffffffffffff\n        /* \"#utility.yul\":8043:8049   */\n      dup2\n        /* \"#utility.yul\":8040:8070   */\n      gt\n        /* \"#utility.yul\":8037:8154   */\n      iszero\n      tag_357\n      jumpi\n        /* \"#utility.yul\":8073:8152   */\n      tag_358\n      tag_205\n      jump\t// in\n    tag_358:\n        /* \"#utility.yul\":8037:8154   */\n    tag_357:\n        /* \"#utility.yul\":8178:8265   */\n      tag_359\n        /* \"#utility.yul\":8257:8264   */\n      dup9\n        /* \"#utility.yul\":8248:8254   */\n      dup3\n        /* \"#utility.yul\":8237:8246   */\n      dup10\n        /* \"#utility.yul\":8233:8255   */\n      add\n        /* \"#utility.yul\":8178:8265   */\n      tag_227\n      jump\t// in\n    tag_359:\n        /* \"#utility.yul\":8168:8265   */\n      swap5\n      pop\n        /* \"#utility.yul\":7963:8275   */\n      pop\n        /* \"#utility.yul\":8314:8316   */\n      0x40\n        /* \"#utility.yul\":8340:8393   */\n      tag_360\n        /* \"#utility.yul\":8385:8392   */\n      dup9\n        /* \"#utility.yul\":8376:8382   */\n      dup3\n        /* \"#utility.yul\":8365:8374   */\n      dup10\n        /* \"#utility.yul\":8361:8383   */\n      add\n        /* \"#utility.yul\":8340:8393   */\n      tag_208\n      jump\t// in\n    tag_360:\n        /* \"#utility.yul\":8330:8393   */\n      swap4\n      pop\n        /* \"#utility.yul\":8285:8403   */\n      pop\n        /* \"#utility.yul\":8442:8444   */\n      0x60\n        /* \"#utility.yul\":8468:8520   */\n      tag_361\n        /* \"#utility.yul\":8512:8519   */\n      dup9\n        /* \"#utility.yul\":8503:8509   */\n      dup3\n        /* \"#utility.yul\":8492:8501   */\n      dup10\n        /* \"#utility.yul\":8488:8510   */\n      add\n        /* \"#utility.yul\":8468:8520   */\n      tag_230\n      jump\t// in\n    tag_361:\n        /* \"#utility.yul\":8458:8520   */\n      swap3\n      pop\n        /* \"#utility.yul\":8413:8530   */\n      pop\n        /* \"#utility.yul\":8569:8572   */\n      0x80\n        /* \"#utility.yul\":8596:8649   */\n      tag_362\n        /* \"#utility.yul\":8641:8648   */\n      dup9\n        /* \"#utility.yul\":8632:8638   */\n      dup3\n        /* \"#utility.yul\":8621:8630   */\n      dup10\n        /* \"#utility.yul\":8617:8639   */\n      add\n        /* \"#utility.yul\":8596:8649   */\n      tag_208\n      jump\t// in\n    tag_362:\n        /* \"#utility.yul\":8586:8649   */\n      swap2\n      pop\n        /* \"#utility.yul\":8540:8659   */\n      pop\n        /* \"#utility.yul\":7351:8666   */\n      swap3\n      swap6\n      pop\n      swap3\n      swap6\n      swap1\n      swap4\n      pop\n      jump\t// out\n        /* \"#utility.yul\":8672:8794   */\n    tag_231:\n        /* \"#utility.yul\":8745:8769   */\n      tag_364\n        /* \"#utility.yul\":8763:8768   */\n      dup2\n        /* \"#utility.yul\":8745:8769   */\n      tag_201\n      jump\t// in\n    tag_364:\n        /* \"#utility.yul\":8738:8743   */\n      dup2\n        /* \"#utility.yul\":8735:8770   */\n      eq\n        /* \"#utility.yul\":8725:8788   */\n      tag_365\n      jumpi\n        /* \"#utility.yul\":8784:8785   */\n      0x00\n        /* \"#utility.yul\":8781:8782   */\n      dup1\n        /* \"#utility.yul\":8774:8786   */\n      revert\n        /* \"#utility.yul\":8725:8788   */\n    tag_365:\n        /* \"#utility.yul\":8672:8794   */\n      pop\n      jump\t// out\n        /* \"#utility.yul\":8800:8939   */\n    tag_232:\n        /* \"#utility.yul\":8846:8851   */\n      0x00\n        /* \"#utility.yul\":8884:8890   */\n      dup2\n        /* \"#utility.yul\":8871:8891   */\n      calldataload\n        /* \"#utility.yul\":8862:8891   */\n      swap1\n      pop\n        /* \"#utility.yul\":8900:8933   */\n      tag_367\n        /* \"#utility.yul\":8927:8932   */\n      dup2\n        /* \"#utility.yul\":8900:8933   */\n      tag_231\n      jump\t// in\n    tag_367:\n        /* \"#utility.yul\":8800:8939   */\n      swap3\n      swap2\n      pop\n      pop\n      jump\t// out\n        /* \"#utility.yul\":8945:9274   */\n    tag_59:\n        /* \"#utility.yul\":9004:9010   */\n      0x00\n        /* \"#utility.yul\":9053:9055   */\n      0x20\n        /* \"#utility.yul\":9041:9050   */\n      dup3\n        /* \"#utility.yul\":9032:9039   */\n      dup5\n        /* \"#utility.yul\":9028:9051   */\n      sub\n        /* \"#utility.yul\":9024:9056   */\n      slt\n        /* \"#utility.yul\":9021:9140   */\n      iszero\n      tag_369\n      jumpi\n        /* \"#utility.yul\":9059:9138   */\n      tag_370\n      tag_204\n      jump\t// in\n    tag_370:\n        /* \"#utility.yul\":9021:9140   */\n    tag_369:\n        /* \"#utility.yul\":9179:9180   */\n      0x00\n        /* \"#utility.yul\":9204:9257   */\n      tag_371\n        /* \"#utility.yul\":9249:9256   */\n      dup5\n        /* \"#utility.yul\":9240:9246   */\n      dup3\n        /* \"#utility.yul\":9229:9238   */\n      dup6\n        /* \"#utility.yul\":9225:9247   */\n      add\n        /* \"#utility.yul\":9204:9257   */\n      tag_232\n      jump\t// in\n    tag_371:\n        /* \"#utility.yul\":9194:9257   */\n      swap2\n      pop\n        /* \"#utility.yul\":9150:9267   */\n      pop\n        /* \"#utility.yul\":8945:9274   */\n      swap3\n      swap2\n      pop\n      pop\n      jump\t// out\n        /* \"#utility.yul\":9280:9402   */\n    tag_233:\n        /* \"#utility.yul\":9353:9377   */\n      tag_373\n        /* \"#utility.yul\":9371:9376   */\n      dup2\n        /* \"#utility.yul\":9353:9377   */\n      tag_212\n      jump\t// in\n    tag_373:\n        /* \"#utility.yul\":9346:9351   */\n      dup2\n        /* \"#utility.yul\":9343:9378   */\n      eq\n        /* \"#utility.yul\":9333:9396   */\n      tag_374\n      jumpi\n        /* \"#utility.yul\":9392:9393   */\n      0x00\n        /* \"#utility.yul\":9389:9390   */\n      dup1\n        /* \"#utility.yul\":9382:9394   */\n      revert\n        /* \"#utility.yul\":9333:9396   */\n    tag_374:\n        /* \"#utility.yul\":9280:9402   */\n      pop\n      jump\t// out\n        /* \"#utility.yul\":9408:9547   */\n    tag_234:\n        /* \"#utility.yul\":9454:9459   */\n      0x00\n        /* \"#utility.yul\":9492:9498   */\n      dup2\n        /* \"#utility.yul\":9479:9499   */\n      calldataload\n        /* \"#utility.yul\":9470:9499   */\n      swap1\n      pop\n        /* \"#utility.yul\":9508:9541   */\n      tag_376\n        /* \"#utility.yul\":9535:9540   */\n      dup2\n        /* \"#utility.yul\":9508:9541   */\n      tag_233\n      jump\t// in\n    tag_376:\n        /* \"#utility.yul\":9408:9547   */\n      swap3\n      swap2\n      pop\n      pop\n      jump\t// out\n        /* \"#utility.yul\":9553:9882   */\n    tag_72:\n        /* \"#utility.yul\":9612:9618   */\n      0x00\n        /* \"#utility.yul\":9661:9663   */\n      0x20\n        /* \"#utility.yul\":9649:9658   */\n      dup3\n        /* \"#utility.yul\":9640:9647   */\n      dup5\n        /* \"#utility.yul\":9636:9659   */\n      sub\n        /* \"#utility.yul\":9632:9664   */\n      slt\n        /* \"#utility.yul\":9629:9748   */\n      iszero\n      tag_378\n      jumpi\n        /* \"#utility.yul\":9667:9746   */\n      tag_379\n      tag_204\n      jump\t// in\n    tag_379:\n        /* \"#utility.yul\":9629:9748   */\n    tag_378:\n        /* \"#utility.yul\":9787:9788   */\n      0x00\n        /* \"#utility.yul\":9812:9865   */\n      tag_380\n        /* \"#utility.yul\":9857:9864   */\n      dup5\n        /* \"#utility.yul\":9848:9854   */\n      dup3\n        /* \"#utility.yul\":9837:9846   */\n      dup6\n        /* \"#utility.yul\":9833:9855   */\n      add\n        /* \"#utility.yul\":9812:9865   */\n      tag_234\n      jump\t// in\n    tag_380:\n        /* \"#utility.yul\":9802:9865   */\n      swap2\n      pop\n        /* \"#utility.yul\":9758:9875   */\n      pop\n        /* \"#utility.yul\":9553:9882   */\n      swap3\n      swap2\n      pop\n      pop\n      jump\t// out\n        /* \"#utility.yul\":9888:10362   */\n    tag_80:\n        /* \"#utility.yul\":9956:9962   */\n      0x00\n        /* \"#utility.yul\":9964:9970   */\n      dup1\n        /* \"#utility.yul\":10013:10015   */\n      0x40\n        /* \"#utility.yul\":10001:10010   */\n      dup4\n        /* \"#utility.yul\":9992:9999   */\n      dup6\n        /* \"#utility.yul\":9988:10011   */\n      sub\n        /* \"#utility.yul\":9984:10016   */\n      slt\n        /* \"#utility.yul\":9981:10100   */\n      iszero\n      tag_382\n      jumpi\n        /* \"#utility.yul\":10019:10098   */\n      tag_383\n      tag_204\n      jump\t// in\n    tag_383:\n        /* \"#utility.yul\":9981:10100   */\n    tag_382:\n        /* \"#utility.yul\":10139:10140   */\n      0x00\n        /* \"#utility.yul\":10164:10217   */\n      tag_384\n        /* \"#utility.yul\":10209:10216   */\n      dup6\n        /* \"#utility.yul\":10200:10206   */\n      dup3\n        /* \"#utility.yul\":10189:10198   */\n      dup7\n        /* \"#utility.yul\":10185:10207   */\n      add\n        /* \"#utility.yul\":10164:10217   */\n      tag_208\n      jump\t// in\n    tag_384:\n        /* \"#utility.yul\":10154:10217   */\n      swap3\n      pop\n        /* \"#utility.yul\":10110:10227   */\n      pop\n        /* \"#utility.yul\":10266:10268   */\n      0x20\n        /* \"#utility.yul\":10292:10345   */\n      tag_385\n        /* \"#utility.yul\":10337:10344   */\n      dup6\n        /* \"#utility.yul\":10328:10334   */\n      dup3\n        /* \"#utility.yul\":10317:10326   */\n      dup7\n        /* \"#utility.yul\":10313:10335   */\n      add\n        /* \"#utility.yul\":10292:10345   */\n      tag_232\n      jump\t// in\n    tag_385:\n        /* \"#utility.yul\":10282:10345   */\n      swap2\n      pop\n        /* \"#utility.yul\":10237:10355   */\n      pop\n        /* \"#utility.yul\":9888:10362   */\n      swap3\n      pop\n      swap3\n      swap1\n      pop\n      jump\t// out\n        /* \"#utility.yul\":10368:10486   */\n    tag_235:\n        /* \"#utility.yul\":10455:10479   */\n      tag_387\n        /* \"#utility.yul\":10473:10478   */\n      dup2\n        /* \"#utility.yul\":10455:10479   */\n      tag_206\n      jump\t// in\n    tag_387:\n        /* \"#utility.yul\":10450:10453   */\n      dup3\n        /* \"#utility.yul\":10443:10480   */\n      mstore\n        /* \"#utility.yul\":10368:10486   */\n      pop\n      pop\n      jump\t// out\n        /* \"#utility.yul\":10492:10714   */\n    tag_87:\n        /* \"#utility.yul\":10585:10589   */\n      0x00\n        /* \"#utility.yul\":10623:10625   */\n      0x20\n        /* \"#utility.yul\":10612:10621   */\n      dup3\n        /* \"#utility.yul\":10608:10626   */\n      add\n        /* \"#utility.yul\":10600:10626   */\n      swap1\n      pop\n        /* \"#utility.yul\":10636:10707   */\n      tag_389\n        /* \"#utility.yul\":10704:10705   */\n      0x00\n        /* \"#utility.yul\":10693:10702   */\n      dup4\n        /* \"#utility.yul\":10689:10706   */\n      add\n        /* \"#utility.yul\":10680:10686   */\n      dup5\n        /* \"#utility.yul\":10636:10707   */\n      tag_235\n      jump\t// in\n    tag_389:\n        /* \"#utility.yul\":10492:10714   */\n      swap3\n      swap2\n      pop\n      pop\n      jump\t// out\n        /* \"#utility.yul\":10720:11517   */\n    tag_91:\n        /* \"#utility.yul\":10806:10812   */\n      0x00\n        /* \"#utility.yul\":10814:10820   */\n      dup1\n        /* \"#utility.yul\":10822:10828   */\n      0x00\n        /* \"#utility.yul\":10871:10873   */\n      0x60\n        /* \"#utility.yul\":10859:10868   */\n      dup5\n        /* \"#utility.yul\":10850:10857   */\n      dup7\n        /* \"#utility.yul\":10846:10869   */\n      sub\n        /* \"#utility.yul\":10842:10874   */\n      slt\n        /* \"#utility.yul\":10839:10958   */\n      iszero\n      tag_391\n      jumpi\n        /* \"#utility.yul\":10877:10956   */\n      tag_392\n      tag_204\n      jump\t// in\n    tag_392:\n        /* \"#utility.yul\":10839:10958   */\n    tag_391:\n        /* \"#utility.yul\":10997:10998   */\n      0x00\n        /* \"#utility.yul\":11022:11075   */\n      tag_393\n        /* \"#utility.yul\":11067:11074   */\n      dup7\n        /* \"#utility.yul\":11058:11064   */\n      dup3\n        /* \"#utility.yul\":11047:11056   */\n      dup8\n        /* \"#utility.yul\":11043:11065   */\n      add\n        /* \"#utility.yul\":11022:11075   */\n      tag_234\n      jump\t// in\n    tag_393:\n        /* \"#utility.yul\":11012:11075   */\n      swap4\n      pop\n        /* \"#utility.yul\":10968:11085   */\n      pop\n        /* \"#utility.yul\":11124:11126   */\n      0x20\n        /* \"#utility.yul\":11150:11203   */\n      tag_394\n        /* \"#utility.yul\":11195:11202   */\n      dup7\n        /* \"#utility.yul\":11186:11192   */\n      dup3\n        /* \"#utility.yul\":11175:11184   */\n      dup8\n        /* \"#utility.yul\":11171:11193   */\n      add\n        /* \"#utility.yul\":11150:11203   */\n      tag_232\n      jump\t// in\n    tag_394:\n        /* \"#utility.yul\":11140:11203   */\n      swap3\n      pop\n        /* \"#utility.yul\":11095:11213   */\n      pop\n        /* \"#utility.yul\":11280:11282   */\n      0x40\n        /* \"#utility.yul\":11269:11278   */\n      dup5\n        /* \"#utility.yul\":11265:11283   */\n      add\n        /* \"#utility.yul\":11252:11284   */\n      calldataload\n        /* \"#utility.yul\":11311:11329   */\n      0xffffffffffffffff\n        /* \"#utility.yul\":11303:11309   */\n      dup2\n        /* \"#utility.yul\":11300:11330   */\n      gt\n        /* \"#utility.yul\":11297:11414   */\n      iszero\n      tag_395\n      jumpi\n        /* \"#utility.yul\":11333:11412   */\n      tag_396\n      tag_205\n      jump\t// in\n    tag_396:\n        /* \"#utility.yul\":11297:11414   */\n    tag_395:\n        /* \"#utility.yul\":11438:11500   */\n      tag_397\n        /* \"#utility.yul\":11492:11499   */\n      dup7\n        /* \"#utility.yul\":11483:11489   */\n      dup3\n        /* \"#utility.yul\":11472:11481   */\n      dup8\n        /* \"#utility.yul\":11468:11490   */\n      add\n        /* \"#utility.yul\":11438:11500   */\n      tag_223\n      jump\t// in\n    tag_397:\n        /* \"#utility.yul\":11428:11500   */\n      swap2\n      pop\n        /* \"#utility.yul\":11223:11510   */\n      pop\n        /* \"#utility.yul\":10720:11517   */\n      swap3\n      pop\n      swap3\n      pop\n      swap3\n      jump\t// out\n        /* \"#utility.yul\":11523:11692   */\n    tag_236:\n        /* \"#utility.yul\":11607:11618   */\n      0x00\n        /* \"#utility.yul\":11641:11647   */\n      dup3\n        /* \"#utility.yul\":11636:11639   */\n      dup3\n        /* \"#utility.yul\":11629:11648   */\n      mstore\n        /* \"#utility.yul\":11681:11685   */\n      0x20\n        /* \"#utility.yul\":11676:11679   */\n      dup3\n        /* \"#utility.yul\":11672:11686   */\n      add\n        /* \"#utility.yul\":11657:11686   */\n      swap1\n      pop\n        /* \"#utility.yul\":11523:11692   */\n      swap3\n      swap2\n      pop\n      pop\n      jump\t// out\n        /* \"#utility.yul\":11698:11876   */\n    tag_237:\n        /* \"#utility.yul\":11838:11868   */\n      0x6e65656420746f20706179206665657320746f20726567697374657200000000\n        /* \"#utility.yul\":11834:11835   */\n      0x00\n        /* \"#utility.yul\":11826:11832   */\n      dup3\n        /* \"#utility.yul\":11822:11836   */\n      add\n        /* \"#utility.yul\":11815:11869   */\n      mstore\n        /* \"#utility.yul\":11698:11876   */\n      pop\n      jump\t// out\n        /* \"#utility.yul\":11882:12248   */\n    tag_238:\n        /* \"#utility.yul\":12024:12027   */\n      0x00\n        /* \"#utility.yul\":12045:12112   */\n      tag_401\n        /* \"#utility.yul\":12109:12111   */\n      0x1c\n        /* \"#utility.yul\":12104:12107   */\n      dup4\n        /* \"#utility.yul\":12045:12112   */\n      tag_236\n      jump\t// in\n    tag_401:\n        /* \"#utility.yul\":12038:12112   */\n      swap2\n      pop\n        /* \"#utility.yul\":12121:12214   */\n      tag_402\n        /* \"#utility.yul\":12210:12213   */\n      dup3\n        /* \"#utility.yul\":12121:12214   */\n      tag_237\n      jump\t// in\n    tag_402:\n        /* \"#utility.yul\":12239:12241   */\n      0x20\n        /* \"#utility.yul\":12234:12237   */\n      dup3\n        /* \"#utility.yul\":12230:12242   */\n      add\n        /* \"#utility.yul\":12223:12242   */\n      swap1\n      pop\n        /* \"#utility.yul\":11882:12248   */\n      swap2\n      swap1\n      pop\n      jump\t// out\n        /* \"#utility.yul\":12254:12673   */\n    tag_111:\n        /* \"#utility.yul\":12420:12424   */\n      0x00\n        /* \"#utility.yul\":12458:12460   */\n      0x20\n        /* \"#utility.yul\":12447:12456   */\n      dup3\n        /* \"#utility.yul\":12443:12461   */\n      add\n        /* \"#utility.yul\":12435:12461   */\n      swap1\n      pop\n        /* \"#utility.yul\":12507:12516   */\n      dup2\n        /* \"#utility.yul\":12501:12505   */\n      dup2\n        /* \"#utility.yul\":12497:12517   */\n      sub\n        /* \"#utility.yul\":12493:12494   */\n      0x00\n        /* \"#utility.yul\":12482:12491   */\n      dup4\n        /* \"#utility.yul\":12478:12495   */\n      add\n        /* \"#utility.yul\":12471:12518   */\n      mstore\n        /* \"#utility.yul\":12535:12666   */\n      tag_404\n        /* \"#utility.yul\":12661:12665   */\n      dup2\n        /* \"#utility.yul\":12535:12666   */\n      tag_238\n      jump\t// in\n    tag_404:\n        /* \"#utility.yul\":12527:12666   */\n      swap1\n      pop\n        /* \"#utility.yul\":12254:12673   */\n      swap2\n      swap1\n      pop\n      jump\t// out\n        /* \"#utility.yul\":12679:12856   */\n    tag_239:\n        /* \"#utility.yul\":12819:12848   */\n      0x416c7265616479207265676973746572656420757365726e616d650000000000\n        /* \"#utility.yul\":12815:12816   */\n      0x00\n        /* \"#utility.yul\":12807:12813   */\n      dup3\n        /* \"#utility.yul\":12803:12817   */\n      add\n        /* \"#utility.yul\":12796:12849   */\n      mstore\n        /* \"#utility.yul\":12679:12856   */\n      pop\n      jump\t// out\n        /* \"#utility.yul\":12862:13228   */\n    tag_240:\n        /* \"#utility.yul\":13004:13007   */\n      0x00\n        /* \"#utility.yul\":13025:13092   */\n      tag_407\n        /* \"#utility.yul\":13089:13091   */\n      0x1b\n        /* \"#utility.yul\":13084:13087   */\n      dup4\n        /* \"#utility.yul\":13025:13092   */\n      tag_236\n      jump\t// in\n    tag_407:\n        /* \"#utility.yul\":13018:13092   */\n      swap2\n      pop\n        /* \"#utility.yul\":13101:13194   */\n      tag_408\n        /* \"#utility.yul\":13190:13193   */\n      dup3\n        /* \"#utility.yul\":13101:13194   */\n      tag_239\n      jump\t// in\n    tag_408:\n        /* \"#utility.yul\":13219:13221   */\n      0x20\n        /* \"#utility.yul\":13214:13217   */\n      dup3\n        /* \"#utility.yul\":13210:13222   */\n      add\n        /* \"#utility.yul\":13203:13222   */\n      swap1\n      pop\n        /* \"#utility.yul\":12862:13228   */\n      swap2\n      swap1\n      pop\n      jump\t// out\n        /* \"#utility.yul\":13234:13653   */\n    tag_114:\n        /* \"#utility.yul\":13400:13404   */\n      0x00\n        /* \"#utility.yul\":13438:13440   */\n      0x20\n        /* \"#utility.yul\":13427:13436   */\n      dup3\n        /* \"#utility.yul\":13423:13441   */\n      add\n        /* \"#utility.yul\":13415:13441   */\n      swap1\n      pop\n        /* \"#utility.yul\":13487:13496   */\n      dup2\n        /* \"#utility.yul\":13481:13485   */\n      dup2\n        /* \"#utility.yul\":13477:13497   */\n      sub\n        /* \"#utility.yul\":13473:13474   */\n      0x00\n        /* \"#utility.yul\":13462:13471   */\n      dup4\n        /* \"#utility.yul\":13458:13475   */\n      add\n        /* \"#utility.yul\":13451:13498   */\n      mstore\n        /* \"#utility.yul\":13515:13646   */\n      tag_410\n        /* \"#utility.yul\":13641:13645   */\n      dup2\n        /* \"#utility.yul\":13515:13646   */\n      tag_240\n      jump\t// in\n    tag_410:\n        /* \"#utility.yul\":13507:13646   */\n      swap1\n      pop\n        /* \"#utility.yul\":13234:13653   */\n      swap2\n      swap1\n      pop\n      jump\t// out\n        /* \"#utility.yul\":13659:13839   */\n    tag_241:\n        /* \"#utility.yul\":13707:13784   */\n      0x4e487b7100000000000000000000000000000000000000000000000000000000\n        /* \"#utility.yul\":13704:13705   */\n      0x00\n        /* \"#utility.yul\":13697:13785   */\n      mstore\n        /* \"#utility.yul\":13804:13808   */\n      0x11\n        /* \"#utility.yul\":13801:13802   */\n      0x04\n        /* \"#utility.yul\":13794:13809   */\n      mstore\n        /* \"#utility.yul\":13828:13832   */\n      0x24\n        /* \"#utility.yul\":13825:13826   */\n      0x00\n        /* \"#utility.yul\":13818:13833   */\n      revert\n        /* \"#utility.yul\":13845:14036   */\n    tag_116:\n        /* \"#utility.yul\":13885:13888   */\n      0x00\n        /* \"#utility.yul\":13904:13924   */\n      tag_413\n        /* \"#utility.yul\":13922:13923   */\n      dup3\n        /* \"#utility.yul\":13904:13924   */\n      tag_201\n      jump\t// in\n    tag_413:\n        /* \"#utility.yul\":13899:13924   */\n      swap2\n      pop\n        /* \"#utility.yul\":13938:13958   */\n      tag_414\n        /* \"#utility.yul\":13956:13957   */\n      dup4\n        /* \"#utility.yul\":13938:13958   */\n      tag_201\n      jump\t// in\n    tag_414:\n        /* \"#utility.yul\":13933:13958   */\n      swap3\n      pop\n        /* \"#utility.yul\":13981:13982   */\n      dup3\n        /* \"#utility.yul\":13978:13979   */\n      dup3\n        /* \"#utility.yul\":13974:13983   */\n      add\n        /* \"#utility.yul\":13967:13983   */\n      swap1\n      pop\n        /* \"#utility.yul\":14002:14005   */\n      dup1\n        /* \"#utility.yul\":13999:14000   */\n      dup3\n        /* \"#utility.yul\":13996:14006   */\n      gt\n        /* \"#utility.yul\":13993:14029   */\n      iszero\n      tag_415\n      jumpi\n        /* \"#utility.yul\":14009:14027   */\n      tag_416\n      tag_241\n      jump\t// in\n    tag_416:\n        /* \"#utility.yul\":13993:14029   */\n    tag_415:\n        /* \"#utility.yul\":13845:14036   */\n      swap3\n      swap2\n      pop\n      pop\n      jump\t// out\n        /* \"#utility.yul\":14042:14211   */\n    tag_242:\n        /* \"#utility.yul\":14182:14203   */\n      0x43616c6c6572206973206e6f74206f776e657200000000000000000000000000\n        /* \"#utility.yul\":14178:14179   */\n      0x00\n        /* \"#utility.yul\":14170:14176   */\n      dup3\n        /* \"#utility.yul\":14166:14180   */\n      add\n        /* \"#utility.yul\":14159:14204   */\n      mstore\n        /* \"#utility.yul\":14042:14211   */\n      pop\n      jump\t// out\n        /* \"#utility.yul\":14217:14583   */\n    tag_243:\n        /* \"#utility.yul\":14359:14362   */\n      0x00\n        /* \"#utility.yul\":14380:14447   */\n      tag_419\n        /* \"#utility.yul\":14444:14446   */\n      0x13\n        /* \"#utility.yul\":14439:14442   */\n      dup4\n        /* \"#utility.yul\":14380:14447   */\n      tag_236\n      jump\t// in\n    tag_419:\n        /* \"#utility.yul\":14373:14447   */\n      swap2\n      pop\n        /* \"#utility.yul\":14456:14549   */\n      tag_420\n        /* \"#utility.yul\":14545:14548   */\n      dup3\n        /* \"#utility.yul\":14456:14549   */\n      tag_242\n      jump\t// in\n    tag_420:\n        /* \"#utility.yul\":14574:14576   */\n      0x20\n        /* \"#utility.yul\":14569:14572   */\n      dup3\n        /* \"#utility.yul\":14565:14577   */\n      add\n        /* \"#utility.yul\":14558:14577   */\n      swap1\n      pop\n        /* \"#utility.yul\":14217:14583   */\n      swap2\n      swap1\n      pop\n      jump\t// out\n        /* \"#utility.yul\":14589:15008   */\n    tag_121:\n        /* \"#utility.yul\":14755:14759   */\n      0x00\n        /* \"#utility.yul\":14793:14795   */\n      0x20\n        /* \"#utility.yul\":14782:14791   */\n      dup3\n        /* \"#utility.yul\":14778:14796   */\n      add\n        /* \"#utility.yul\":14770:14796   */\n      swap1\n      pop\n        /* \"#utility.yul\":14842:14851   */\n      dup2\n        /* \"#utility.yul\":14836:14840   */\n      dup2\n        /* \"#utility.yul\":14832:14852   */\n      sub\n        /* \"#utility.yul\":14828:14829   */\n      0x00\n        /* \"#utility.yul\":14817:14826   */\n      dup4\n        /* \"#utility.yul\":14813:14830   */\n      add\n        /* \"#utility.yul\":14806:14853   */\n      mstore\n        /* \"#utility.yul\":14870:15001   */\n      tag_422\n        /* \"#utility.yul\":14996:15000   */\n      dup2\n        /* \"#utility.yul\":14870:15001   */\n      tag_243\n      jump\t// in\n    tag_422:\n        /* \"#utility.yul\":14862:15001   */\n      swap1\n      pop\n        /* \"#utility.yul\":14589:15008   */\n      swap2\n      swap1\n      pop\n      jump\t// out\n        /* \"#utility.yul\":15014:15161   */\n    tag_244:\n        /* \"#utility.yul\":15115:15126   */\n      0x00\n        /* \"#utility.yul\":15152:15155   */\n      dup2\n        /* \"#utility.yul\":15137:15155   */\n      swap1\n      pop\n        /* \"#utility.yul\":15014:15161   */\n      swap3\n      swap2\n      pop\n      pop\n      jump\t// out\n        /* \"#utility.yul\":15167:15281   */\n    tag_245:\n      pop\n      jump\t// out\n        /* \"#utility.yul\":15287:15685   */\n    tag_246:\n        /* \"#utility.yul\":15446:15449   */\n      0x00\n        /* \"#utility.yul\":15467:15550   */\n      tag_426\n        /* \"#utility.yul\":15548:15549   */\n      0x00\n        /* \"#utility.yul\":15543:15546   */\n      dup4\n        /* \"#utility.yul\":15467:15550   */\n      tag_244\n      jump\t// in\n    tag_426:\n        /* \"#utility.yul\":15460:15550   */\n      swap2\n      pop\n        /* \"#utility.yul\":15559:15652   */\n      tag_427\n        /* \"#utility.yul\":15648:15651   */\n      dup3\n        /* \"#utility.yul\":15559:15652   */\n      tag_245\n      jump\t// in\n    tag_427:\n        /* \"#utility.yul\":15677:15678   */\n      0x00\n        /* \"#utility.yul\":15672:15675   */\n      dup3\n        /* \"#utility.yul\":15668:15679   */\n      add\n        /* \"#utility.yul\":15661:15679   */\n      swap1\n      pop\n        /* \"#utility.yul\":15287:15685   */\n      swap2\n      swap1\n      pop\n      jump\t// out\n        /* \"#utility.yul\":15691:16070   */\n    tag_129:\n        /* \"#utility.yul\":15875:15878   */\n      0x00\n        /* \"#utility.yul\":15897:16044   */\n      tag_429\n        /* \"#utility.yul\":16040:16043   */\n      dup3\n        /* \"#utility.yul\":15897:16044   */\n      tag_246\n      jump\t// in\n    tag_429:\n        /* \"#utility.yul\":15890:16044   */\n      swap2\n      pop\n        /* \"#utility.yul\":16061:16064   */\n      dup2\n        /* \"#utility.yul\":16054:16064   */\n      swap1\n      pop\n        /* \"#utility.yul\":15691:16070   */\n      swap2\n      swap1\n      pop\n      jump\t// out\n        /* \"#utility.yul\":16076:16246   */\n    tag_247:\n        /* \"#utility.yul\":16216:16238   */\n      0x4661696c656420746f2073656e64204574686572000000000000000000000000\n        /* \"#utility.yul\":16212:16213   */\n      0x00\n        /* \"#utility.yul\":16204:16210   */\n      dup3\n        /* \"#utility.yul\":16200:16214   */\n      add\n        /* \"#utility.yul\":16193:16239   */\n      mstore\n        /* \"#utility.yul\":16076:16246   */\n      pop\n      jump\t// out\n        /* \"#utility.yul\":16252:16618   */\n    tag_248:\n        /* \"#utility.yul\":16394:16397   */\n      0x00\n        /* \"#utility.yul\":16415:16482   */\n      tag_432\n        /* \"#utility.yul\":16479:16481   */\n      0x14\n        /* \"#utility.yul\":16474:16477   */\n      dup4\n        /* \"#utility.yul\":16415:16482   */\n      tag_236\n      jump\t// in\n    tag_432:\n        /* \"#utility.yul\":16408:16482   */\n      swap2\n      pop\n        /* \"#utility.yul\":16491:16584   */\n      tag_433\n        /* \"#utility.yul\":16580:16583   */\n      dup3\n        /* \"#utility.yul\":16491:16584   */\n      tag_247\n      jump\t// in\n    tag_433:\n        /* \"#utility.yul\":16609:16611   */\n      0x20\n        /* \"#utility.yul\":16604:16607   */\n      dup3\n        /* \"#utility.yul\":16600:16612   */\n      add\n        /* \"#utility.yul\":16593:16612   */\n      swap1\n      pop\n        /* \"#utility.yul\":16252:16618   */\n      swap2\n      swap1\n      pop\n      jump\t// out\n        /* \"#utility.yul\":16624:17043   */\n    tag_135:\n        /* \"#utility.yul\":16790:16794   */\n      0x00\n        /* \"#utility.yul\":16828:16830   */\n      0x20\n        /* \"#utility.yul\":16817:16826   */\n      dup3\n        /* \"#utility.yul\":16813:16831   */\n      add\n        /* \"#utility.yul\":16805:16831   */\n      swap1\n      pop\n        /* \"#utility.yul\":16877:16886   */\n      dup2\n        /* \"#utility.yul\":16871:16875   */\n      dup2\n        /* \"#utility.yul\":16867:16887   */\n      sub\n        /* \"#utility.yul\":16863:16864   */\n      0x00\n        /* \"#utility.yul\":16852:16861   */\n      dup4\n        /* \"#utility.yul\":16848:16865   */\n      add\n        /* \"#utility.yul\":16841:16888   */\n      mstore\n        /* \"#utility.yul\":16905:17036   */\n      tag_435\n        /* \"#utility.yul\":17031:17035   */\n      dup2\n        /* \"#utility.yul\":16905:17036   */\n      tag_248\n      jump\t// in\n    tag_435:\n        /* \"#utility.yul\":16897:17036   */\n      swap1\n      pop\n        /* \"#utility.yul\":16624:17043   */\n      swap2\n      swap1\n      pop\n      jump\t// out\n        /* \"#utility.yul\":17049:17219   */\n    tag_249:\n        /* \"#utility.yul\":17189:17211   */\n      0x4f6e6c792072656c6179657220616c6c6f776564000000000000000000000000\n        /* \"#utility.yul\":17185:17186   */\n      0x00\n        /* \"#utility.yul\":17177:17183   */\n      dup3\n        /* \"#utility.yul\":17173:17187   */\n      add\n        /* \"#utility.yul\":17166:17212   */\n      mstore\n        /* \"#utility.yul\":17049:17219   */\n      pop\n      jump\t// out\n        /* \"#utility.yul\":17225:17591   */\n    tag_250:\n        /* \"#utility.yul\":17367:17370   */\n      0x00\n        /* \"#utility.yul\":17388:17455   */\n      tag_438\n        /* \"#utility.yul\":17452:17454   */\n      0x14\n        /* \"#utility.yul\":17447:17450   */\n      dup4\n        /* \"#utility.yul\":17388:17455   */\n      tag_236\n      jump\t// in\n    tag_438:\n        /* \"#utility.yul\":17381:17455   */\n      swap2\n      pop\n        /* \"#utility.yul\":17464:17557   */\n      tag_439\n        /* \"#utility.yul\":17553:17556   */\n      dup3\n        /* \"#utility.yul\":17464:17557   */\n      tag_249\n      jump\t// in\n    tag_439:\n        /* \"#utility.yul\":17582:17584   */\n      0x20\n        /* \"#utility.yul\":17577:17580   */\n      dup3\n        /* \"#utility.yul\":17573:17585   */\n      add\n        /* \"#utility.yul\":17566:17585   */\n      swap1\n      pop\n        /* \"#utility.yul\":17225:17591   */\n      swap2\n      swap1\n      pop\n      jump\t// out\n        /* \"#utility.yul\":17597:18016   */\n    tag_140:\n        /* \"#utility.yul\":17763:17767   */\n      0x00\n        /* \"#utility.yul\":17801:17803   */\n      0x20\n        /* \"#utility.yul\":17790:17799   */\n      dup3\n        /* \"#utility.yul\":17786:17804   */\n      add\n        /* \"#utility.yul\":17778:17804   */\n      swap1\n      pop\n        /* \"#utility.yul\":17850:17859   */\n      dup2\n        /* \"#utility.yul\":17844:17848   */\n      dup2\n        /* \"#utility.yul\":17840:17860   */\n      sub\n        /* \"#utility.yul\":17836:17837   */\n      0x00\n        /* \"#utility.yul\":17825:17834   */\n      dup4\n        /* \"#utility.yul\":17821:17838   */\n      add\n        /* \"#utility.yul\":17814:17861   */\n      mstore\n        /* \"#utility.yul\":17878:18009   */\n      tag_441\n        /* \"#utility.yul\":18004:18008   */\n      dup2\n        /* \"#utility.yul\":17878:18009   */\n      tag_250\n      jump\t// in\n    tag_441:\n        /* \"#utility.yul\":17870:18009   */\n      swap1\n      pop\n        /* \"#utility.yul\":17597:18016   */\n      swap2\n      swap1\n      pop\n      jump\t// out\n        /* \"#utility.yul\":18022:18197   */\n    tag_251:\n        /* \"#utility.yul\":18162:18189   */\n      0x4d65737361676520616c72656164792070726f63657373656400000000000000\n        /* \"#utility.yul\":18158:18159   */\n      0x00\n        /* \"#utility.yul\":18150:18156   */\n      dup3\n        /* \"#utility.yul\":18146:18160   */\n      add\n        /* \"#utility.yul\":18139:18190   */\n      mstore\n        /* \"#utility.yul\":18022:18197   */\n      pop\n      jump\t// out\n        /* \"#utility.yul\":18203:18569   */\n    tag_252:\n        /* \"#utility.yul\":18345:18348   */\n      0x00\n        /* \"#utility.yul\":18366:18433   */\n      tag_444\n        /* \"#utility.yul\":18430:18432   */\n      0x19\n        /* \"#utility.yul\":18425:18428   */\n      dup4\n        /* \"#utility.yul\":18366:18433   */\n      tag_236\n      jump\t// in\n    tag_444:\n        /* \"#utility.yul\":18359:18433   */\n      swap2\n      pop\n        /* \"#utility.yul\":18442:18535   */\n      tag_445\n        /* \"#utility.yul\":18531:18534   */\n      dup3\n        /* \"#utility.yul\":18442:18535   */\n      tag_251\n      jump\t// in\n    tag_445:\n        /* \"#utility.yul\":18560:18562   */\n      0x20\n        /* \"#utility.yul\":18555:18558   */\n      dup3\n        /* \"#utility.yul\":18551:18563   */\n      add\n        /* \"#utility.yul\":18544:18563   */\n      swap1\n      pop\n        /* \"#utility.yul\":18203:18569   */\n      swap2\n      swap1\n      pop\n      jump\t// out\n        /* \"#utility.yul\":18575:18994   */\n    tag_143:\n        /* \"#utility.yul\":18741:18745   */\n      0x00\n        /* \"#utility.yul\":18779:18781   */\n      0x20\n        /* \"#utility.yul\":18768:18777   */\n      dup3\n        /* \"#utility.yul\":18764:18782   */\n      add\n        /* \"#utility.yul\":18756:18782   */\n      swap1\n      pop\n        /* \"#utility.yul\":18828:18837   */\n      dup2\n        /* \"#utility.yul\":18822:18826   */\n      dup2\n        /* \"#utility.yul\":18818:18838   */\n      sub\n        /* \"#utility.yul\":18814:18815   */\n      0x00\n        /* \"#utility.yul\":18803:18812   */\n      dup4\n        /* \"#utility.yul\":18799:18816   */\n      add\n        /* \"#utility.yul\":18792:18839   */\n      mstore\n        /* \"#utility.yul\":18856:18987   */\n      tag_447\n        /* \"#utility.yul\":18982:18986   */\n      dup2\n        /* \"#utility.yul\":18856:18987   */\n      tag_252\n      jump\t// in\n    tag_447:\n        /* \"#utility.yul\":18848:18987   */\n      swap1\n      pop\n        /* \"#utility.yul\":18575:18994   */\n      swap2\n      swap1\n      pop\n      jump\t// out\n        /* \"#utility.yul\":19000:19143   */\n    tag_253:\n        /* \"#utility.yul\":19057:19062   */\n      0x00\n        /* \"#utility.yul\":19088:19094   */\n      dup2\n        /* \"#utility.yul\":19082:19095   */\n      mload\n        /* \"#utility.yul\":19073:19095   */\n      swap1\n      pop\n        /* \"#utility.yul\":19104:19137   */\n      tag_449\n        /* \"#utility.yul\":19131:19136   */\n      dup2\n        /* \"#utility.yul\":19104:19137   */\n      tag_207\n      jump\t// in\n    tag_449:\n        /* \"#utility.yul\":19000:19143   */\n      swap3\n      swap2\n      pop\n      pop\n      jump\t// out\n        /* \"#utility.yul\":19149:19253   */\n    tag_254:\n        /* \"#utility.yul\":19194:19201   */\n      0x00\n        /* \"#utility.yul\":19223:19247   */\n      tag_451\n        /* \"#utility.yul\":19241:19246   */\n      dup3\n        /* \"#utility.yul\":19223:19247   */\n      tag_211\n      jump\t// in\n    tag_451:\n        /* \"#utility.yul\":19212:19247   */\n      swap1\n      pop\n        /* \"#utility.yul\":19149:19253   */\n      swap2\n      swap1\n      pop\n      jump\t// out\n        /* \"#utility.yul\":19259:19397   */\n    tag_255:\n        /* \"#utility.yul\":19340:19372   */\n      tag_453\n        /* \"#utility.yul\":19366:19371   */\n      dup2\n        /* \"#utility.yul\":19340:19372   */\n      tag_254\n      jump\t// in\n    tag_453:\n        /* \"#utility.yul\":19333:19338   */\n      dup2\n        /* \"#utility.yul\":19330:19373   */\n      eq\n        /* \"#utility.yul\":19320:19391   */\n      tag_454\n      jumpi\n        /* \"#utility.yul\":19387:19388   */\n      0x00\n        /* \"#utility.yul\":19384:19385   */\n      dup1\n        /* \"#utility.yul\":19377:19389   */\n      revert\n        /* \"#utility.yul\":19320:19391   */\n    tag_454:\n        /* \"#utility.yul\":19259:19397   */\n      pop\n      jump\t// out\n        /* \"#utility.yul\":19403:19562   */\n    tag_256:\n        /* \"#utility.yul\":19468:19473   */\n      0x00\n        /* \"#utility.yul\":19499:19505   */\n      dup2\n        /* \"#utility.yul\":19493:19506   */\n      mload\n        /* \"#utility.yul\":19484:19506   */\n      swap1\n      pop\n        /* \"#utility.yul\":19515:19556   */\n      tag_456\n        /* \"#utility.yul\":19550:19555   */\n      dup2\n        /* \"#utility.yul\":19515:19556   */\n      tag_255\n      jump\t// in\n    tag_456:\n        /* \"#utility.yul\":19403:19562   */\n      swap3\n      swap2\n      pop\n      pop\n      jump\t// out\n        /* \"#utility.yul\":19568:20247   */\n    tag_145:\n        /* \"#utility.yul\":19664:19670   */\n      0x00\n        /* \"#utility.yul\":19672:19678   */\n      dup1\n        /* \"#utility.yul\":19680:19686   */\n      0x00\n        /* \"#utility.yul\":19729:19731   */\n      0x60\n        /* \"#utility.yul\":19717:19726   */\n      dup5\n        /* \"#utility.yul\":19708:19715   */\n      dup7\n        /* \"#utility.yul\":19704:19727   */\n      sub\n        /* \"#utility.yul\":19700:19732   */\n      slt\n        /* \"#utility.yul\":19697:19816   */\n      iszero\n      tag_458\n      jumpi\n        /* \"#utility.yul\":19735:19814   */\n      tag_459\n      tag_204\n      jump\t// in\n    tag_459:\n        /* \"#utility.yul\":19697:19816   */\n    tag_458:\n        /* \"#utility.yul\":19855:19856   */\n      0x00\n        /* \"#utility.yul\":19880:19944   */\n      tag_460\n        /* \"#utility.yul\":19936:19943   */\n      dup7\n        /* \"#utility.yul\":19927:19933   */\n      dup3\n        /* \"#utility.yul\":19916:19925   */\n      dup8\n        /* \"#utility.yul\":19912:19934   */\n      add\n        /* \"#utility.yul\":19880:19944   */\n      tag_253\n      jump\t// in\n    tag_460:\n        /* \"#utility.yul\":19870:19944   */\n      swap4\n      pop\n        /* \"#utility.yul\":19826:19954   */\n      pop\n        /* \"#utility.yul\":19993:19995   */\n      0x20\n        /* \"#utility.yul\":20019:20083   */\n      tag_461\n        /* \"#utility.yul\":20075:20082   */\n      dup7\n        /* \"#utility.yul\":20066:20072   */\n      dup3\n        /* \"#utility.yul\":20055:20064   */\n      dup8\n        /* \"#utility.yul\":20051:20073   */\n      add\n        /* \"#utility.yul\":20019:20083   */\n      tag_253\n      jump\t// in\n    tag_461:\n        /* \"#utility.yul\":20009:20083   */\n      swap3\n      pop\n        /* \"#utility.yul\":19964:20093   */\n      pop\n        /* \"#utility.yul\":20132:20134   */\n      0x40\n        /* \"#utility.yul\":20158:20230   */\n      tag_462\n        /* \"#utility.yul\":20222:20229   */\n      dup7\n        /* \"#utility.yul\":20213:20219   */\n      dup3\n        /* \"#utility.yul\":20202:20211   */\n      dup8\n        /* \"#utility.yul\":20198:20220   */\n      add\n        /* \"#utility.yul\":20158:20230   */\n      tag_256\n      jump\t// in\n    tag_462:\n        /* \"#utility.yul\":20148:20230   */\n      swap2\n      pop\n        /* \"#utility.yul\":20103:20240   */\n      pop\n        /* \"#utility.yul\":19568:20247   */\n      swap3\n      pop\n      swap3\n      pop\n      swap3\n      jump\t// out\n        /* \"#utility.yul\":20253:20447   */\n    tag_153:\n        /* \"#utility.yul\":20293:20297   */\n      0x00\n        /* \"#utility.yul\":20313:20333   */\n      tag_464\n        /* \"#utility.yul\":20331:20332   */\n      dup3\n        /* \"#utility.yul\":20313:20333   */\n      tag_201\n      jump\t// in\n    tag_464:\n        /* \"#utility.yul\":20308:20333   */\n      swap2\n      pop\n        /* \"#utility.yul\":20347:20367   */\n      tag_465\n        /* \"#utility.yul\":20365:20366   */\n      dup4\n        /* \"#utility.yul\":20347:20367   */\n      tag_201\n      jump\t// in\n    tag_465:\n        /* \"#utility.yul\":20342:20367   */\n      swap3\n      pop\n        /* \"#utility.yul\":20391:20392   */\n      dup3\n        /* \"#utility.yul\":20388:20389   */\n      dup3\n        /* \"#utility.yul\":20384:20393   */\n      sub\n        /* \"#utility.yul\":20376:20393   */\n      swap1\n      pop\n        /* \"#utility.yul\":20415:20416   */\n      dup2\n        /* \"#utility.yul\":20409:20413   */\n      dup2\n        /* \"#utility.yul\":20406:20417   */\n      gt\n        /* \"#utility.yul\":20403:20440   */\n      iszero\n      tag_466\n      jumpi\n        /* \"#utility.yul\":20420:20438   */\n      tag_467\n      tag_241\n      jump\t// in\n    tag_467:\n        /* \"#utility.yul\":20403:20440   */\n    tag_466:\n        /* \"#utility.yul\":20253:20447   */\n      swap3\n      swap2\n      pop\n      pop\n      jump\t// out\n        /* \"#utility.yul\":20453:20676   */\n    tag_257:\n        /* \"#utility.yul\":20593:20627   */\n      0x506c65617365207265676973746572206265666f72652073656e64696e67206d\n        /* \"#utility.yul\":20589:20590   */\n      0x00\n        /* \"#utility.yul\":20581:20587   */\n      dup3\n        /* \"#utility.yul\":20577:20591   */\n      add\n        /* \"#utility.yul\":20570:20628   */\n      mstore\n        /* \"#utility.yul\":20662:20668   */\n      0x6f6e657900000000000000000000000000000000000000000000000000000000\n        /* \"#utility.yul\":20657:20659   */\n      0x20\n        /* \"#utility.yul\":20649:20655   */\n      dup3\n        /* \"#utility.yul\":20645:20660   */\n      add\n        /* \"#utility.yul\":20638:20669   */\n      mstore\n        /* \"#utility.yul\":20453:20676   */\n      pop\n      jump\t// out\n        /* \"#utility.yul\":20682:21048   */\n    tag_258:\n        /* \"#utility.yul\":20824:20827   */\n      0x00\n        /* \"#utility.yul\":20845:20912   */\n      tag_470\n        /* \"#utility.yul\":20909:20911   */\n      0x24\n        /* \"#utility.yul\":20904:20907   */\n      dup4\n        /* \"#utility.yul\":20845:20912   */\n      tag_236\n      jump\t// in\n    tag_470:\n        /* \"#utility.yul\":20838:20912   */\n      swap2\n      pop\n        /* \"#utility.yul\":20921:21014   */\n      tag_471\n        /* \"#utility.yul\":21010:21013   */\n      dup3\n        /* \"#utility.yul\":20921:21014   */\n      tag_257\n      jump\t// in\n    tag_471:\n        /* \"#utility.yul\":21039:21041   */\n      0x40\n        /* \"#utility.yul\":21034:21037   */\n      dup3\n        /* \"#utility.yul\":21030:21042   */\n      add\n        /* \"#utility.yul\":21023:21042   */\n      swap1\n      pop\n        /* \"#utility.yul\":20682:21048   */\n      swap2\n      swap1\n      pop\n      jump\t// out\n        /* \"#utility.yul\":21054:21473   */\n    tag_181:\n        /* \"#utility.yul\":21220:21224   */\n      0x00\n        /* \"#utility.yul\":21258:21260   */\n      0x20\n        /* \"#utility.yul\":21247:21256   */\n      dup3\n        /* \"#utility.yul\":21243:21261   */\n      add\n        /* \"#utility.yul\":21235:21261   */\n      swap1\n      pop\n        /* \"#utility.yul\":21307:21316   */\n      dup2\n        /* \"#utility.yul\":21301:21305   */\n      dup2\n        /* \"#utility.yul\":21297:21317   */\n      sub\n        /* \"#utility.yul\":21293:21294   */\n      0x00\n        /* \"#utility.yul\":21282:21291   */\n      dup4\n        /* \"#utility.yul\":21278:21295   */\n      add\n        /* \"#utility.yul\":21271:21318   */\n      mstore\n        /* \"#utility.yul\":21335:21466   */\n      tag_473\n        /* \"#utility.yul\":21461:21465   */\n      dup2\n        /* \"#utility.yul\":21335:21466   */\n      tag_258\n      jump\t// in\n    tag_473:\n        /* \"#utility.yul\":21327:21466   */\n      swap1\n      pop\n        /* \"#utility.yul\":21054:21473   */\n      swap2\n      swap1\n      pop\n      jump\t// out\n        /* \"#utility.yul\":21479:21659   */\n    tag_259:\n        /* \"#utility.yul\":21619:21651   */\n      0x416d6f756e742073656e74206c657373207468616e2072657175697265640000\n        /* \"#utility.yul\":21615:21616   */\n      0x00\n        /* \"#utility.yul\":21607:21613   */\n      dup3\n        /* \"#utility.yul\":21603:21617   */\n      add\n        /* \"#utility.yul\":21596:21652   */\n      mstore\n        /* \"#utility.yul\":21479:21659   */\n      pop\n      jump\t// out\n        /* \"#utility.yul\":21665:22031   */\n    tag_260:\n        /* \"#utility.yul\":21807:21810   */\n      0x00\n        /* \"#utility.yul\":21828:21895   */\n      tag_476\n        /* \"#utility.yul\":21892:21894   */\n      0x1e\n        /* \"#utility.yul\":21887:21890   */\n      dup4\n        /* \"#utility.yul\":21828:21895   */\n      tag_236\n      jump\t// in\n    tag_476:\n        /* \"#utility.yul\":21821:21895   */\n      swap2\n      pop\n        /* \"#utility.yul\":21904:21997   */\n      tag_477\n        /* \"#utility.yul\":21993:21996   */\n      dup3\n        /* \"#utility.yul\":21904:21997   */\n      tag_259\n      jump\t// in\n    tag_477:\n        /* \"#utility.yul\":22022:22024   */\n      0x20\n        /* \"#utility.yul\":22017:22020   */\n      dup3\n        /* \"#utility.yul\":22013:22025   */\n      add\n        /* \"#utility.yul\":22006:22025   */\n      swap1\n      pop\n        /* \"#utility.yul\":21665:22031   */\n      swap2\n      swap1\n      pop\n      jump\t// out\n        /* \"#utility.yul\":22037:22456   */\n    tag_185:\n        /* \"#utility.yul\":22203:22207   */\n      0x00\n        /* \"#utility.yul\":22241:22243   */\n      0x20\n        /* \"#utility.yul\":22230:22239   */\n      dup3\n        /* \"#utility.yul\":22226:22244   */\n      add\n        /* \"#utility.yul\":22218:22244   */\n      swap1\n      pop\n        /* \"#utility.yul\":22290:22299   */\n      dup2\n        /* \"#utility.yul\":22284:22288   */\n      dup2\n        /* \"#utility.yul\":22280:22300   */\n      sub\n        /* \"#utility.yul\":22276:22277   */\n      0x00\n        /* \"#utility.yul\":22265:22274   */\n      dup4\n        /* \"#utility.yul\":22261:22278   */\n      add\n        /* \"#utility.yul\":22254:22301   */\n      mstore\n        /* \"#utility.yul\":22318:22449   */\n      tag_479\n        /* \"#utility.yul\":22444:22448   */\n      dup2\n        /* \"#utility.yul\":22318:22449   */\n      tag_260\n      jump\t// in\n    tag_479:\n        /* \"#utility.yul\":22310:22449   */\n      swap1\n      pop\n        /* \"#utility.yul\":22037:22456   */\n      swap2\n      swap1\n      pop\n      jump\t// out\n        /* \"#utility.yul\":22462:22628   */\n    tag_261:\n        /* \"#utility.yul\":22602:22620   */\n      0x696e76616c696420757365726e616d6500000000000000000000000000000000\n        /* \"#utility.yul\":22598:22599   */\n      0x00\n        /* \"#utility.yul\":22590:22596   */\n      dup3\n        /* \"#utility.yul\":22586:22600   */\n      add\n        /* \"#utility.yul\":22579:22621   */\n      mstore\n        /* \"#utility.yul\":22462:22628   */\n      pop\n      jump\t// out\n        /* \"#utility.yul\":22634:23000   */\n    tag_262:\n        /* \"#utility.yul\":22776:22779   */\n      0x00\n        /* \"#utility.yul\":22797:22864   */\n      tag_482\n        /* \"#utility.yul\":22861:22863   */\n      0x10\n        /* \"#utility.yul\":22856:22859   */\n      dup4\n        /* \"#utility.yul\":22797:22864   */\n      tag_236\n      jump\t// in\n    tag_482:\n        /* \"#utility.yul\":22790:22864   */\n      swap2\n      pop\n        /* \"#utility.yul\":22873:22966   */\n      tag_483\n        /* \"#utility.yul\":22962:22965   */\n      dup3\n        /* \"#utility.yul\":22873:22966   */\n      tag_261\n      jump\t// in\n    tag_483:\n        /* \"#utility.yul\":22991:22993   */\n      0x20\n        /* \"#utility.yul\":22986:22989   */\n      dup3\n        /* \"#utility.yul\":22982:22994   */\n      add\n        /* \"#utility.yul\":22975:22994   */\n      swap1\n      pop\n        /* \"#utility.yul\":22634:23000   */\n      swap2\n      swap1\n      pop\n      jump\t// out\n        /* \"#utility.yul\":23006:23425   */\n    tag_188:\n        /* \"#utility.yul\":23172:23176   */\n      0x00\n        /* \"#utility.yul\":23210:23212   */\n      0x20\n        /* \"#utility.yul\":23199:23208   */\n      dup3\n        /* \"#utility.yul\":23195:23213   */\n      add\n        /* \"#utility.yul\":23187:23213   */\n      swap1\n      pop\n        /* \"#utility.yul\":23259:23268   */\n      dup2\n        /* \"#utility.yul\":23253:23257   */\n      dup2\n        /* \"#utility.yul\":23249:23269   */\n      sub\n        /* \"#utility.yul\":23245:23246   */\n      0x00\n        /* \"#utility.yul\":23234:23243   */\n      dup4\n        /* \"#utility.yul\":23230:23247   */\n      add\n        /* \"#utility.yul\":23223:23270   */\n      mstore\n        /* \"#utility.yul\":23287:23418   */\n      tag_485\n        /* \"#utility.yul\":23413:23417   */\n      dup2\n        /* \"#utility.yul\":23287:23418   */\n      tag_262\n      jump\t// in\n    tag_485:\n        /* \"#utility.yul\":23279:23418   */\n      swap1\n      pop\n        /* \"#utility.yul\":23006:23425   */\n      swap2\n      swap1\n      pop\n      jump\t// out\n        /* \"#utility.yul\":23431:23873   */\n    tag_191:\n        /* \"#utility.yul\":23580:23584   */\n      0x00\n        /* \"#utility.yul\":23618:23620   */\n      0x60\n        /* \"#utility.yul\":23607:23616   */\n      dup3\n        /* \"#utility.yul\":23603:23621   */\n      add\n        /* \"#utility.yul\":23595:23621   */\n      swap1\n      pop\n        /* \"#utility.yul\":23631:23702   */\n      tag_487\n        /* \"#utility.yul\":23699:23700   */\n      0x00\n        /* \"#utility.yul\":23688:23697   */\n      dup4\n        /* \"#utility.yul\":23684:23701   */\n      add\n        /* \"#utility.yul\":23675:23681   */\n      dup7\n        /* \"#utility.yul\":23631:23702   */\n      tag_235\n      jump\t// in\n    tag_487:\n        /* \"#utility.yul\":23712:23784   */\n      tag_488\n        /* \"#utility.yul\":23780:23782   */\n      0x20\n        /* \"#utility.yul\":23769:23778   */\n      dup4\n        /* \"#utility.yul\":23765:23783   */\n      add\n        /* \"#utility.yul\":23756:23762   */\n      dup6\n        /* \"#utility.yul\":23712:23784   */\n      tag_235\n      jump\t// in\n    tag_488:\n        /* \"#utility.yul\":23794:23866   */\n      tag_489\n        /* \"#utility.yul\":23862:23864   */\n      0x40\n        /* \"#utility.yul\":23851:23860   */\n      dup4\n        /* \"#utility.yul\":23847:23865   */\n      add\n        /* \"#utility.yul\":23838:23844   */\n      dup5\n        /* \"#utility.yul\":23794:23866   */\n      tag_202\n      jump\t// in\n    tag_489:\n        /* \"#utility.yul\":23431:23873   */\n      swap5\n      swap4\n      pop\n      pop\n      pop\n      pop\n      jump\t// out\n        /* \"#utility.yul\":23879:24022   */\n    tag_263:\n        /* \"#utility.yul\":23936:23941   */\n      0x00\n        /* \"#utility.yul\":23967:23973   */\n      dup2\n        /* \"#utility.yul\":23961:23974   */\n      mload\n        /* \"#utility.yul\":23952:23974   */\n      swap1\n      pop\n        /* \"#utility.yul\":23983:24016   */\n      tag_491\n        /* \"#utility.yul\":24010:24015   */\n      dup2\n        /* \"#utility.yul\":23983:24016   */\n      tag_231\n      jump\t// in\n    tag_491:\n        /* \"#utility.yul\":23879:24022   */\n      swap3\n      swap2\n      pop\n      pop\n      jump\t// out\n        /* \"#utility.yul\":24028:24707   */\n    tag_195:\n        /* \"#utility.yul\":24124:24130   */\n      0x00\n        /* \"#utility.yul\":24132:24138   */\n      dup1\n        /* \"#utility.yul\":24140:24146   */\n      0x00\n        /* \"#utility.yul\":24189:24191   */\n      0x60\n        /* \"#utility.yul\":24177:24186   */\n      dup5\n        /* \"#utility.yul\":24168:24175   */\n      dup7\n        /* \"#utility.yul\":24164:24187   */\n      sub\n        /* \"#utility.yul\":24160:24192   */\n      slt\n        /* \"#utility.yul\":24157:24276   */\n      iszero\n      tag_493\n      jumpi\n        /* \"#utility.yul\":24195:24274   */\n      tag_494\n      tag_204\n      jump\t// in\n    tag_494:\n        /* \"#utility.yul\":24157:24276   */\n    tag_493:\n        /* \"#utility.yul\":24315:24316   */\n      0x00\n        /* \"#utility.yul\":24340:24412   */\n      tag_495\n        /* \"#utility.yul\":24404:24411   */\n      dup7\n        /* \"#utility.yul\":24395:24401   */\n      dup3\n        /* \"#utility.yul\":24384:24393   */\n      dup8\n        /* \"#utility.yul\":24380:24402   */\n      add\n        /* \"#utility.yul\":24340:24412   */\n      tag_256\n      jump\t// in\n    tag_495:\n        /* \"#utility.yul\":24330:24412   */\n      swap4\n      pop\n        /* \"#utility.yul\":24286:24422   */\n      pop\n        /* \"#utility.yul\":24461:24463   */\n      0x20\n        /* \"#utility.yul\":24487:24551   */\n      tag_496\n        /* \"#utility.yul\":24543:24550   */\n      dup7\n        /* \"#utility.yul\":24534:24540   */\n      dup3\n        /* \"#utility.yul\":24523:24532   */\n      dup8\n        /* \"#utility.yul\":24519:24541   */\n      add\n        /* \"#utility.yul\":24487:24551   */\n      tag_253\n      jump\t// in\n    tag_496:\n        /* \"#utility.yul\":24477:24551   */\n      swap3\n      pop\n        /* \"#utility.yul\":24432:24561   */\n      pop\n        /* \"#utility.yul\":24600:24602   */\n      0x40\n        /* \"#utility.yul\":24626:24690   */\n      tag_497\n        /* \"#utility.yul\":24682:24689   */\n      dup7\n        /* \"#utility.yul\":24673:24679   */\n      dup3\n        /* \"#utility.yul\":24662:24671   */\n      dup8\n        /* \"#utility.yul\":24658:24680   */\n      add\n        /* \"#utility.yul\":24626:24690   */\n      tag_263\n      jump\t// in\n    tag_497:\n        /* \"#utility.yul\":24616:24690   */\n      swap2\n      pop\n        /* \"#utility.yul\":24571:24700   */\n      pop\n        /* \"#utility.yul\":24028:24707   */\n      swap3\n      pop\n      swap3\n      pop\n      swap3\n      jump\t// out\n\n    auxdata: 0xa26469706673582212200a0ad0b44a846b9595dc00d849ff62f233ba756d590dd241165f640522c46ab764736f6c63430008120033\n}\n",
				"bytecode": {
					"linkReferences": {},
					"object": "60806040523480156200001157600080fd5b506040516200232b3803806200232b833981810160405281019062000037919062000183565b33600260006101000a81548173ffffffffffffffffffffffffffffffffffffffff021916908373ffffffffffffffffffffffffffffffffffffffff16021790555081600360006101000a81548173ffffffffffffffffffffffffffffffffffffffff021916908373ffffffffffffffffffffffffffffffffffffffff160217905550600080819055506000600581905550600060068190555080600160006101000a81548173ffffffffffffffffffffffffffffffffffffffff021916908373ffffffffffffffffffffffffffffffffffffffff1602179055505050620001ca565b600080fd5b600073ffffffffffffffffffffffffffffffffffffffff82169050919050565b60006200014b826200011e565b9050919050565b6200015d816200013e565b81146200016957600080fd5b50565b6000815190506200017d8162000152565b92915050565b600080604083850312156200019d576200019c62000119565b5b6000620001ad858286016200016c565b9250506020620001c0858286016200016c565b9150509250929050565b61215180620001da6000396000f3fe6080604052600436106101095760003560e01c80636e9960c311610095578063b602bc7911610064578063b602bc7914610318578063ccdde8d014610355578063d84f55ee1461037e578063e07ee04c146103bb578063f23e8dca146103e657610109565b80636e9960c31461027f5780638f283970146102aa57806394924873146102d3578063b45f9b82146102fc57610109565b8063476343ee116100dc578063476343ee146101bd5780634a4e8884146101d4578063529dca3214610211578063548769211461022d5780636b030b381461025657610109565b80630edf110c1461010e578063180f6cc2146101395780632f92673214610176578063443a193714610192575b600080fd5b34801561011a57600080fd5b50610123610423565b60405161013091906114ee565b60405180910390f35b34801561014557600080fd5b50610160600480360381019061015b9190611553565b61042d565b60405161016d919061159b565b60405180910390f35b610190600480360381019061018b91906115b6565b61044d565b005b34801561019e57600080fd5b506101a761064e565b6040516101b491906114ee565b60405180910390f35b3480156101c957600080fd5b506101d2610740565b005b3480156101e057600080fd5b506101fb60048036038101906101f69190611553565b6108e3565b6040516102089190611637565b60405180910390f35b61022b600480360381019061022691906118b8565b610923565b005b34801561023957600080fd5b50610254600480360381019061024f9190611997565b610c21565b005b34801561026257600080fd5b5061027d60048036038101906102789190611997565b610e1a565b005b34801561028b57600080fd5b50610294610f0c565b6040516102a19190611637565b60405180910390f35b3480156102b657600080fd5b506102d160048036038101906102cc91906119f0565b610f36565b005b3480156102df57600080fd5b506102fa60048036038101906102f59190611997565b611062565b005b61031660048036038101906103119190611a1d565b611154565b005b34801561032457600080fd5b5061033f600480360381019061033a9190611553565b61136e565b60405161034c9190611a6c565b60405180910390f35b34801561036157600080fd5b5061037c60048036038101906103779190611a87565b61138e565b005b34801561038a57600080fd5b506103a560048036038101906103a091906119f0565b611465565b6040516103b29190611a6c565b60405180910390f35b3480156103c757600080fd5b506103d06114ae565b6040516103dd91906114ee565b60405180910390f35b3480156103f257600080fd5b5061040d60048036038101906104089190611553565b6114b8565b60405161041a91906114ee565b60405180910390f35b6000600554905090565b600a6020528060005260406000206000915054906101000a900460ff1681565b600654341015610492576040517f08c379a000000000000000000000000000000000000000000000000000000000815260040161048990611b53565b60405180910390fd5b600073ffffffffffffffffffffffffffffffffffffffff166007600084815260200190815260200160002060000160009054906101000a900473ffffffffffffffffffffffffffffffffffffffff1673ffffffffffffffffffffffffffffffffffffffff1614610537576040517f08c379a000000000000000000000000000000000000000000000000000000000815260040161052e90611bbf565b60405180910390fd5b346000546105459190611c0e565b60008190555060405180606001604052803373ffffffffffffffffffffffffffffffffffffffff168152602001838152602001828152506007600084815260200190815260200160002060008201518160000160006101000a81548173ffffffffffffffffffffffffffffffffffffffff021916908373ffffffffffffffffffffffffffffffffffffffff160217905550602082015181600101556040820151816002015590505081600860003373ffffffffffffffffffffffffffffffffffffffff1673ffffffffffffffffffffffffffffffffffffffff16815260200190815260200160002081905550600060096000848152602001908152602001600020819055505050565b6000600260009054906101000a900473ffffffffffffffffffffffffffffffffffffffff1673ffffffffffffffffffffffffffffffffffffffff163373ffffffffffffffffffffffffffffffffffffffff1614806106f95750600360009054906101000a900473ffffffffffffffffffffffffffffffffffffffff1673ffffffffffffffffffffffffffffffffffffffff163373ffffffffffffffffffffffffffffffffffffffff16145b610738576040517f08c379a000000000000000000000000000000000000000000000000000000000815260040161072f90611c8e565b60405180910390fd5b600054905090565b600260009054906101000a900473ffffffffffffffffffffffffffffffffffffffff1673ffffffffffffffffffffffffffffffffffffffff163373ffffffffffffffffffffffffffffffffffffffff1614806107e95750600360009054906101000a900473ffffffffffffffffffffffffffffffffffffffff1673ffffffffffffffffffffffffffffffffffffffff163373ffffffffffffffffffffffffffffffffffffffff16145b610828576040517f08c379a000000000000000000000000000000000000000000000000000000000815260040161081f90611c8e565b60405180910390fd5b6000803373ffffffffffffffffffffffffffffffffffffffff1660005460405161085190611cdf565b60006040518083038185875af1925050503d806000811461088e576040519150601f19603f3d011682016040523d82523d6000602084013e610893565b606091505b509150915060008081905550816108df576040517f08c379a00000000000000000000000000000000000000000000000000000000081526004016108d690611d40565b60405180910390fd5b5050565b60006007600083815260200190815260200160002060000160009054906101000a900473ffffffffffffffffffffffffffffffffffffffff169050919050565b600160009054906101000a900473ffffffffffffffffffffffffffffffffffffffff1673ffffffffffffffffffffffffffffffffffffffff163373ffffffffffffffffffffffffffffffffffffffff16146109b3576040517f08c379a00000000000000000000000000000000000000000000000000000000081526004016109aa90611dac565b60405180910390fd5b600a600082815260200190815260200160002060009054906101000a900460ff1615610a14576040517f08c379a0000000000000000000000000000000000000000000000000000000008152600401610a0b90611e18565b60405180910390fd5b6001600a600083815260200190815260200160002060006101000a81548160ff021916908315150217905550600080600087806020019051810190610a599190611e8b565b925092509250600073ffffffffffffffffffffffffffffffffffffffff166007600085815260200190815260200160002060000160009054906101000a900473ffffffffffffffffffffffffffffffffffffffff1673ffffffffffffffffffffffffffffffffffffffff1614610b04576040517f08c379a0000000000000000000000000000000000000000000000000000000008152600401610afb90611bbf565b60405180910390fd5b34600054610b129190611c0e565b60008190555060405180606001604052808273ffffffffffffffffffffffffffffffffffffffff168152602001848152602001838152506007600085815260200190815260200160002060008201518160000160006101000a81548173ffffffffffffffffffffffffffffffffffffffff021916908373ffffffffffffffffffffffffffffffffffffffff160217905550602082015181600101556040820151816002015590505082600860008373ffffffffffffffffffffffffffffffffffffffff1673ffffffffffffffffffffffffffffffffffffffff16815260200190815260200160002081905550600060096000858152602001908152602001600020819055505050505050505050565b60055481610c2f9190611c0e565b60096000600860003373ffffffffffffffffffffffffffffffffffffffff1673ffffffffffffffffffffffffffffffffffffffff1681526020019081526020016000205481526020019081526020016000205411610c8c57600080fd5b6005548160096000600860003373ffffffffffffffffffffffffffffffffffffffff1673ffffffffffffffffffffffffffffffffffffffff16815260200190815260200160002054815260200190815260200160002054610ced9190611ede565b610cf79190611ede565b60096000600860003373ffffffffffffffffffffffffffffffffffffffff1673ffffffffffffffffffffffffffffffffffffffff16815260200190815260200160002054815260200190815260200160002081905550600554600080828254610d609190611c0e565b925050819055506000803373ffffffffffffffffffffffffffffffffffffffff1683604051610d8e90611cdf565b60006040518083038185875af1925050503d8060008114610dcb576040519150601f19603f3d011682016040523d82523d6000602084013e610dd0565b606091505b509150915081610e15576040517f08c379a0000000000000000000000000000000000000000000000000000000008152600401610e0c90611d40565b60405180910390fd5b505050565b600260009054906101000a900473ffffffffffffffffffffffffffffffffffffffff1673ffffffffffffffffffffffffffffffffffffffff163373ffffffffffffffffffffffffffffffffffffffff161480610ec35750600360009054906101000a900473ffffffffffffffffffffffffffffffffffffffff1673ffffffffffffffffffffffffffffffffffffffff163373ffffffffffffffffffffffffffffffffffffffff16145b610f02576040517f08c379a0000000000000000000000000000000000000000000000000000000008152600401610ef990611c8e565b60405180910390fd5b8060068190555050565b6000600360009054906101000a900473ffffffffffffffffffffffffffffffffffffffff16905090565b600260009054906101000a900473ffffffffffffffffffffffffffffffffffffffff1673ffffffffffffffffffffffffffffffffffffffff163373ffffffffffffffffffffffffffffffffffffffff161480610fdf5750600360009054906101000a900473ffffffffffffffffffffffffffffffffffffffff1673ffffffffffffffffffffffffffffffffffffffff163373ffffffffffffffffffffffffffffffffffffffff16145b61101e576040517f08c379a000000000000000000000000000000000000000000000000000000000815260040161101590611c8e565b60405180910390fd5b80600360006101000a81548173ffffffffffffffffffffffffffffffffffffffff021916908373ffffffffffffffffffffffffffffffffffffffff16021790555050565b600260009054906101000a900473ffffffffffffffffffffffffffffffffffffffff1673ffffffffffffffffffffffffffffffffffffffff163373ffffffffffffffffffffffffffffffffffffffff16148061110b5750600360009054906101000a900473ffffffffffffffffffffffffffffffffffffffff1673ffffffffffffffffffffffffffffffffffffffff163373ffffffffffffffffffffffffffffffffffffffff16145b61114a576040517f08c379a000000000000000000000000000000000000000000000000000000000815260040161114190611c8e565b60405180910390fd5b8060058190555050565b6000801b600860003373ffffffffffffffffffffffffffffffffffffffff1673ffffffffffffffffffffffffffffffffffffffff16815260200190815260200160002054116111d8576040517f08c379a00000000000000000000000000000000000000000000000000000000081526004016111cf90611f84565b60405180910390fd5b8034101561121b576040517f08c379a000000000000000000000000000000000000000000000000000000000815260040161121290611ff0565b60405180910390fd5b600073ffffffffffffffffffffffffffffffffffffffff166007600084815260200190815260200160002060000160009054906101000a900473ffffffffffffffffffffffffffffffffffffffff1673ffffffffffffffffffffffffffffffffffffffff16036112c0576040517f08c379a00000000000000000000000000000000000000000000000000000000081526004016112b79061205c565b60405180910390fd5b806009600084815260200190815260200160002060008282546112e39190611c0e565b925050819055506000600860003373ffffffffffffffffffffffffffffffffffffffff1673ffffffffffffffffffffffffffffffffffffffff1681526020019081526020016000205490507fc523bcf6216203e46e799244596f69646e16c9a6108c4796bfc941f058accefc8184846040516113619392919061207c565b60405180910390a1505050565b600060076000838152602001908152602001600020600201549050919050565b6000806000838060200190518101906113a791906120c8565b809350819450829550505050846009600084815260200190815260200160002060008282546113d69190611c0e565b925050819055506000600860008573ffffffffffffffffffffffffffffffffffffffff1673ffffffffffffffffffffffffffffffffffffffff1681526020019081526020016000205490507fc523bcf6216203e46e799244596f69646e16c9a6108c4796bfc941f058accefc8184886040516114549392919061207c565b60405180910390a150505050505050565b6000600860008373ffffffffffffffffffffffffffffffffffffffff1673ffffffffffffffffffffffffffffffffffffffff168152602001908152602001600020549050919050565b6000600654905090565b600060096000838152602001908152602001600020549050919050565b6000819050919050565b6114e8816114d5565b82525050565b600060208201905061150360008301846114df565b92915050565b6000604051905090565b600080fd5b600080fd5b6000819050919050565b6115308161151d565b811461153b57600080fd5b50565b60008135905061154d81611527565b92915050565b60006020828403121561156957611568611513565b5b60006115778482850161153e565b91505092915050565b60008115159050919050565b61159581611580565b82525050565b60006020820190506115b0600083018461158c565b92915050565b600080604083850312156115cd576115cc611513565b5b60006115db8582860161153e565b92505060206115ec8582860161153e565b9150509250929050565b600073ffffffffffffffffffffffffffffffffffffffff82169050919050565b6000611621826115f6565b9050919050565b61163181611616565b82525050565b600060208201905061164c6000830184611628565b92915050565b600080fd5b600080fd5b6000601f19601f8301169050919050565b7f4e487b7100000000000000000000000000000000000000000000000000000000600052604160045260246000fd5b6116a58261165c565b810181811067ffffffffffffffff821117156116c4576116c361166d565b5b80604052505050565b60006116d7611509565b90506116e3828261169c565b919050565b600067ffffffffffffffff8211156117035761170261166d565b5b61170c8261165c565b9050602081019050919050565b82818337600083830152505050565b600061173b611736846116e8565b6116cd565b90508281526020810184848401111561175757611756611657565b5b611762848285611719565b509392505050565b600082601f83011261177f5761177e611652565b5b813561178f848260208601611728565b91505092915050565b600067ffffffffffffffff8211156117b3576117b261166d565b5b602082029050602081019050919050565b600080fd5b60006117dc6117d784611798565b6116cd565b905080838252602082019050602084028301858111156117ff576117fe6117c4565b5b835b8181101561184657803567ffffffffffffffff81111561182457611823611652565b5b808601611831898261176a565b85526020850194505050602081019050611801565b5050509392505050565b600082601f83011261186557611864611652565b5b81356118758482602086016117c9565b91505092915050565b600061ffff82169050919050565b6118958161187e565b81146118a057600080fd5b50565b6000813590506118b28161188c565b92915050565b600080600080600060a086880312156118d4576118d3611513565b5b600086013567ffffffffffffffff8111156118f2576118f1611518565b5b6118fe8882890161176a565b955050602086013567ffffffffffffffff81111561191f5761191e611518565b5b61192b88828901611850565b945050604061193c8882890161153e565b935050606061194d888289016118a3565b925050608061195e8882890161153e565b9150509295509295909350565b611974816114d5565b811461197f57600080fd5b50565b6000813590506119918161196b565b92915050565b6000602082840312156119ad576119ac611513565b5b60006119bb84828501611982565b91505092915050565b6119cd81611616565b81146119d857600080fd5b50565b6000813590506119ea816119c4565b92915050565b600060208284031215611a0657611a05611513565b5b6000611a14848285016119db565b91505092915050565b60008060408385031215611a3457611a33611513565b5b6000611a428582860161153e565b9250506020611a5385828601611982565b9150509250929050565b611a668161151d565b82525050565b6000602082019050611a816000830184611a5d565b92915050565b600080600060608486031215611aa057611a9f611513565b5b6000611aae868287016119db565b9350506020611abf86828701611982565b925050604084013567ffffffffffffffff811115611ae057611adf611518565b5b611aec8682870161176a565b9150509250925092565b600082825260208201905092915050565b7f6e65656420746f20706179206665657320746f20726567697374657200000000600082015250565b6000611b3d601c83611af6565b9150611b4882611b07565b602082019050919050565b60006020820190508181036000830152611b6c81611b30565b9050919050565b7f416c7265616479207265676973746572656420757365726e616d650000000000600082015250565b6000611ba9601b83611af6565b9150611bb482611b73565b602082019050919050565b60006020820190508181036000830152611bd881611b9c565b9050919050565b7f4e487b7100000000000000000000000000000000000000000000000000000000600052601160045260246000fd5b6000611c19826114d5565b9150611c24836114d5565b9250828201905080821115611c3c57611c3b611bdf565b5b92915050565b7f43616c6c6572206973206e6f74206f776e657200000000000000000000000000600082015250565b6000611c78601383611af6565b9150611c8382611c42565b602082019050919050565b60006020820190508181036000830152611ca781611c6b565b9050919050565b600081905092915050565b50565b6000611cc9600083611cae565b9150611cd482611cb9565b600082019050919050565b6000611cea82611cbc565b9150819050919050565b7f4661696c656420746f2073656e64204574686572000000000000000000000000600082015250565b6000611d2a601483611af6565b9150611d3582611cf4565b602082019050919050565b60006020820190508181036000830152611d5981611d1d565b9050919050565b7f4f6e6c792072656c6179657220616c6c6f776564000000000000000000000000600082015250565b6000611d96601483611af6565b9150611da182611d60565b602082019050919050565b60006020820190508181036000830152611dc581611d89565b9050919050565b7f4d65737361676520616c72656164792070726f63657373656400000000000000600082015250565b6000611e02601983611af6565b9150611e0d82611dcc565b602082019050919050565b60006020820190508181036000830152611e3181611df5565b9050919050565b600081519050611e4781611527565b92915050565b6000611e58826115f6565b9050919050565b611e6881611e4d565b8114611e7357600080fd5b50565b600081519050611e8581611e5f565b92915050565b600080600060608486031215611ea457611ea3611513565b5b6000611eb286828701611e38565b9350506020611ec386828701611e38565b9250506040611ed486828701611e76565b9150509250925092565b6000611ee9826114d5565b9150611ef4836114d5565b9250828203905081811115611f0c57611f0b611bdf565b5b92915050565b7f506c65617365207265676973746572206265666f72652073656e64696e67206d60008201527f6f6e657900000000000000000000000000000000000000000000000000000000602082015250565b6000611f6e602483611af6565b9150611f7982611f12565b604082019050919050565b60006020820190508181036000830152611f9d81611f61565b9050919050565b7f416d6f756e742073656e74206c657373207468616e2072657175697265640000600082015250565b6000611fda601e83611af6565b9150611fe582611fa4565b602082019050919050565b6000602082019050818103600083015261200981611fcd565b9050919050565b7f696e76616c696420757365726e616d6500000000000000000000000000000000600082015250565b6000612046601083611af6565b915061205182612010565b602082019050919050565b6000602082019050818103600083015261207581612039565b9050919050565b60006060820190506120916000830186611a5d565b61209e6020830185611a5d565b6120ab60408301846114df565b949350505050565b6000815190506120c28161196b565b92915050565b6000806000606084860312156120e1576120e0611513565b5b60006120ef86828701611e76565b935050602061210086828701611e38565b9250506040612111868287016120b3565b915050925092509256fea26469706673582212200a0ad0b44a846b9595dc00d849ff62f233ba756d590dd241165f640522c46ab764736f6c63430008120033",
					"opcodes": "PUSH1 0x80 PUSH1 0x40 MSTORE CALLVALUE DUP1 ISZERO PUSH3 0x11 JUMPI PUSH1 0x0 DUP1 REVERT JUMPDEST POP PUSH1 0x40 MLOAD PUSH3 0x232B CODESIZE SUB DUP1 PUSH3 0x232B DUP4 CODECOPY DUP2 DUP2 ADD PUSH1 0x40 MSTORE DUP2 ADD SWAP1 PUSH3 0x37 SWAP2 SWAP1 PUSH3 0x183 JUMP JUMPDEST CALLER PUSH1 0x2 PUSH1 0x0 PUSH2 0x100 EXP DUP2 SLOAD DUP2 PUSH20 0xFFFFFFFFFFFFFFFFFFFFFFFFFFFFFFFFFFFFFFFF MUL NOT AND SWAP1 DUP4 PUSH20 0xFFFFFFFFFFFFFFFFFFFFFFFFFFFFFFFFFFFFFFFF AND MUL OR SWAP1 SSTORE POP DUP2 PUSH1 0x3 PUSH1 0x0 PUSH2 0x100 EXP DUP2 SLOAD DUP2 PUSH20 0xFFFFFFFFFFFFFFFFFFFFFFFFFFFFFFFFFFFFFFFF MUL NOT AND SWAP1 DUP4 PUSH20 0xFFFFFFFFFFFFFFFFFFFFFFFFFFFFFFFFFFFFFFFF AND MUL OR SWAP1 SSTORE POP PUSH1 0x0 DUP1 DUP2 SWAP1 SSTORE POP PUSH1 0x0 PUSH1 0x5 DUP2 SWAP1 SSTORE POP PUSH1 0x0 PUSH1 0x6 DUP2 SWAP1 SSTORE POP DUP1 PUSH1 0x1 PUSH1 0x0 PUSH2 0x100 EXP DUP2 SLOAD DUP2 PUSH20 0xFFFFFFFFFFFFFFFFFFFFFFFFFFFFFFFFFFFFFFFF MUL NOT AND SWAP1 DUP4 PUSH20 0xFFFFFFFFFFFFFFFFFFFFFFFFFFFFFFFFFFFFFFFF AND MUL OR SWAP1 SSTORE POP POP POP PUSH3 0x1CA JUMP JUMPDEST PUSH1 0x0 DUP1 REVERT JUMPDEST PUSH1 0x0 PUSH20 0xFFFFFFFFFFFFFFFFFFFFFFFFFFFFFFFFFFFFFFFF DUP3 AND SWAP1 POP SWAP2 SWAP1 POP JUMP JUMPDEST PUSH1 0x0 PUSH3 0x14B DUP3 PUSH3 0x11E JUMP JUMPDEST SWAP1 POP SWAP2 SWAP1 POP JUMP JUMPDEST PUSH3 0x15D DUP2 PUSH3 0x13E JUMP JUMPDEST DUP2 EQ PUSH3 0x169 JUMPI PUSH1 0x0 DUP1 REVERT JUMPDEST POP JUMP JUMPDEST PUSH1 0x0 DUP2 MLOAD SWAP1 POP PUSH3 0x17D DUP2 PUSH3 0x152 JUMP JUMPDEST SWAP3 SWAP2 POP POP JUMP JUMPDEST PUSH1 0x0 DUP1 PUSH1 0x40 DUP4 DUP6 SUB SLT ISZERO PUSH3 0x19D JUMPI PUSH3 0x19C PUSH3 0x119 JUMP JUMPDEST JUMPDEST PUSH1 0x0 PUSH3 0x1AD DUP6 DUP3 DUP7 ADD PUSH3 0x16C JUMP JUMPDEST SWAP3 POP POP PUSH1 0x20 PUSH3 0x1C0 DUP6 DUP3 DUP7 ADD PUSH3 0x16C JUMP JUMPDEST SWAP2 POP POP SWAP3 POP SWAP3 SWAP1 POP JUMP JUMPDEST PUSH2 0x2151 DUP1 PUSH3 0x1DA PUSH1 0x0 CODECOPY PUSH1 0x0 RETURN INVALID PUSH1 0x80 PUSH1 0x40 MSTORE PUSH1 0x4 CALLDATASIZE LT PUSH2 0x109 JUMPI PUSH1 0x0 CALLDATALOAD PUSH1 0xE0 SHR DUP1 PUSH4 0x6E9960C3 GT PUSH2 0x95 JUMPI DUP1 PUSH4 0xB602BC79 GT PUSH2 0x64 JUMPI DUP1 PUSH4 0xB602BC79 EQ PUSH2 0x318 JUMPI DUP1 PUSH4 0xCCDDE8D0 EQ PUSH2 0x355 JUMPI DUP1 PUSH4 0xD84F55EE EQ PUSH2 0x37E JUMPI DUP1 PUSH4 0xE07EE04C EQ PUSH2 0x3BB JUMPI DUP1 PUSH4 0xF23E8DCA EQ PUSH2 0x3E6 JUMPI PUSH2 0x109 JUMP JUMPDEST DUP1 PUSH4 0x6E9960C3 EQ PUSH2 0x27F JUMPI DUP1 PUSH4 0x8F283970 EQ PUSH2 0x2AA JUMPI DUP1 PUSH4 0x94924873 EQ PUSH2 0x2D3 JUMPI DUP1 PUSH4 0xB45F9B82 EQ PUSH2 0x2FC JUMPI PUSH2 0x109 JUMP JUMPDEST DUP1 PUSH4 0x476343EE GT PUSH2 0xDC JUMPI DUP1 PUSH4 0x476343EE EQ PUSH2 0x1BD JUMPI DUP1 PUSH4 0x4A4E8884 EQ PUSH2 0x1D4 JUMPI DUP1 PUSH4 0x529DCA32 EQ PUSH2 0x211 JUMPI DUP1 PUSH4 0x54876921 EQ PUSH2 0x22D JUMPI DUP1 PUSH4 0x6B030B38 EQ PUSH2 0x256 JUMPI PUSH2 0x109 JUMP JUMPDEST DUP1 PUSH4 0xEDF110C EQ PUSH2 0x10E JUMPI DUP1 PUSH4 0x180F6CC2 EQ PUSH2 0x139 JUMPI DUP1 PUSH4 0x2F926732 EQ PUSH2 0x176 JUMPI DUP1 PUSH4 0x443A1937 EQ PUSH2 0x192 JUMPI JUMPDEST PUSH1 0x0 DUP1 REVERT JUMPDEST CALLVALUE DUP1 ISZERO PUSH2 0x11A JUMPI PUSH1 0x0 DUP1 REVERT JUMPDEST POP PUSH2 0x123 PUSH2 0x423 JUMP JUMPDEST PUSH1 0x40 MLOAD PUSH2 0x130 SWAP2 SWAP1 PUSH2 0x14EE JUMP JUMPDEST PUSH1 0x40 MLOAD DUP1 SWAP2 SUB SWAP1 RETURN JUMPDEST CALLVALUE DUP1 ISZERO PUSH2 0x145 JUMPI PUSH1 0x0 DUP1 REVERT JUMPDEST POP PUSH2 0x160 PUSH1 0x4 DUP1 CALLDATASIZE SUB DUP2 ADD SWAP1 PUSH2 0x15B SWAP2 SWAP1 PUSH2 0x1553 JUMP JUMPDEST PUSH2 0x42D JUMP JUMPDEST PUSH1 0x40 MLOAD PUSH2 0x16D SWAP2 SWAP1 PUSH2 0x159B JUMP JUMPDEST PUSH1 0x40 MLOAD DUP1 SWAP2 SUB SWAP1 RETURN JUMPDEST PUSH2 0x190 PUSH1 0x4 DUP1 CALLDATASIZE SUB DUP2 ADD SWAP1 PUSH2 0x18B SWAP2 SWAP1 PUSH2 0x15B6 JUMP JUMPDEST PUSH2 0x44D JUMP JUMPDEST STOP JUMPDEST CALLVALUE DUP1 ISZERO PUSH2 0x19E JUMPI PUSH1 0x0 DUP1 REVERT JUMPDEST POP PUSH2 0x1A7 PUSH2 0x64E JUMP JUMPDEST PUSH1 0x40 MLOAD PUSH2 0x1B4 SWAP2 SWAP1 PUSH2 0x14EE JUMP JUMPDEST PUSH1 0x40 MLOAD DUP1 SWAP2 SUB SWAP1 RETURN JUMPDEST CALLVALUE DUP1 ISZERO PUSH2 0x1C9 JUMPI PUSH1 0x0 DUP1 REVERT JUMPDEST POP PUSH2 0x1D2 PUSH2 0x740 JUMP JUMPDEST STOP JUMPDEST CALLVALUE DUP1 ISZERO PUSH2 0x1E0 JUMPI PUSH1 0x0 DUP1 REVERT JUMPDEST POP PUSH2 0x1FB PUSH1 0x4 DUP1 CALLDATASIZE SUB DUP2 ADD SWAP1 PUSH2 0x1F6 SWAP2 SWAP1 PUSH2 0x1553 JUMP JUMPDEST PUSH2 0x8E3 JUMP JUMPDEST PUSH1 0x40 MLOAD PUSH2 0x208 SWAP2 SWAP1 PUSH2 0x1637 JUMP JUMPDEST PUSH1 0x40 MLOAD DUP1 SWAP2 SUB SWAP1 RETURN JUMPDEST PUSH2 0x22B PUSH1 0x4 DUP1 CALLDATASIZE SUB DUP2 ADD SWAP1 PUSH2 0x226 SWAP2 SWAP1 PUSH2 0x18B8 JUMP JUMPDEST PUSH2 0x923 JUMP JUMPDEST STOP JUMPDEST CALLVALUE DUP1 ISZERO PUSH2 0x239 JUMPI PUSH1 0x0 DUP1 REVERT JUMPDEST POP PUSH2 0x254 PUSH1 0x4 DUP1 CALLDATASIZE SUB DUP2 ADD SWAP1 PUSH2 0x24F SWAP2 SWAP1 PUSH2 0x1997 JUMP JUMPDEST PUSH2 0xC21 JUMP JUMPDEST STOP JUMPDEST CALLVALUE DUP1 ISZERO PUSH2 0x262 JUMPI PUSH1 0x0 DUP1 REVERT JUMPDEST POP PUSH2 0x27D PUSH1 0x4 DUP1 CALLDATASIZE SUB DUP2 ADD SWAP1 PUSH2 0x278 SWAP2 SWAP1 PUSH2 0x1997 JUMP JUMPDEST PUSH2 0xE1A JUMP JUMPDEST STOP JUMPDEST CALLVALUE DUP1 ISZERO PUSH2 0x28B JUMPI PUSH1 0x0 DUP1 REVERT JUMPDEST POP PUSH2 0x294 PUSH2 0xF0C JUMP JUMPDEST PUSH1 0x40 MLOAD PUSH2 0x2A1 SWAP2 SWAP1 PUSH2 0x1637 JUMP JUMPDEST PUSH1 0x40 MLOAD DUP1 SWAP2 SUB SWAP1 RETURN JUMPDEST CALLVALUE DUP1 ISZERO PUSH2 0x2B6 JUMPI PUSH1 0x0 DUP1 REVERT JUMPDEST POP PUSH2 0x2D1 PUSH1 0x4 DUP1 CALLDATASIZE SUB DUP2 ADD SWAP1 PUSH2 0x2CC SWAP2 SWAP1 PUSH2 0x19F0 JUMP JUMPDEST PUSH2 0xF36 JUMP JUMPDEST STOP JUMPDEST CALLVALUE DUP1 ISZERO PUSH2 0x2DF JUMPI PUSH1 0x0 DUP1 REVERT JUMPDEST POP PUSH2 0x2FA PUSH1 0x4 DUP1 CALLDATASIZE SUB DUP2 ADD SWAP1 PUSH2 0x2F5 SWAP2 SWAP1 PUSH2 0x1997 JUMP JUMPDEST PUSH2 0x1062 JUMP JUMPDEST STOP JUMPDEST PUSH2 0x316 PUSH1 0x4 DUP1 CALLDATASIZE SUB DUP2 ADD SWAP1 PUSH2 0x311 SWAP2 SWAP1 PUSH2 0x1A1D JUMP JUMPDEST PUSH2 0x1154 JUMP JUMPDEST STOP JUMPDEST CALLVALUE DUP1 ISZERO PUSH2 0x324 JUMPI PUSH1 0x0 DUP1 REVERT JUMPDEST POP PUSH2 0x33F PUSH1 0x4 DUP1 CALLDATASIZE SUB DUP2 ADD SWAP1 PUSH2 0x33A SWAP2 SWAP1 PUSH2 0x1553 JUMP JUMPDEST PUSH2 0x136E JUMP JUMPDEST PUSH1 0x40 MLOAD PUSH2 0x34C SWAP2 SWAP1 PUSH2 0x1A6C JUMP JUMPDEST PUSH1 0x40 MLOAD DUP1 SWAP2 SUB SWAP1 RETURN JUMPDEST CALLVALUE DUP1 ISZERO PUSH2 0x361 JUMPI PUSH1 0x0 DUP1 REVERT JUMPDEST POP PUSH2 0x37C PUSH1 0x4 DUP1 CALLDATASIZE SUB DUP2 ADD SWAP1 PUSH2 0x377 SWAP2 SWAP1 PUSH2 0x1A87 JUMP JUMPDEST PUSH2 0x138E JUMP JUMPDEST STOP JUMPDEST CALLVALUE DUP1 ISZERO PUSH2 0x38A JUMPI PUSH1 0x0 DUP1 REVERT JUMPDEST POP PUSH2 0x3A5 PUSH1 0x4 DUP1 CALLDATASIZE SUB DUP2 ADD SWAP1 PUSH2 0x3A0 SWAP2 SWAP1 PUSH2 0x19F0 JUMP JUMPDEST PUSH2 0x1465 JUMP JUMPDEST PUSH1 0x40 MLOAD PUSH2 0x3B2 SWAP2 SWAP1 PUSH2 0x1A6C JUMP JUMPDEST PUSH1 0x40 MLOAD DUP1 SWAP2 SUB SWAP1 RETURN JUMPDEST CALLVALUE DUP1 ISZERO PUSH2 0x3C7 JUMPI PUSH1 0x0 DUP1 REVERT JUMPDEST POP PUSH2 0x3D0 PUSH2 0x14AE JUMP JUMPDEST PUSH1 0x40 MLOAD PUSH2 0x3DD SWAP2 SWAP1 PUSH2 0x14EE JUMP JUMPDEST PUSH1 0x40 MLOAD DUP1 SWAP2 SUB SWAP1 RETURN JUMPDEST CALLVALUE DUP1 ISZERO PUSH2 0x3F2 JUMPI PUSH1 0x0 DUP1 REVERT JUMPDEST POP PUSH2 0x40D PUSH1 0x4 DUP1 CALLDATASIZE SUB DUP2 ADD SWAP1 PUSH2 0x408 SWAP2 SWAP1 PUSH2 0x1553 JUMP JUMPDEST PUSH2 0x14B8 JUMP JUMPDEST PUSH1 0x40 MLOAD PUSH2 0x41A SWAP2 SWAP1 PUSH2 0x14EE JUMP JUMPDEST PUSH1 0x40 MLOAD DUP1 SWAP2 SUB SWAP1 RETURN JUMPDEST PUSH1 0x0 PUSH1 0x5 SLOAD SWAP1 POP SWAP1 JUMP JUMPDEST PUSH1 0xA PUSH1 0x20 MSTORE DUP1 PUSH1 0x0 MSTORE PUSH1 0x40 PUSH1 0x0 KECCAK256 PUSH1 0x0 SWAP2 POP SLOAD SWAP1 PUSH2 0x100 EXP SWAP1 DIV PUSH1 0xFF AND DUP2 JUMP JUMPDEST PUSH1 0x6 SLOAD CALLVALUE LT ISZERO PUSH2 0x492 JUMPI PUSH1 0x40 MLOAD PUSH32 0x8C379A000000000000000000000000000000000000000000000000000000000 DUP2 MSTORE PUSH1 0x4 ADD PUSH2 0x489 SWAP1 PUSH2 0x1B53 JUMP JUMPDEST PUSH1 0x40 MLOAD DUP1 SWAP2 SUB SWAP1 REVERT JUMPDEST PUSH1 0x0 PUSH20 0xFFFFFFFFFFFFFFFFFFFFFFFFFFFFFFFFFFFFFFFF AND PUSH1 0x7 PUSH1 0x0 DUP5 DUP2 MSTORE PUSH1 0x20 ADD SWAP1 DUP2 MSTORE PUSH1 0x20 ADD PUSH1 0x0 KECCAK256 PUSH1 0x0 ADD PUSH1 0x0 SWAP1 SLOAD SWAP1 PUSH2 0x100 EXP SWAP1 DIV PUSH20 0xFFFFFFFFFFFFFFFFFFFFFFFFFFFFFFFFFFFFFFFF AND PUSH20 0xFFFFFFFFFFFFFFFFFFFFFFFFFFFFFFFFFFFFFFFF AND EQ PUSH2 0x537 JUMPI PUSH1 0x40 MLOAD PUSH32 0x8C379A000000000000000000000000000000000000000000000000000000000 DUP2 MSTORE PUSH1 0x4 ADD PUSH2 0x52E SWAP1 PUSH2 0x1BBF JUMP JUMPDEST PUSH1 0x40 MLOAD DUP1 SWAP2 SUB SWAP1 REVERT JUMPDEST CALLVALUE PUSH1 0x0 SLOAD PUSH2 0x545 SWAP2 SWAP1 PUSH2 0x1C0E JUMP JUMPDEST PUSH1 0x0 DUP2 SWAP1 SSTORE POP PUSH1 0x40 MLOAD DUP1 PUSH1 0x60 ADD PUSH1 0x40 MSTORE DUP1 CALLER PUSH20 0xFFFFFFFFFFFFFFFFFFFFFFFFFFFFFFFFFFFFFFFF AND DUP2 MSTORE PUSH1 0x20 ADD DUP4 DUP2 MSTORE PUSH1 0x20 ADD DUP3 DUP2 MSTORE POP PUSH1 0x7 PUSH1 0x0 DUP5 DUP2 MSTORE PUSH1 0x20 ADD SWAP1 DUP2 MSTORE PUSH1 0x20 ADD PUSH1 0x0 KECCAK256 PUSH1 0x0 DUP3 ADD MLOAD DUP2 PUSH1 0x0 ADD PUSH1 0x0 PUSH2 0x100 EXP DUP2 SLOAD DUP2 PUSH20 0xFFFFFFFFFFFFFFFFFFFFFFFFFFFFFFFFFFFFFFFF MUL NOT AND SWAP1 DUP4 PUSH20 0xFFFFFFFFFFFFFFFFFFFFFFFFFFFFFFFFFFFFFFFF AND MUL OR SWAP1 SSTORE POP PUSH1 0x20 DUP3 ADD MLOAD DUP2 PUSH1 0x1 ADD SSTORE PUSH1 0x40 DUP3 ADD MLOAD DUP2 PUSH1 0x2 ADD SSTORE SWAP1 POP POP DUP2 PUSH1 0x8 PUSH1 0x0 CALLER PUSH20 0xFFFFFFFFFFFFFFFFFFFFFFFFFFFFFFFFFFFFFFFF AND PUSH20 0xFFFFFFFFFFFFFFFFFFFFFFFFFFFFFFFFFFFFFFFF AND DUP2 MSTORE PUSH1 0x20 ADD SWAP1 DUP2 MSTORE PUSH1 0x20 ADD PUSH1 0x0 KECCAK256 DUP2 SWAP1 SSTORE POP PUSH1 0x0 PUSH1 0x9 PUSH1 0x0 DUP5 DUP2 MSTORE PUSH1 0x20 ADD SWAP1 DUP2 MSTORE PUSH1 0x20 ADD PUSH1 0x0 KECCAK256 DUP2 SWAP1 SSTORE POP POP POP JUMP JUMPDEST PUSH1 0x0 PUSH1 0x2 PUSH1 0x0 SWAP1 SLOAD SWAP1 PUSH2 0x100 EXP SWAP1 DIV PUSH20 0xFFFFFFFFFFFFFFFFFFFFFFFFFFFFFFFFFFFFFFFF AND PUSH20 0xFFFFFFFFFFFFFFFFFFFFFFFFFFFFFFFFFFFFFFFF AND CALLER PUSH20 0xFFFFFFFFFFFFFFFFFFFFFFFFFFFFFFFFFFFFFFFF AND EQ DUP1 PUSH2 0x6F9 JUMPI POP PUSH1 0x3 PUSH1 0x0 SWAP1 SLOAD SWAP1 PUSH2 0x100 EXP SWAP1 DIV PUSH20 0xFFFFFFFFFFFFFFFFFFFFFFFFFFFFFFFFFFFFFFFF AND PUSH20 0xFFFFFFFFFFFFFFFFFFFFFFFFFFFFFFFFFFFFFFFF AND CALLER PUSH20 0xFFFFFFFFFFFFFFFFFFFFFFFFFFFFFFFFFFFFFFFF AND EQ JUMPDEST PUSH2 0x738 JUMPI PUSH1 0x40 MLOAD PUSH32 0x8C379A000000000000000000000000000000000000000000000000000000000 DUP2 MSTORE PUSH1 0x4 ADD PUSH2 0x72F SWAP1 PUSH2 0x1C8E JUMP JUMPDEST PUSH1 0x40 MLOAD DUP1 SWAP2 SUB SWAP1 REVERT JUMPDEST PUSH1 0x0 SLOAD SWAP1 POP SWAP1 JUMP JUMPDEST PUSH1 0x2 PUSH1 0x0 SWAP1 SLOAD SWAP1 PUSH2 0x100 EXP SWAP1 DIV PUSH20 0xFFFFFFFFFFFFFFFFFFFFFFFFFFFFFFFFFFFFFFFF AND PUSH20 0xFFFFFFFFFFFFFFFFFFFFFFFFFFFFFFFFFFFFFFFF AND CALLER PUSH20 0xFFFFFFFFFFFFFFFFFFFFFFFFFFFFFFFFFFFFFFFF AND EQ DUP1 PUSH2 0x7E9 JUMPI POP PUSH1 0x3 PUSH1 0x0 SWAP1 SLOAD SWAP1 PUSH2 0x100 EXP SWAP1 DIV PUSH20 0xFFFFFFFFFFFFFFFFFFFFFFFFFFFFFFFFFFFFFFFF AND PUSH20 0xFFFFFFFFFFFFFFFFFFFFFFFFFFFFFFFFFFFFFFFF AND CALLER PUSH20 0xFFFFFFFFFFFFFFFFFFFFFFFFFFFFFFFFFFFFFFFF AND EQ JUMPDEST PUSH2 0x828 JUMPI PUSH1 0x40 MLOAD PUSH32 0x8C379A000000000000000000000000000000000000000000000000000000000 DUP2 MSTORE PUSH1 0x4 ADD PUSH2 0x81F SWAP1 PUSH2 0x1C8E JUMP JUMPDEST PUSH1 0x40 MLOAD DUP1 SWAP2 SUB SWAP1 REVERT JUMPDEST PUSH1 0x0 DUP1 CALLER PUSH20 0xFFFFFFFFFFFFFFFFFFFFFFFFFFFFFFFFFFFFFFFF AND PUSH1 0x0 SLOAD PUSH1 0x40 MLOAD PUSH2 0x851 SWAP1 PUSH2 0x1CDF JUMP JUMPDEST PUSH1 0x0 PUSH1 0x40 MLOAD DUP1 DUP4 SUB DUP2 DUP6 DUP8 GAS CALL SWAP3 POP POP POP RETURNDATASIZE DUP1 PUSH1 0x0 DUP2 EQ PUSH2 0x88E JUMPI PUSH1 0x40 MLOAD SWAP2 POP PUSH1 0x1F NOT PUSH1 0x3F RETURNDATASIZE ADD AND DUP3 ADD PUSH1 0x40 MSTORE RETURNDATASIZE DUP3 MSTORE RETURNDATASIZE PUSH1 0x0 PUSH1 0x20 DUP5 ADD RETURNDATACOPY PUSH2 0x893 JUMP JUMPDEST PUSH1 0x60 SWAP2 POP JUMPDEST POP SWAP2 POP SWAP2 POP PUSH1 0x0 DUP1 DUP2 SWAP1 SSTORE POP DUP2 PUSH2 0x8DF JUMPI PUSH1 0x40 MLOAD PUSH32 0x8C379A000000000000000000000000000000000000000000000000000000000 DUP2 MSTORE PUSH1 0x4 ADD PUSH2 0x8D6 SWAP1 PUSH2 0x1D40 JUMP JUMPDEST PUSH1 0x40 MLOAD DUP1 SWAP2 SUB SWAP1 REVERT JUMPDEST POP POP JUMP JUMPDEST PUSH1 0x0 PUSH1 0x7 PUSH1 0x0 DUP4 DUP2 MSTORE PUSH1 0x20 ADD SWAP1 DUP2 MSTORE PUSH1 0x20 ADD PUSH1 0x0 KECCAK256 PUSH1 0x0 ADD PUSH1 0x0 SWAP1 SLOAD SWAP1 PUSH2 0x100 EXP SWAP1 DIV PUSH20 0xFFFFFFFFFFFFFFFFFFFFFFFFFFFFFFFFFFFFFFFF AND SWAP1 POP SWAP2 SWAP1 POP JUMP JUMPDEST PUSH1 0x1 PUSH1 0x0 SWAP1 SLOAD SWAP1 PUSH2 0x100 EXP SWAP1 DIV PUSH20 0xFFFFFFFFFFFFFFFFFFFFFFFFFFFFFFFFFFFFFFFF AND PUSH20 0xFFFFFFFFFFFFFFFFFFFFFFFFFFFFFFFFFFFFFFFF AND CALLER PUSH20 0xFFFFFFFFFFFFFFFFFFFFFFFFFFFFFFFFFFFFFFFF AND EQ PUSH2 0x9B3 JUMPI PUSH1 0x40 MLOAD PUSH32 0x8C379A000000000000000000000000000000000000000000000000000000000 DUP2 MSTORE PUSH1 0x4 ADD PUSH2 0x9AA SWAP1 PUSH2 0x1DAC JUMP JUMPDEST PUSH1 0x40 MLOAD DUP1 SWAP2 SUB SWAP1 REVERT JUMPDEST PUSH1 0xA PUSH1 0x0 DUP3 DUP2 MSTORE PUSH1 0x20 ADD SWAP1 DUP2 MSTORE PUSH1 0x20 ADD PUSH1 0x0 KECCAK256 PUSH1 0x0 SWAP1 SLOAD SWAP1 PUSH2 0x100 EXP SWAP1 DIV PUSH1 0xFF AND ISZERO PUSH2 0xA14 JUMPI PUSH1 0x40 MLOAD PUSH32 0x8C379A000000000000000000000000000000000000000000000000000000000 DUP2 MSTORE PUSH1 0x4 ADD PUSH2 0xA0B SWAP1 PUSH2 0x1E18 JUMP JUMPDEST PUSH1 0x40 MLOAD DUP1 SWAP2 SUB SWAP1 REVERT JUMPDEST PUSH1 0x1 PUSH1 0xA PUSH1 0x0 DUP4 DUP2 MSTORE PUSH1 0x20 ADD SWAP1 DUP2 MSTORE PUSH1 0x20 ADD PUSH1 0x0 KECCAK256 PUSH1 0x0 PUSH2 0x100 EXP DUP2 SLOAD DUP2 PUSH1 0xFF MUL NOT AND SWAP1 DUP4 ISZERO ISZERO MUL OR SWAP1 SSTORE POP PUSH1 0x0 DUP1 PUSH1 0x0 DUP8 DUP1 PUSH1 0x20 ADD SWAP1 MLOAD DUP2 ADD SWAP1 PUSH2 0xA59 SWAP2 SWAP1 PUSH2 0x1E8B JUMP JUMPDEST SWAP3 POP SWAP3 POP SWAP3 POP PUSH1 0x0 PUSH20 0xFFFFFFFFFFFFFFFFFFFFFFFFFFFFFFFFFFFFFFFF AND PUSH1 0x7 PUSH1 0x0 DUP6 DUP2 MSTORE PUSH1 0x20 ADD SWAP1 DUP2 MSTORE PUSH1 0x20 ADD PUSH1 0x0 KECCAK256 PUSH1 0x0 ADD PUSH1 0x0 SWAP1 SLOAD SWAP1 PUSH2 0x100 EXP SWAP1 DIV PUSH20 0xFFFFFFFFFFFFFFFFFFFFFFFFFFFFFFFFFFFFFFFF AND PUSH20 0xFFFFFFFFFFFFFFFFFFFFFFFFFFFFFFFFFFFFFFFF AND EQ PUSH2 0xB04 JUMPI PUSH1 0x40 MLOAD PUSH32 0x8C379A000000000000000000000000000000000000000000000000000000000 DUP2 MSTORE PUSH1 0x4 ADD PUSH2 0xAFB SWAP1 PUSH2 0x1BBF JUMP JUMPDEST PUSH1 0x40 MLOAD DUP1 SWAP2 SUB SWAP1 REVERT JUMPDEST CALLVALUE PUSH1 0x0 SLOAD PUSH2 0xB12 SWAP2 SWAP1 PUSH2 0x1C0E JUMP JUMPDEST PUSH1 0x0 DUP2 SWAP1 SSTORE POP PUSH1 0x40 MLOAD DUP1 PUSH1 0x60 ADD PUSH1 0x40 MSTORE DUP1 DUP3 PUSH20 0xFFFFFFFFFFFFFFFFFFFFFFFFFFFFFFFFFFFFFFFF AND DUP2 MSTORE PUSH1 0x20 ADD DUP5 DUP2 MSTORE PUSH1 0x20 ADD DUP4 DUP2 MSTORE POP PUSH1 0x7 PUSH1 0x0 DUP6 DUP2 MSTORE PUSH1 0x20 ADD SWAP1 DUP2 MSTORE PUSH1 0x20 ADD PUSH1 0x0 KECCAK256 PUSH1 0x0 DUP3 ADD MLOAD DUP2 PUSH1 0x0 ADD PUSH1 0x0 PUSH2 0x100 EXP DUP2 SLOAD DUP2 PUSH20 0xFFFFFFFFFFFFFFFFFFFFFFFFFFFFFFFFFFFFFFFF MUL NOT AND SWAP1 DUP4 PUSH20 0xFFFFFFFFFFFFFFFFFFFFFFFFFFFFFFFFFFFFFFFF AND MUL OR SWAP1 SSTORE POP PUSH1 0x20 DUP3 ADD MLOAD DUP2 PUSH1 0x1 ADD SSTORE PUSH1 0x40 DUP3 ADD MLOAD DUP2 PUSH1 0x2 ADD SSTORE SWAP1 POP POP DUP3 PUSH1 0x8 PUSH1 0x0 DUP4 PUSH20 0xFFFFFFFFFFFFFFFFFFFFFFFFFFFFFFFFFFFFFFFF AND PUSH20 0xFFFFFFFFFFFFFFFFFFFFFFFFFFFFFFFFFFFFFFFF AND DUP2 MSTORE PUSH1 0x20 ADD SWAP1 DUP2 MSTORE PUSH1 0x20 ADD PUSH1 0x0 KECCAK256 DUP2 SWAP1 SSTORE POP PUSH1 0x0 PUSH1 0x9 PUSH1 0x0 DUP6 DUP2 MSTORE PUSH1 0x20 ADD SWAP1 DUP2 MSTORE PUSH1 0x20 ADD PUSH1 0x0 KECCAK256 DUP2 SWAP1 SSTORE POP POP POP POP POP POP POP POP POP JUMP JUMPDEST PUSH1 0x5 SLOAD DUP2 PUSH2 0xC2F SWAP2 SWAP1 PUSH2 0x1C0E JUMP JUMPDEST PUSH1 0x9 PUSH1 0x0 PUSH1 0x8 PUSH1 0x0 CALLER PUSH20 0xFFFFFFFFFFFFFFFFFFFFFFFFFFFFFFFFFFFFFFFF AND PUSH20 0xFFFFFFFFFFFFFFFFFFFFFFFFFFFFFFFFFFFFFFFF AND DUP2 MSTORE PUSH1 0x20 ADD SWAP1 DUP2 MSTORE PUSH1 0x20 ADD PUSH1 0x0 KECCAK256 SLOAD DUP2 MSTORE PUSH1 0x20 ADD SWAP1 DUP2 MSTORE PUSH1 0x20 ADD PUSH1 0x0 KECCAK256 SLOAD GT PUSH2 0xC8C JUMPI PUSH1 0x0 DUP1 REVERT JUMPDEST PUSH1 0x5 SLOAD DUP2 PUSH1 0x9 PUSH1 0x0 PUSH1 0x8 PUSH1 0x0 CALLER PUSH20 0xFFFFFFFFFFFFFFFFFFFFFFFFFFFFFFFFFFFFFFFF AND PUSH20 0xFFFFFFFFFFFFFFFFFFFFFFFFFFFFFFFFFFFFFFFF AND DUP2 MSTORE PUSH1 0x20 ADD SWAP1 DUP2 MSTORE PUSH1 0x20 ADD PUSH1 0x0 KECCAK256 SLOAD DUP2 MSTORE PUSH1 0x20 ADD SWAP1 DUP2 MSTORE PUSH1 0x20 ADD PUSH1 0x0 KECCAK256 SLOAD PUSH2 0xCED SWAP2 SWAP1 PUSH2 0x1EDE JUMP JUMPDEST PUSH2 0xCF7 SWAP2 SWAP1 PUSH2 0x1EDE JUMP JUMPDEST PUSH1 0x9 PUSH1 0x0 PUSH1 0x8 PUSH1 0x0 CALLER PUSH20 0xFFFFFFFFFFFFFFFFFFFFFFFFFFFFFFFFFFFFFFFF AND PUSH20 0xFFFFFFFFFFFFFFFFFFFFFFFFFFFFFFFFFFFFFFFF AND DUP2 MSTORE PUSH1 0x20 ADD SWAP1 DUP2 MSTORE PUSH1 0x20 ADD PUSH1 0x0 KECCAK256 SLOAD DUP2 MSTORE PUSH1 0x20 ADD SWAP1 DUP2 MSTORE PUSH1 0x20 ADD PUSH1 0x0 KECCAK256 DUP2 SWAP1 SSTORE POP PUSH1 0x5 SLOAD PUSH1 0x0 DUP1 DUP3 DUP3 SLOAD PUSH2 0xD60 SWAP2 SWAP1 PUSH2 0x1C0E JUMP JUMPDEST SWAP3 POP POP DUP2 SWAP1 SSTORE POP PUSH1 0x0 DUP1 CALLER PUSH20 0xFFFFFFFFFFFFFFFFFFFFFFFFFFFFFFFFFFFFFFFF AND DUP4 PUSH1 0x40 MLOAD PUSH2 0xD8E SWAP1 PUSH2 0x1CDF JUMP JUMPDEST PUSH1 0x0 PUSH1 0x40 MLOAD DUP1 DUP4 SUB DUP2 DUP6 DUP8 GAS CALL SWAP3 POP POP POP RETURNDATASIZE DUP1 PUSH1 0x0 DUP2 EQ PUSH2 0xDCB JUMPI PUSH1 0x40 MLOAD SWAP2 POP PUSH1 0x1F NOT PUSH1 0x3F RETURNDATASIZE ADD AND DUP3 ADD PUSH1 0x40 MSTORE RETURNDATASIZE DUP3 MSTORE RETURNDATASIZE PUSH1 0x0 PUSH1 0x20 DUP5 ADD RETURNDATACOPY PUSH2 0xDD0 JUMP JUMPDEST PUSH1 0x60 SWAP2 POP JUMPDEST POP SWAP2 POP SWAP2 POP DUP2 PUSH2 0xE15 JUMPI PUSH1 0x40 MLOAD PUSH32 0x8C379A000000000000000000000000000000000000000000000000000000000 DUP2 MSTORE PUSH1 0x4 ADD PUSH2 0xE0C SWAP1 PUSH2 0x1D40 JUMP JUMPDEST PUSH1 0x40 MLOAD DUP1 SWAP2 SUB SWAP1 REVERT JUMPDEST POP POP POP JUMP JUMPDEST PUSH1 0x2 PUSH1 0x0 SWAP1 SLOAD SWAP1 PUSH2 0x100 EXP SWAP1 DIV PUSH20 0xFFFFFFFFFFFFFFFFFFFFFFFFFFFFFFFFFFFFFFFF AND PUSH20 0xFFFFFFFFFFFFFFFFFFFFFFFFFFFFFFFFFFFFFFFF AND CALLER PUSH20 0xFFFFFFFFFFFFFFFFFFFFFFFFFFFFFFFFFFFFFFFF AND EQ DUP1 PUSH2 0xEC3 JUMPI POP PUSH1 0x3 PUSH1 0x0 SWAP1 SLOAD SWAP1 PUSH2 0x100 EXP SWAP1 DIV PUSH20 0xFFFFFFFFFFFFFFFFFFFFFFFFFFFFFFFFFFFFFFFF AND PUSH20 0xFFFFFFFFFFFFFFFFFFFFFFFFFFFFFFFFFFFFFFFF AND CALLER PUSH20 0xFFFFFFFFFFFFFFFFFFFFFFFFFFFFFFFFFFFFFFFF AND EQ JUMPDEST PUSH2 0xF02 JUMPI PUSH1 0x40 MLOAD PUSH32 0x8C379A000000000000000000000000000000000000000000000000000000000 DUP2 MSTORE PUSH1 0x4 ADD PUSH2 0xEF9 SWAP1 PUSH2 0x1C8E JUMP JUMPDEST PUSH1 0x40 MLOAD DUP1 SWAP2 SUB SWAP1 REVERT JUMPDEST DUP1 PUSH1 0x6 DUP2 SWAP1 SSTORE POP POP JUMP JUMPDEST PUSH1 0x0 PUSH1 0x3 PUSH1 0x0 SWAP1 SLOAD SWAP1 PUSH2 0x100 EXP SWAP1 DIV PUSH20 0xFFFFFFFFFFFFFFFFFFFFFFFFFFFFFFFFFFFFFFFF AND SWAP1 POP SWAP1 JUMP JUMPDEST PUSH1 0x2 PUSH1 0x0 SWAP1 SLOAD SWAP1 PUSH2 0x100 EXP SWAP1 DIV PUSH20 0xFFFFFFFFFFFFFFFFFFFFFFFFFFFFFFFFFFFFFFFF AND PUSH20 0xFFFFFFFFFFFFFFFFFFFFFFFFFFFFFFFFFFFFFFFF AND CALLER PUSH20 0xFFFFFFFFFFFFFFFFFFFFFFFFFFFFFFFFFFFFFFFF AND EQ DUP1 PUSH2 0xFDF JUMPI POP PUSH1 0x3 PUSH1 0x0 SWAP1 SLOAD SWAP1 PUSH2 0x100 EXP SWAP1 DIV PUSH20 0xFFFFFFFFFFFFFFFFFFFFFFFFFFFFFFFFFFFFFFFF AND PUSH20 0xFFFFFFFFFFFFFFFFFFFFFFFFFFFFFFFFFFFFFFFF AND CALLER PUSH20 0xFFFFFFFFFFFFFFFFFFFFFFFFFFFFFFFFFFFFFFFF AND EQ JUMPDEST PUSH2 0x101E JUMPI PUSH1 0x40 MLOAD PUSH32 0x8C379A000000000000000000000000000000000000000000000000000000000 DUP2 MSTORE PUSH1 0x4 ADD PUSH2 0x1015 SWAP1 PUSH2 0x1C8E JUMP JUMPDEST PUSH1 0x40 MLOAD DUP1 SWAP2 SUB SWAP1 REVERT JUMPDEST DUP1 PUSH1 0x3 PUSH1 0x0 PUSH2 0x100 EXP DUP2 SLOAD DUP2 PUSH20 0xFFFFFFFFFFFFFFFFFFFFFFFFFFFFFFFFFFFFFFFF MUL NOT AND SWAP1 DUP4 PUSH20 0xFFFFFFFFFFFFFFFFFFFFFFFFFFFFFFFFFFFFFFFF AND MUL OR SWAP1 SSTORE POP POP JUMP JUMPDEST PUSH1 0x2 PUSH1 0x0 SWAP1 SLOAD SWAP1 PUSH2 0x100 EXP SWAP1 DIV PUSH20 0xFFFFFFFFFFFFFFFFFFFFFFFFFFFFFFFFFFFFFFFF AND PUSH20 0xFFFFFFFFFFFFFFFFFFFFFFFFFFFFFFFFFFFFFFFF AND CALLER PUSH20 0xFFFFFFFFFFFFFFFFFFFFFFFFFFFFFFFFFFFFFFFF AND EQ DUP1 PUSH2 0x110B JUMPI POP PUSH1 0x3 PUSH1 0x0 SWAP1 SLOAD SWAP1 PUSH2 0x100 EXP SWAP1 DIV PUSH20 0xFFFFFFFFFFFFFFFFFFFFFFFFFFFFFFFFFFFFFFFF AND PUSH20 0xFFFFFFFFFFFFFFFFFFFFFFFFFFFFFFFFFFFFFFFF AND CALLER PUSH20 0xFFFFFFFFFFFFFFFFFFFFFFFFFFFFFFFFFFFFFFFF AND EQ JUMPDEST PUSH2 0x114A JUMPI PUSH1 0x40 MLOAD PUSH32 0x8C379A000000000000000000000000000000000000000000000000000000000 DUP2 MSTORE PUSH1 0x4 ADD PUSH2 0x1141 SWAP1 PUSH2 0x1C8E JUMP JUMPDEST PUSH1 0x40 MLOAD DUP1 SWAP2 SUB SWAP1 REVERT JUMPDEST DUP1 PUSH1 0x5 DUP2 SWAP1 SSTORE POP POP JUMP JUMPDEST PUSH1 0x0 DUP1 SHL PUSH1 0x8 PUSH1 0x0 CALLER PUSH20 0xFFFFFFFFFFFFFFFFFFFFFFFFFFFFFFFFFFFFFFFF AND PUSH20 0xFFFFFFFFFFFFFFFFFFFFFFFFFFFFFFFFFFFFFFFF AND DUP2 MSTORE PUSH1 0x20 ADD SWAP1 DUP2 MSTORE PUSH1 0x20 ADD PUSH1 0x0 KECCAK256 SLOAD GT PUSH2 0x11D8 JUMPI PUSH1 0x40 MLOAD PUSH32 0x8C379A000000000000000000000000000000000000000000000000000000000 DUP2 MSTORE PUSH1 0x4 ADD PUSH2 0x11CF SWAP1 PUSH2 0x1F84 JUMP JUMPDEST PUSH1 0x40 MLOAD DUP1 SWAP2 SUB SWAP1 REVERT JUMPDEST DUP1 CALLVALUE LT ISZERO PUSH2 0x121B JUMPI PUSH1 0x40 MLOAD PUSH32 0x8C379A000000000000000000000000000000000000000000000000000000000 DUP2 MSTORE PUSH1 0x4 ADD PUSH2 0x1212 SWAP1 PUSH2 0x1FF0 JUMP JUMPDEST PUSH1 0x40 MLOAD DUP1 SWAP2 SUB SWAP1 REVERT JUMPDEST PUSH1 0x0 PUSH20 0xFFFFFFFFFFFFFFFFFFFFFFFFFFFFFFFFFFFFFFFF AND PUSH1 0x7 PUSH1 0x0 DUP5 DUP2 MSTORE PUSH1 0x20 ADD SWAP1 DUP2 MSTORE PUSH1 0x20 ADD PUSH1 0x0 KECCAK256 PUSH1 0x0 ADD PUSH1 0x0 SWAP1 SLOAD SWAP1 PUSH2 0x100 EXP SWAP1 DIV PUSH20 0xFFFFFFFFFFFFFFFFFFFFFFFFFFFFFFFFFFFFFFFF AND PUSH20 0xFFFFFFFFFFFFFFFFFFFFFFFFFFFFFFFFFFFFFFFF AND SUB PUSH2 0x12C0 JUMPI PUSH1 0x40 MLOAD PUSH32 0x8C379A000000000000000000000000000000000000000000000000000000000 DUP2 MSTORE PUSH1 0x4 ADD PUSH2 0x12B7 SWAP1 PUSH2 0x205C JUMP JUMPDEST PUSH1 0x40 MLOAD DUP1 SWAP2 SUB SWAP1 REVERT JUMPDEST DUP1 PUSH1 0x9 PUSH1 0x0 DUP5 DUP2 MSTORE PUSH1 0x20 ADD SWAP1 DUP2 MSTORE PUSH1 0x20 ADD PUSH1 0x0 KECCAK256 PUSH1 0x0 DUP3 DUP3 SLOAD PUSH2 0x12E3 SWAP2 SWAP1 PUSH2 0x1C0E JUMP JUMPDEST SWAP3 POP POP DUP2 SWAP1 SSTORE POP PUSH1 0x0 PUSH1 0x8 PUSH1 0x0 CALLER PUSH20 0xFFFFFFFFFFFFFFFFFFFFFFFFFFFFFFFFFFFFFFFF AND PUSH20 0xFFFFFFFFFFFFFFFFFFFFFFFFFFFFFFFFFFFFFFFF AND DUP2 MSTORE PUSH1 0x20 ADD SWAP1 DUP2 MSTORE PUSH1 0x20 ADD PUSH1 0x0 KECCAK256 SLOAD SWAP1 POP PUSH32 0xC523BCF6216203E46E799244596F69646E16C9A6108C4796BFC941F058ACCEFC DUP2 DUP5 DUP5 PUSH1 0x40 MLOAD PUSH2 0x1361 SWAP4 SWAP3 SWAP2 SWAP1 PUSH2 0x207C JUMP JUMPDEST PUSH1 0x40 MLOAD DUP1 SWAP2 SUB SWAP1 LOG1 POP POP POP JUMP JUMPDEST PUSH1 0x0 PUSH1 0x7 PUSH1 0x0 DUP4 DUP2 MSTORE PUSH1 0x20 ADD SWAP1 DUP2 MSTORE PUSH1 0x20 ADD PUSH1 0x0 KECCAK256 PUSH1 0x2 ADD SLOAD SWAP1 POP SWAP2 SWAP1 POP JUMP JUMPDEST PUSH1 0x0 DUP1 PUSH1 0x0 DUP4 DUP1 PUSH1 0x20 ADD SWAP1 MLOAD DUP2 ADD SWAP1 PUSH2 0x13A7 SWAP2 SWAP1 PUSH2 0x20C8 JUMP JUMPDEST DUP1 SWAP4 POP DUP2 SWAP5 POP DUP3 SWAP6 POP POP POP POP DUP5 PUSH1 0x9 PUSH1 0x0 DUP5 DUP2 MSTORE PUSH1 0x20 ADD SWAP1 DUP2 MSTORE PUSH1 0x20 ADD PUSH1 0x0 KECCAK256 PUSH1 0x0 DUP3 DUP3 SLOAD PUSH2 0x13D6 SWAP2 SWAP1 PUSH2 0x1C0E JUMP JUMPDEST SWAP3 POP POP DUP2 SWAP1 SSTORE POP PUSH1 0x0 PUSH1 0x8 PUSH1 0x0 DUP6 PUSH20 0xFFFFFFFFFFFFFFFFFFFFFFFFFFFFFFFFFFFFFFFF AND PUSH20 0xFFFFFFFFFFFFFFFFFFFFFFFFFFFFFFFFFFFFFFFF AND DUP2 MSTORE PUSH1 0x20 ADD SWAP1 DUP2 MSTORE PUSH1 0x20 ADD PUSH1 0x0 KECCAK256 SLOAD SWAP1 POP PUSH32 0xC523BCF6216203E46E799244596F69646E16C9A6108C4796BFC941F058ACCEFC DUP2 DUP5 DUP9 PUSH1 0x40 MLOAD PUSH2 0x1454 SWAP4 SWAP3 SWAP2 SWAP1 PUSH2 0x207C JUMP JUMPDEST PUSH1 0x40 MLOAD DUP1 SWAP2 SUB SWAP1 LOG1 POP POP POP POP POP POP POP JUMP JUMPDEST PUSH1 0x0 PUSH1 0x8 PUSH1 0x0 DUP4 PUSH20 0xFFFFFFFFFFFFFFFFFFFFFFFFFFFFFFFFFFFFFFFF AND PUSH20 0xFFFFFFFFFFFFFFFFFFFFFFFFFFFFFFFFFFFFFFFF AND DUP2 MSTORE PUSH1 0x20 ADD SWAP1 DUP2 MSTORE PUSH1 0x20 ADD PUSH1 0x0 KECCAK256 SLOAD SWAP1 POP SWAP2 SWAP1 POP JUMP JUMPDEST PUSH1 0x0 PUSH1 0x6 SLOAD SWAP1 POP SWAP1 JUMP JUMPDEST PUSH1 0x0 PUSH1 0x9 PUSH1 0x0 DUP4 DUP2 MSTORE PUSH1 0x20 ADD SWAP1 DUP2 MSTORE PUSH1 0x20 ADD PUSH1 0x0 KECCAK256 SLOAD SWAP1 POP SWAP2 SWAP1 POP JUMP JUMPDEST PUSH1 0x0 DUP2 SWAP1 POP SWAP2 SWAP1 POP JUMP JUMPDEST PUSH2 0x14E8 DUP2 PUSH2 0x14D5 JUMP JUMPDEST DUP3 MSTORE POP POP JUMP JUMPDEST PUSH1 0x0 PUSH1 0x20 DUP3 ADD SWAP1 POP PUSH2 0x1503 PUSH1 0x0 DUP4 ADD DUP5 PUSH2 0x14DF JUMP JUMPDEST SWAP3 SWAP2 POP POP JUMP JUMPDEST PUSH1 0x0 PUSH1 0x40 MLOAD SWAP1 POP SWAP1 JUMP JUMPDEST PUSH1 0x0 DUP1 REVERT JUMPDEST PUSH1 0x0 DUP1 REVERT JUMPDEST PUSH1 0x0 DUP2 SWAP1 POP SWAP2 SWAP1 POP JUMP JUMPDEST PUSH2 0x1530 DUP2 PUSH2 0x151D JUMP JUMPDEST DUP2 EQ PUSH2 0x153B JUMPI PUSH1 0x0 DUP1 REVERT JUMPDEST POP JUMP JUMPDEST PUSH1 0x0 DUP2 CALLDATALOAD SWAP1 POP PUSH2 0x154D DUP2 PUSH2 0x1527 JUMP JUMPDEST SWAP3 SWAP2 POP POP JUMP JUMPDEST PUSH1 0x0 PUSH1 0x20 DUP3 DUP5 SUB SLT ISZERO PUSH2 0x1569 JUMPI PUSH2 0x1568 PUSH2 0x1513 JUMP JUMPDEST JUMPDEST PUSH1 0x0 PUSH2 0x1577 DUP5 DUP3 DUP6 ADD PUSH2 0x153E JUMP JUMPDEST SWAP2 POP POP SWAP3 SWAP2 POP POP JUMP JUMPDEST PUSH1 0x0 DUP2 ISZERO ISZERO SWAP1 POP SWAP2 SWAP1 POP JUMP JUMPDEST PUSH2 0x1595 DUP2 PUSH2 0x1580 JUMP JUMPDEST DUP3 MSTORE POP POP JUMP JUMPDEST PUSH1 0x0 PUSH1 0x20 DUP3 ADD SWAP1 POP PUSH2 0x15B0 PUSH1 0x0 DUP4 ADD DUP5 PUSH2 0x158C JUMP JUMPDEST SWAP3 SWAP2 POP POP JUMP JUMPDEST PUSH1 0x0 DUP1 PUSH1 0x40 DUP4 DUP6 SUB SLT ISZERO PUSH2 0x15CD JUMPI PUSH2 0x15CC PUSH2 0x1513 JUMP JUMPDEST JUMPDEST PUSH1 0x0 PUSH2 0x15DB DUP6 DUP3 DUP7 ADD PUSH2 0x153E JUMP JUMPDEST SWAP3 POP POP PUSH1 0x20 PUSH2 0x15EC DUP6 DUP3 DUP7 ADD PUSH2 0x153E JUMP JUMPDEST SWAP2 POP POP SWAP3 POP SWAP3 SWAP1 POP JUMP JUMPDEST PUSH1 0x0 PUSH20 0xFFFFFFFFFFFFFFFFFFFFFFFFFFFFFFFFFFFFFFFF DUP3 AND SWAP1 POP SWAP2 SWAP1 POP JUMP JUMPDEST PUSH1 0x0 PUSH2 0x1621 DUP3 PUSH2 0x15F6 JUMP JUMPDEST SWAP1 POP SWAP2 SWAP1 POP JUMP JUMPDEST PUSH2 0x1631 DUP2 PUSH2 0x1616 JUMP JUMPDEST DUP3 MSTORE POP POP JUMP JUMPDEST PUSH1 0x0 PUSH1 0x20 DUP3 ADD SWAP1 POP PUSH2 0x164C PUSH1 0x0 DUP4 ADD DUP5 PUSH2 0x1628 JUMP JUMPDEST SWAP3 SWAP2 POP POP JUMP JUMPDEST PUSH1 0x0 DUP1 REVERT JUMPDEST PUSH1 0x0 DUP1 REVERT JUMPDEST PUSH1 0x0 PUSH1 0x1F NOT PUSH1 0x1F DUP4 ADD AND SWAP1 POP SWAP2 SWAP1 POP JUMP JUMPDEST PUSH32 0x4E487B7100000000000000000000000000000000000000000000000000000000 PUSH1 0x0 MSTORE PUSH1 0x41 PUSH1 0x4 MSTORE PUSH1 0x24 PUSH1 0x0 REVERT JUMPDEST PUSH2 0x16A5 DUP3 PUSH2 0x165C JUMP JUMPDEST DUP2 ADD DUP2 DUP2 LT PUSH8 0xFFFFFFFFFFFFFFFF DUP3 GT OR ISZERO PUSH2 0x16C4 JUMPI PUSH2 0x16C3 PUSH2 0x166D JUMP JUMPDEST JUMPDEST DUP1 PUSH1 0x40 MSTORE POP POP POP JUMP JUMPDEST PUSH1 0x0 PUSH2 0x16D7 PUSH2 0x1509 JUMP JUMPDEST SWAP1 POP PUSH2 0x16E3 DUP3 DUP3 PUSH2 0x169C JUMP JUMPDEST SWAP2 SWAP1 POP JUMP JUMPDEST PUSH1 0x0 PUSH8 0xFFFFFFFFFFFFFFFF DUP3 GT ISZERO PUSH2 0x1703 JUMPI PUSH2 0x1702 PUSH2 0x166D JUMP JUMPDEST JUMPDEST PUSH2 0x170C DUP3 PUSH2 0x165C JUMP JUMPDEST SWAP1 POP PUSH1 0x20 DUP2 ADD SWAP1 POP SWAP2 SWAP1 POP JUMP JUMPDEST DUP3 DUP2 DUP4 CALLDATACOPY PUSH1 0x0 DUP4 DUP4 ADD MSTORE POP POP POP JUMP JUMPDEST PUSH1 0x0 PUSH2 0x173B PUSH2 0x1736 DUP5 PUSH2 0x16E8 JUMP JUMPDEST PUSH2 0x16CD JUMP JUMPDEST SWAP1 POP DUP3 DUP2 MSTORE PUSH1 0x20 DUP2 ADD DUP5 DUP5 DUP5 ADD GT ISZERO PUSH2 0x1757 JUMPI PUSH2 0x1756 PUSH2 0x1657 JUMP JUMPDEST JUMPDEST PUSH2 0x1762 DUP5 DUP3 DUP6 PUSH2 0x1719 JUMP JUMPDEST POP SWAP4 SWAP3 POP POP POP JUMP JUMPDEST PUSH1 0x0 DUP3 PUSH1 0x1F DUP4 ADD SLT PUSH2 0x177F JUMPI PUSH2 0x177E PUSH2 0x1652 JUMP JUMPDEST JUMPDEST DUP2 CALLDATALOAD PUSH2 0x178F DUP5 DUP3 PUSH1 0x20 DUP7 ADD PUSH2 0x1728 JUMP JUMPDEST SWAP2 POP POP SWAP3 SWAP2 POP POP JUMP JUMPDEST PUSH1 0x0 PUSH8 0xFFFFFFFFFFFFFFFF DUP3 GT ISZERO PUSH2 0x17B3 JUMPI PUSH2 0x17B2 PUSH2 0x166D JUMP JUMPDEST JUMPDEST PUSH1 0x20 DUP3 MUL SWAP1 POP PUSH1 0x20 DUP2 ADD SWAP1 POP SWAP2 SWAP1 POP JUMP JUMPDEST PUSH1 0x0 DUP1 REVERT JUMPDEST PUSH1 0x0 PUSH2 0x17DC PUSH2 0x17D7 DUP5 PUSH2 0x1798 JUMP JUMPDEST PUSH2 0x16CD JUMP JUMPDEST SWAP1 POP DUP1 DUP4 DUP3 MSTORE PUSH1 0x20 DUP3 ADD SWAP1 POP PUSH1 0x20 DUP5 MUL DUP4 ADD DUP6 DUP2 GT ISZERO PUSH2 0x17FF JUMPI PUSH2 0x17FE PUSH2 0x17C4 JUMP JUMPDEST JUMPDEST DUP4 JUMPDEST DUP2 DUP2 LT ISZERO PUSH2 0x1846 JUMPI DUP1 CALLDATALOAD PUSH8 0xFFFFFFFFFFFFFFFF DUP2 GT ISZERO PUSH2 0x1824 JUMPI PUSH2 0x1823 PUSH2 0x1652 JUMP JUMPDEST JUMPDEST DUP1 DUP7 ADD PUSH2 0x1831 DUP10 DUP3 PUSH2 0x176A JUMP JUMPDEST DUP6 MSTORE PUSH1 0x20 DUP6 ADD SWAP5 POP POP POP PUSH1 0x20 DUP2 ADD SWAP1 POP PUSH2 0x1801 JUMP JUMPDEST POP POP POP SWAP4 SWAP3 POP POP POP JUMP JUMPDEST PUSH1 0x0 DUP3 PUSH1 0x1F DUP4 ADD SLT PUSH2 0x1865 JUMPI PUSH2 0x1864 PUSH2 0x1652 JUMP JUMPDEST JUMPDEST DUP2 CALLDATALOAD PUSH2 0x1875 DUP5 DUP3 PUSH1 0x20 DUP7 ADD PUSH2 0x17C9 JUMP JUMPDEST SWAP2 POP POP SWAP3 SWAP2 POP POP JUMP JUMPDEST PUSH1 0x0 PUSH2 0xFFFF DUP3 AND SWAP1 POP SWAP2 SWAP1 POP JUMP JUMPDEST PUSH2 0x1895 DUP2 PUSH2 0x187E JUMP JUMPDEST DUP2 EQ PUSH2 0x18A0 JUMPI PUSH1 0x0 DUP1 REVERT JUMPDEST POP JUMP JUMPDEST PUSH1 0x0 DUP2 CALLDATALOAD SWAP1 POP PUSH2 0x18B2 DUP2 PUSH2 0x188C JUMP JUMPDEST SWAP3 SWAP2 POP POP JUMP JUMPDEST PUSH1 0x0 DUP1 PUSH1 0x0 DUP1 PUSH1 0x0 PUSH1 0xA0 DUP7 DUP9 SUB SLT ISZERO PUSH2 0x18D4 JUMPI PUSH2 0x18D3 PUSH2 0x1513 JUMP JUMPDEST JUMPDEST PUSH1 0x0 DUP7 ADD CALLDATALOAD PUSH8 0xFFFFFFFFFFFFFFFF DUP2 GT ISZERO PUSH2 0x18F2 JUMPI PUSH2 0x18F1 PUSH2 0x1518 JUMP JUMPDEST JUMPDEST PUSH2 0x18FE DUP9 DUP3 DUP10 ADD PUSH2 0x176A JUMP JUMPDEST SWAP6 POP POP PUSH1 0x20 DUP7 ADD CALLDATALOAD PUSH8 0xFFFFFFFFFFFFFFFF DUP2 GT ISZERO PUSH2 0x191F JUMPI PUSH2 0x191E PUSH2 0x1518 JUMP JUMPDEST JUMPDEST PUSH2 0x192B DUP9 DUP3 DUP10 ADD PUSH2 0x1850 JUMP JUMPDEST SWAP5 POP POP PUSH1 0x40 PUSH2 0x193C DUP9 DUP3 DUP10 ADD PUSH2 0x153E JUMP JUMPDEST SWAP4 POP POP PUSH1 0x60 PUSH2 0x194D DUP9 DUP3 DUP10 ADD PUSH2 0x18A3 JUMP JUMPDEST SWAP3 POP POP PUSH1 0x80 PUSH2 0x195E DUP9 DUP3 DUP10 ADD PUSH2 0x153E JUMP JUMPDEST SWAP2 POP POP SWAP3 SWAP6 POP SWAP3 SWAP6 SWAP1 SWAP4 POP JUMP JUMPDEST PUSH2 0x1974 DUP2 PUSH2 0x14D5 JUMP JUMPDEST DUP2 EQ PUSH2 0x197F JUMPI PUSH1 0x0 DUP1 REVERT JUMPDEST POP JUMP JUMPDEST PUSH1 0x0 DUP2 CALLDATALOAD SWAP1 POP PUSH2 0x1991 DUP2 PUSH2 0x196B JUMP JUMPDEST SWAP3 SWAP2 POP POP JUMP JUMPDEST PUSH1 0x0 PUSH1 0x20 DUP3 DUP5 SUB SLT ISZERO PUSH2 0x19AD JUMPI PUSH2 0x19AC PUSH2 0x1513 JUMP JUMPDEST JUMPDEST PUSH1 0x0 PUSH2 0x19BB DUP5 DUP3 DUP6 ADD PUSH2 0x1982 JUMP JUMPDEST SWAP2 POP POP SWAP3 SWAP2 POP POP JUMP JUMPDEST PUSH2 0x19CD DUP2 PUSH2 0x1616 JUMP JUMPDEST DUP2 EQ PUSH2 0x19D8 JUMPI PUSH1 0x0 DUP1 REVERT JUMPDEST POP JUMP JUMPDEST PUSH1 0x0 DUP2 CALLDATALOAD SWAP1 POP PUSH2 0x19EA DUP2 PUSH2 0x19C4 JUMP JUMPDEST SWAP3 SWAP2 POP POP JUMP JUMPDEST PUSH1 0x0 PUSH1 0x20 DUP3 DUP5 SUB SLT ISZERO PUSH2 0x1A06 JUMPI PUSH2 0x1A05 PUSH2 0x1513 JUMP JUMPDEST JUMPDEST PUSH1 0x0 PUSH2 0x1A14 DUP5 DUP3 DUP6 ADD PUSH2 0x19DB JUMP JUMPDEST SWAP2 POP POP SWAP3 SWAP2 POP POP JUMP JUMPDEST PUSH1 0x0 DUP1 PUSH1 0x40 DUP4 DUP6 SUB SLT ISZERO PUSH2 0x1A34 JUMPI PUSH2 0x1A33 PUSH2 0x1513 JUMP JUMPDEST JUMPDEST PUSH1 0x0 PUSH2 0x1A42 DUP6 DUP3 DUP7 ADD PUSH2 0x153E JUMP JUMPDEST SWAP3 POP POP PUSH1 0x20 PUSH2 0x1A53 DUP6 DUP3 DUP7 ADD PUSH2 0x1982 JUMP JUMPDEST SWAP2 POP POP SWAP3 POP SWAP3 SWAP1 POP JUMP JUMPDEST PUSH2 0x1A66 DUP2 PUSH2 0x151D JUMP JUMPDEST DUP3 MSTORE POP POP JUMP JUMPDEST PUSH1 0x0 PUSH1 0x20 DUP3 ADD SWAP1 POP PUSH2 0x1A81 PUSH1 0x0 DUP4 ADD DUP5 PUSH2 0x1A5D JUMP JUMPDEST SWAP3 SWAP2 POP POP JUMP JUMPDEST PUSH1 0x0 DUP1 PUSH1 0x0 PUSH1 0x60 DUP5 DUP7 SUB SLT ISZERO PUSH2 0x1AA0 JUMPI PUSH2 0x1A9F PUSH2 0x1513 JUMP JUMPDEST JUMPDEST PUSH1 0x0 PUSH2 0x1AAE DUP7 DUP3 DUP8 ADD PUSH2 0x19DB JUMP JUMPDEST SWAP4 POP POP PUSH1 0x20 PUSH2 0x1ABF DUP7 DUP3 DUP8 ADD PUSH2 0x1982 JUMP JUMPDEST SWAP3 POP POP PUSH1 0x40 DUP5 ADD CALLDATALOAD PUSH8 0xFFFFFFFFFFFFFFFF DUP2 GT ISZERO PUSH2 0x1AE0 JUMPI PUSH2 0x1ADF PUSH2 0x1518 JUMP JUMPDEST JUMPDEST PUSH2 0x1AEC DUP7 DUP3 DUP8 ADD PUSH2 0x176A JUMP JUMPDEST SWAP2 POP POP SWAP3 POP SWAP3 POP SWAP3 JUMP JUMPDEST PUSH1 0x0 DUP3 DUP3 MSTORE PUSH1 0x20 DUP3 ADD SWAP1 POP SWAP3 SWAP2 POP POP JUMP JUMPDEST PUSH32 0x6E65656420746F20706179206665657320746F20726567697374657200000000 PUSH1 0x0 DUP3 ADD MSTORE POP JUMP JUMPDEST PUSH1 0x0 PUSH2 0x1B3D PUSH1 0x1C DUP4 PUSH2 0x1AF6 JUMP JUMPDEST SWAP2 POP PUSH2 0x1B48 DUP3 PUSH2 0x1B07 JUMP JUMPDEST PUSH1 0x20 DUP3 ADD SWAP1 POP SWAP2 SWAP1 POP JUMP JUMPDEST PUSH1 0x0 PUSH1 0x20 DUP3 ADD SWAP1 POP DUP2 DUP2 SUB PUSH1 0x0 DUP4 ADD MSTORE PUSH2 0x1B6C DUP2 PUSH2 0x1B30 JUMP JUMPDEST SWAP1 POP SWAP2 SWAP1 POP JUMP JUMPDEST PUSH32 0x416C7265616479207265676973746572656420757365726E616D650000000000 PUSH1 0x0 DUP3 ADD MSTORE POP JUMP JUMPDEST PUSH1 0x0 PUSH2 0x1BA9 PUSH1 0x1B DUP4 PUSH2 0x1AF6 JUMP JUMPDEST SWAP2 POP PUSH2 0x1BB4 DUP3 PUSH2 0x1B73 JUMP JUMPDEST PUSH1 0x20 DUP3 ADD SWAP1 POP SWAP2 SWAP1 POP JUMP JUMPDEST PUSH1 0x0 PUSH1 0x20 DUP3 ADD SWAP1 POP DUP2 DUP2 SUB PUSH1 0x0 DUP4 ADD MSTORE PUSH2 0x1BD8 DUP2 PUSH2 0x1B9C JUMP JUMPDEST SWAP1 POP SWAP2 SWAP1 POP JUMP JUMPDEST PUSH32 0x4E487B7100000000000000000000000000000000000000000000000000000000 PUSH1 0x0 MSTORE PUSH1 0x11 PUSH1 0x4 MSTORE PUSH1 0x24 PUSH1 0x0 REVERT JUMPDEST PUSH1 0x0 PUSH2 0x1C19 DUP3 PUSH2 0x14D5 JUMP JUMPDEST SWAP2 POP PUSH2 0x1C24 DUP4 PUSH2 0x14D5 JUMP JUMPDEST SWAP3 POP DUP3 DUP3 ADD SWAP1 POP DUP1 DUP3 GT ISZERO PUSH2 0x1C3C JUMPI PUSH2 0x1C3B PUSH2 0x1BDF JUMP JUMPDEST JUMPDEST SWAP3 SWAP2 POP POP JUMP JUMPDEST PUSH32 0x43616C6C6572206973206E6F74206F776E657200000000000000000000000000 PUSH1 0x0 DUP3 ADD MSTORE POP JUMP JUMPDEST PUSH1 0x0 PUSH2 0x1C78 PUSH1 0x13 DUP4 PUSH2 0x1AF6 JUMP JUMPDEST SWAP2 POP PUSH2 0x1C83 DUP3 PUSH2 0x1C42 JUMP JUMPDEST PUSH1 0x20 DUP3 ADD SWAP1 POP SWAP2 SWAP1 POP JUMP JUMPDEST PUSH1 0x0 PUSH1 0x20 DUP3 ADD SWAP1 POP DUP2 DUP2 SUB PUSH1 0x0 DUP4 ADD MSTORE PUSH2 0x1CA7 DUP2 PUSH2 0x1C6B JUMP JUMPDEST SWAP1 POP SWAP2 SWAP1 POP JUMP JUMPDEST PUSH1 0x0 DUP2 SWAP1 POP SWAP3 SWAP2 POP POP JUMP JUMPDEST POP JUMP JUMPDEST PUSH1 0x0 PUSH2 0x1CC9 PUSH1 0x0 DUP4 PUSH2 0x1CAE JUMP JUMPDEST SWAP2 POP PUSH2 0x1CD4 DUP3 PUSH2 0x1CB9 JUMP JUMPDEST PUSH1 0x0 DUP3 ADD SWAP1 POP SWAP2 SWAP1 POP JUMP JUMPDEST PUSH1 0x0 PUSH2 0x1CEA DUP3 PUSH2 0x1CBC JUMP JUMPDEST SWAP2 POP DUP2 SWAP1 POP SWAP2 SWAP1 POP JUMP JUMPDEST PUSH32 0x4661696C656420746F2073656E64204574686572000000000000000000000000 PUSH1 0x0 DUP3 ADD MSTORE POP JUMP JUMPDEST PUSH1 0x0 PUSH2 0x1D2A PUSH1 0x14 DUP4 PUSH2 0x1AF6 JUMP JUMPDEST SWAP2 POP PUSH2 0x1D35 DUP3 PUSH2 0x1CF4 JUMP JUMPDEST PUSH1 0x20 DUP3 ADD SWAP1 POP SWAP2 SWAP1 POP JUMP JUMPDEST PUSH1 0x0 PUSH1 0x20 DUP3 ADD SWAP1 POP DUP2 DUP2 SUB PUSH1 0x0 DUP4 ADD MSTORE PUSH2 0x1D59 DUP2 PUSH2 0x1D1D JUMP JUMPDEST SWAP1 POP SWAP2 SWAP1 POP JUMP JUMPDEST PUSH32 0x4F6E6C792072656C6179657220616C6C6F776564000000000000000000000000 PUSH1 0x0 DUP3 ADD MSTORE POP JUMP JUMPDEST PUSH1 0x0 PUSH2 0x1D96 PUSH1 0x14 DUP4 PUSH2 0x1AF6 JUMP JUMPDEST SWAP2 POP PUSH2 0x1DA1 DUP3 PUSH2 0x1D60 JUMP JUMPDEST PUSH1 0x20 DUP3 ADD SWAP1 POP SWAP2 SWAP1 POP JUMP JUMPDEST PUSH1 0x0 PUSH1 0x20 DUP3 ADD SWAP1 POP DUP2 DUP2 SUB PUSH1 0x0 DUP4 ADD MSTORE PUSH2 0x1DC5 DUP2 PUSH2 0x1D89 JUMP JUMPDEST SWAP1 POP SWAP2 SWAP1 POP JUMP JUMPDEST PUSH32 0x4D65737361676520616C72656164792070726F63657373656400000000000000 PUSH1 0x0 DUP3 ADD MSTORE POP JUMP JUMPDEST PUSH1 0x0 PUSH2 0x1E02 PUSH1 0x19 DUP4 PUSH2 0x1AF6 JUMP JUMPDEST SWAP2 POP PUSH2 0x1E0D DUP3 PUSH2 0x1DCC JUMP JUMPDEST PUSH1 0x20 DUP3 ADD SWAP1 POP SWAP2 SWAP1 POP JUMP JUMPDEST PUSH1 0x0 PUSH1 0x20 DUP3 ADD SWAP1 POP DUP2 DUP2 SUB PUSH1 0x0 DUP4 ADD MSTORE PUSH2 0x1E31 DUP2 PUSH2 0x1DF5 JUMP JUMPDEST SWAP1 POP SWAP2 SWAP1 POP JUMP JUMPDEST PUSH1 0x0 DUP2 MLOAD SWAP1 POP PUSH2 0x1E47 DUP2 PUSH2 0x1527 JUMP JUMPDEST SWAP3 SWAP2 POP POP JUMP JUMPDEST PUSH1 0x0 PUSH2 0x1E58 DUP3 PUSH2 0x15F6 JUMP JUMPDEST SWAP1 POP SWAP2 SWAP1 POP JUMP JUMPDEST PUSH2 0x1E68 DUP2 PUSH2 0x1E4D JUMP JUMPDEST DUP2 EQ PUSH2 0x1E73 JUMPI PUSH1 0x0 DUP1 REVERT JUMPDEST POP JUMP JUMPDEST PUSH1 0x0 DUP2 MLOAD SWAP1 POP PUSH2 0x1E85 DUP2 PUSH2 0x1E5F JUMP JUMPDEST SWAP3 SWAP2 POP POP JUMP JUMPDEST PUSH1 0x0 DUP1 PUSH1 0x0 PUSH1 0x60 DUP5 DUP7 SUB SLT ISZERO PUSH2 0x1EA4 JUMPI PUSH2 0x1EA3 PUSH2 0x1513 JUMP JUMPDEST JUMPDEST PUSH1 0x0 PUSH2 0x1EB2 DUP7 DUP3 DUP8 ADD PUSH2 0x1E38 JUMP JUMPDEST SWAP4 POP POP PUSH1 0x20 PUSH2 0x1EC3 DUP7 DUP3 DUP8 ADD PUSH2 0x1E38 JUMP JUMPDEST SWAP3 POP POP PUSH1 0x40 PUSH2 0x1ED4 DUP7 DUP3 DUP8 ADD PUSH2 0x1E76 JUMP JUMPDEST SWAP2 POP POP SWAP3 POP SWAP3 POP SWAP3 JUMP JUMPDEST PUSH1 0x0 PUSH2 0x1EE9 DUP3 PUSH2 0x14D5 JUMP JUMPDEST SWAP2 POP PUSH2 0x1EF4 DUP4 PUSH2 0x14D5 JUMP JUMPDEST SWAP3 POP DUP3 DUP3 SUB SWAP1 POP DUP2 DUP2 GT ISZERO PUSH2 0x1F0C JUMPI PUSH2 0x1F0B PUSH2 0x1BDF JUMP JUMPDEST JUMPDEST SWAP3 SWAP2 POP POP JUMP JUMPDEST PUSH32 0x506C65617365207265676973746572206265666F72652073656E64696E67206D PUSH1 0x0 DUP3 ADD MSTORE PUSH32 0x6F6E657900000000000000000000000000000000000000000000000000000000 PUSH1 0x20 DUP3 ADD MSTORE POP JUMP JUMPDEST PUSH1 0x0 PUSH2 0x1F6E PUSH1 0x24 DUP4 PUSH2 0x1AF6 JUMP JUMPDEST SWAP2 POP PUSH2 0x1F79 DUP3 PUSH2 0x1F12 JUMP JUMPDEST PUSH1 0x40 DUP3 ADD SWAP1 POP SWAP2 SWAP1 POP JUMP JUMPDEST PUSH1 0x0 PUSH1 0x20 DUP3 ADD SWAP1 POP DUP2 DUP2 SUB PUSH1 0x0 DUP4 ADD MSTORE PUSH2 0x1F9D DUP2 PUSH2 0x1F61 JUMP JUMPDEST SWAP1 POP SWAP2 SWAP1 POP JUMP JUMPDEST PUSH32 0x416D6F756E742073656E74206C657373207468616E2072657175697265640000 PUSH1 0x0 DUP3 ADD MSTORE POP JUMP JUMPDEST PUSH1 0x0 PUSH2 0x1FDA PUSH1 0x1E DUP4 PUSH2 0x1AF6 JUMP JUMPDEST SWAP2 POP PUSH2 0x1FE5 DUP3 PUSH2 0x1FA4 JUMP JUMPDEST PUSH1 0x20 DUP3 ADD SWAP1 POP SWAP2 SWAP1 POP JUMP JUMPDEST PUSH1 0x0 PUSH1 0x20 DUP3 ADD SWAP1 POP DUP2 DUP2 SUB PUSH1 0x0 DUP4 ADD MSTORE PUSH2 0x2009 DUP2 PUSH2 0x1FCD JUMP JUMPDEST SWAP1 POP SWAP2 SWAP1 POP JUMP JUMPDEST PUSH32 0x696E76616C696420757365726E616D6500000000000000000000000000000000 PUSH1 0x0 DUP3 ADD MSTORE POP JUMP JUMPDEST PUSH1 0x0 PUSH2 0x2046 PUSH1 0x10 DUP4 PUSH2 0x1AF6 JUMP JUMPDEST SWAP2 POP PUSH2 0x2051 DUP3 PUSH2 0x2010 JUMP JUMPDEST PUSH1 0x20 DUP3 ADD SWAP1 POP SWAP2 SWAP1 POP JUMP JUMPDEST PUSH1 0x0 PUSH1 0x20 DUP3 ADD SWAP1 POP DUP2 DUP2 SUB PUSH1 0x0 DUP4 ADD MSTORE PUSH2 0x2075 DUP2 PUSH2 0x2039 JUMP JUMPDEST SWAP1 POP SWAP2 SWAP1 POP JUMP JUMPDEST PUSH1 0x0 PUSH1 0x60 DUP3 ADD SWAP1 POP PUSH2 0x2091 PUSH1 0x0 DUP4 ADD DUP7 PUSH2 0x1A5D JUMP JUMPDEST PUSH2 0x209E PUSH1 0x20 DUP4 ADD DUP6 PUSH2 0x1A5D JUMP JUMPDEST PUSH2 0x20AB PUSH1 0x40 DUP4 ADD DUP5 PUSH2 0x14DF JUMP JUMPDEST SWAP5 SWAP4 POP POP POP POP JUMP JUMPDEST PUSH1 0x0 DUP2 MLOAD SWAP1 POP PUSH2 0x20C2 DUP2 PUSH2 0x196B JUMP JUMPDEST SWAP3 SWAP2 POP POP JUMP JUMPDEST PUSH1 0x0 DUP1 PUSH1 0x0 PUSH1 0x60 DUP5 DUP7 SUB SLT ISZERO PUSH2 0x20E1 JUMPI PUSH2 0x20E0 PUSH2 0x1513 JUMP JUMPDEST JUMPDEST PUSH1 0x0 PUSH2 0x20EF DUP7 DUP3 DUP8 ADD PUSH2 0x1E76 JUMP JUMPDEST SWAP4 POP POP PUSH1 0x20 PUSH2 0x2100 DUP7 DUP3 DUP8 ADD PUSH2 0x1E38 JUMP JUMPDEST SWAP3 POP POP PUSH1 0x40 PUSH2 0x2111 DUP7 DUP3 DUP8 ADD PUSH2 0x20B3 JUMP JUMPDEST SWAP2 POP POP SWAP3 POP SWAP3 POP SWAP3 JUMP INVALID LOG2 PUSH5 0x6970667358 0x22 SLT KECCAK256 EXP EXP 0xD0 0xB4 0x4A DUP5 PUSH12 0x9595DC00D849FF62F233BA75 PUSH14 0x590DD241165F640522C46AB76473 PUSH16 0x6C634300081200330000000000000000 "
				},
				"gasEstimates": {
					"creation": {
						"codeDepositCost": "1705800",
						"executionCost": "infinite",
						"totalCost": "infinite"
					},
					"external": {
						"changeAdmin(address)": "29112",
						"getAdmin()": "2545",
						"getMyBalance(bytes32)": "2890",
						"getRegisterFees()": "2525",
						"getUserAddress(bytes32)": "2916",
						"getUserDetails(bytes32)": "infinite",
						"getUserName(address)": "2907",
						"getWithdrawalFees()": "2461",
						"handleVoyagerMessage(address,uint256,bytes)": "infinite",
						"receiveWormholeMessages(bytes,bytes[],bytes32,uint16,bytes32)": "infinite",
						"register(bytes32,bytes32)": "infinite",
						"seenDeliveryVaaHashes(bytes32)": "2842",
						"sendMoney(bytes32,uint256)": "infinite",
						"setRegisterFees(uint256)": "26976",
						"setwithdrawalFees(uint256)": "26932",
						"viewFeeBalance()": "6872",
						"withdrawFees()": "infinite",
						"withdrawMoney(uint256)": "infinite"
					}
				},
				"methodIdentifiers": {
					"changeAdmin(address)": "8f283970",
					"getAdmin()": "6e9960c3",
					"getMyBalance(bytes32)": "f23e8dca",
					"getRegisterFees()": "e07ee04c",
					"getUserAddress(bytes32)": "4a4e8884",
					"getUserDetails(bytes32)": "b602bc79",
					"getUserName(address)": "d84f55ee",
					"getWithdrawalFees()": "0edf110c",
					"handleVoyagerMessage(address,uint256,bytes)": "ccdde8d0",
					"receiveWormholeMessages(bytes,bytes[],bytes32,uint16,bytes32)": "529dca32",
					"register(bytes32,bytes32)": "2f926732",
					"seenDeliveryVaaHashes(bytes32)": "180f6cc2",
					"sendMoney(bytes32,uint256)": "b45f9b82",
					"setRegisterFees(uint256)": "6b030b38",
					"setwithdrawalFees(uint256)": "94924873",
					"viewFeeBalance()": "443a1937",
					"withdrawFees()": "476343ee",
					"withdrawMoney(uint256)": "54876921"
				}
			},
			"storageLayout": {
				"storage": [
					{
						"astId": 6,
						"contract": "contracts/AD.sol:AD",
						"label": "fees",
						"offset": 0,
						"slot": "0",
						"type": "t_uint256"
					},
					{
						"astId": 8,
						"contract": "contracts/AD.sol:AD",
						"label": "wormholeRelayer",
						"offset": 0,
						"slot": "1",
						"type": "t_address"
					},
					{
						"astId": 10,
						"contract": "contracts/AD.sol:AD",
						"label": "owner",
						"offset": 0,
						"slot": "2",
						"type": "t_address"
					},
					{
						"astId": 12,
						"contract": "contracts/AD.sol:AD",
						"label": "admin",
						"offset": 0,
						"slot": "3",
						"type": "t_address"
					},
					{
						"astId": 14,
						"contract": "contracts/AD.sol:AD",
						"label": "voyagerAddress",
						"offset": 0,
						"slot": "4",
						"type": "t_address"
					},
					{
						"astId": 23,
						"contract": "contracts/AD.sol:AD",
						"label": "withdrawalFees",
						"offset": 0,
						"slot": "5",
						"type": "t_uint256"
					},
					{
						"astId": 25,
						"contract": "contracts/AD.sol:AD",
						"label": "registerFees",
						"offset": 0,
						"slot": "6",
						"type": "t_uint256"
					},
					{
						"astId": 30,
						"contract": "contracts/AD.sol:AD",
						"label": "userNameDetail",
						"offset": 0,
						"slot": "7",
						"type": "t_mapping(t_bytes32,t_struct(userData)21_storage)"
					},
					{
						"astId": 34,
						"contract": "contracts/AD.sol:AD",
						"label": "userName",
						"offset": 0,
						"slot": "8",
						"type": "t_mapping(t_address,t_bytes32)"
					},
					{
						"astId": 38,
						"contract": "contracts/AD.sol:AD",
						"label": "userBalance",
						"offset": 0,
						"slot": "9",
						"type": "t_mapping(t_bytes32,t_uint256)"
					},
					{
						"astId": 194,
						"contract": "contracts/AD.sol:AD",
						"label": "seenDeliveryVaaHashes",
						"offset": 0,
						"slot": "10",
						"type": "t_mapping(t_bytes32,t_bool)"
					}
				],
				"types": {
					"t_address": {
						"encoding": "inplace",
						"label": "address",
						"numberOfBytes": "20"
					},
					"t_bool": {
						"encoding": "inplace",
						"label": "bool",
						"numberOfBytes": "1"
					},
					"t_bytes32": {
						"encoding": "inplace",
						"label": "bytes32",
						"numberOfBytes": "32"
					},
					"t_mapping(t_address,t_bytes32)": {
						"encoding": "mapping",
						"key": "t_address",
						"label": "mapping(address => bytes32)",
						"numberOfBytes": "32",
						"value": "t_bytes32"
					},
					"t_mapping(t_bytes32,t_bool)": {
						"encoding": "mapping",
						"key": "t_bytes32",
						"label": "mapping(bytes32 => bool)",
						"numberOfBytes": "32",
						"value": "t_bool"
					},
					"t_mapping(t_bytes32,t_struct(userData)21_storage)": {
						"encoding": "mapping",
						"key": "t_bytes32",
						"label": "mapping(bytes32 => struct AD.userData)",
						"numberOfBytes": "32",
						"value": "t_struct(userData)21_storage"
					},
					"t_mapping(t_bytes32,t_uint256)": {
						"encoding": "mapping",
						"key": "t_bytes32",
						"label": "mapping(bytes32 => uint256)",
						"numberOfBytes": "32",
						"value": "t_uint256"
					},
					"t_struct(userData)21_storage": {
						"encoding": "inplace",
						"label": "struct AD.userData",
						"members": [
							{
								"astId": 16,
								"contract": "contracts/AD.sol:AD",
								"label": "userAddress",
								"offset": 0,
								"slot": "0",
								"type": "t_address"
							},
							{
								"astId": 18,
								"contract": "contracts/AD.sol:AD",
								"label": "username",
								"offset": 0,
								"slot": "1",
								"type": "t_bytes32"
							},
							{
								"astId": 20,
								"contract": "contracts/AD.sol:AD",
								"label": "name",
								"offset": 0,
								"slot": "2",
								"type": "t_bytes32"
							}
						],
						"numberOfBytes": "96"
					},
					"t_uint256": {
						"encoding": "inplace",
						"label": "uint256",
						"numberOfBytes": "32"
					}
				}
			},
			"userdoc": {
				"kind": "user",
				"methods": {},
				"version": 1
			}
		}
	}
}